{
  "contracts/DMToken.sol": {
    "DMToken": {
      "abi": [
        {
          "inputs": [],
          "stateMutability": "nonpayable",
          "type": "constructor"
        },
        {
          "anonymous": false,
          "inputs": [
            {
              "indexed": true,
              "internalType": "address",
              "name": "owner",
              "type": "address"
            },
            {
              "indexed": true,
              "internalType": "address",
              "name": "spender",
              "type": "address"
            },
            {
              "indexed": false,
              "internalType": "uint256",
              "name": "value",
              "type": "uint256"
            }
          ],
          "name": "Approval",
          "type": "event"
        },
        {
          "anonymous": false,
          "inputs": [
            {
              "indexed": false,
              "internalType": "address",
              "name": "user",
              "type": "address"
            },
            {
              "indexed": false,
              "internalType": "uint256",
              "name": "amount",
              "type": "uint256"
            }
          ],
          "name": "ClaimReward",
          "type": "event"
        },
        {
          "anonymous": false,
          "inputs": [
            {
              "indexed": true,
              "internalType": "address",
              "name": "previousOwner",
              "type": "address"
            },
            {
              "indexed": true,
              "internalType": "address",
              "name": "newOwner",
              "type": "address"
            }
          ],
          "name": "OwnershipTransferred",
          "type": "event"
        },
        {
          "anonymous": false,
          "inputs": [
            {
              "indexed": false,
              "internalType": "address",
              "name": "user",
              "type": "address"
            },
            {
              "indexed": false,
              "internalType": "uint256",
              "name": "usdtAmount",
              "type": "uint256"
            },
            {
              "indexed": false,
              "internalType": "uint256",
              "name": "dMtokenAmount",
              "type": "uint256"
            }
          ],
          "name": "Presaled",
          "type": "event"
        },
        {
          "anonymous": false,
          "inputs": [
            {
              "indexed": true,
              "internalType": "address",
              "name": "newMinter",
              "type": "address"
            },
            {
              "indexed": false,
              "internalType": "bool",
              "name": "isMinter",
              "type": "bool"
            }
          ],
          "name": "SetMinters",
          "type": "event"
        },
        {
          "anonymous": false,
          "inputs": [
            {
              "indexed": true,
              "internalType": "address",
              "name": "from",
              "type": "address"
            },
            {
              "indexed": true,
              "internalType": "address",
              "name": "to",
              "type": "address"
            },
            {
              "indexed": false,
              "internalType": "uint256",
              "name": "value",
              "type": "uint256"
            }
          ],
          "name": "Transfer",
          "type": "event"
        },
        {
          "anonymous": false,
          "inputs": [
            {
              "indexed": false,
              "internalType": "address",
              "name": "user",
              "type": "address"
            },
            {
              "indexed": false,
              "internalType": "uint256",
              "name": "amount",
              "type": "uint256"
            },
            {
              "indexed": false,
              "internalType": "uint256",
              "name": "timeStamp",
              "type": "uint256"
            }
          ],
          "name": "Unlocked",
          "type": "event"
        },
        {
          "inputs": [],
          "name": "USDTAddress",
          "outputs": [
            {
              "internalType": "address",
              "name": "",
              "type": "address"
            }
          ],
          "stateMutability": "view",
          "type": "function"
        },
        {
          "inputs": [],
          "name": "USDTDecimals",
          "outputs": [
            {
              "internalType": "uint256",
              "name": "",
              "type": "uint256"
            }
          ],
          "stateMutability": "view",
          "type": "function"
        },
        {
          "inputs": [
            {
              "internalType": "address",
              "name": "owner",
              "type": "address"
            },
            {
              "internalType": "address",
              "name": "spender",
              "type": "address"
            }
          ],
          "name": "allowance",
          "outputs": [
            {
              "internalType": "uint256",
              "name": "",
              "type": "uint256"
            }
          ],
          "stateMutability": "view",
          "type": "function"
        },
        {
          "inputs": [
            {
              "internalType": "address",
              "name": "spender",
              "type": "address"
            },
            {
              "internalType": "uint256",
              "name": "amount",
              "type": "uint256"
            }
          ],
          "name": "approve",
          "outputs": [
            {
              "internalType": "bool",
              "name": "",
              "type": "bool"
            }
          ],
          "stateMutability": "nonpayable",
          "type": "function"
        },
        {
          "inputs": [
            {
              "internalType": "address",
              "name": "account",
              "type": "address"
            }
          ],
          "name": "balanceOf",
          "outputs": [
            {
              "internalType": "uint256",
              "name": "",
              "type": "uint256"
            }
          ],
          "stateMutability": "view",
          "type": "function"
        },
        {
          "inputs": [],
          "name": "claimReward",
          "outputs": [],
          "stateMutability": "nonpayable",
          "type": "function"
        },
        {
          "inputs": [],
          "name": "communityAddress",
          "outputs": [
            {
              "internalType": "address",
              "name": "",
              "type": "address"
            }
          ],
          "stateMutability": "view",
          "type": "function"
        },
        {
          "inputs": [],
          "name": "communityFee",
          "outputs": [
            {
              "internalType": "uint256",
              "name": "",
              "type": "uint256"
            }
          ],
          "stateMutability": "view",
          "type": "function"
        },
        {
          "inputs": [],
          "name": "decimals",
          "outputs": [
            {
              "internalType": "uint8",
              "name": "",
              "type": "uint8"
            }
          ],
          "stateMutability": "view",
          "type": "function"
        },
        {
          "inputs": [
            {
              "internalType": "address",
              "name": "spender",
              "type": "address"
            },
            {
              "internalType": "uint256",
              "name": "subtractedValue",
              "type": "uint256"
            }
          ],
          "name": "decreaseAllowance",
          "outputs": [
            {
              "internalType": "bool",
              "name": "",
              "type": "bool"
            }
          ],
          "stateMutability": "nonpayable",
          "type": "function"
        },
        {
          "inputs": [
            {
              "internalType": "address",
              "name": "_minter",
              "type": "address"
            }
          ],
          "name": "disableMinter",
          "outputs": [],
          "stateMutability": "nonpayable",
          "type": "function"
        },
        {
          "inputs": [
            {
              "internalType": "address",
              "name": "token",
              "type": "address"
            }
          ],
          "name": "emergencyWithdraw",
          "outputs": [],
          "stateMutability": "nonpayable",
          "type": "function"
        },
        {
          "inputs": [],
          "name": "feeAddress",
          "outputs": [
            {
              "internalType": "address",
              "name": "",
              "type": "address"
            }
          ],
          "stateMutability": "view",
          "type": "function"
        },
        {
          "inputs": [],
          "name": "getOwner",
          "outputs": [
            {
              "internalType": "address",
              "name": "",
              "type": "address"
            }
          ],
          "stateMutability": "view",
          "type": "function"
        },
        {
          "inputs": [
            {
              "internalType": "address",
              "name": "account",
              "type": "address"
            }
          ],
          "name": "getReward",
          "outputs": [
            {
              "internalType": "uint256",
              "name": "rewardBalance",
              "type": "uint256"
            }
          ],
          "stateMutability": "view",
          "type": "function"
        },
        {
          "inputs": [
            {
              "internalType": "address",
              "name": "account",
              "type": "address"
            }
          ],
          "name": "getStakerInfo",
          "outputs": [
            {
              "internalType": "bool",
              "name": "isEnd",
              "type": "bool"
            },
            {
              "internalType": "uint256[15]",
              "name": "params",
              "type": "uint256[15]"
            },
            {
              "internalType": "uint256[36]",
              "name": "pools",
              "type": "uint256[36]"
            },
            {
              "internalType": "bool",
              "name": "isFirst",
              "type": "bool"
            }
          ],
          "stateMutability": "view",
          "type": "function"
        },
        {
          "inputs": [],
          "name": "getTotalFee",
          "outputs": [
            {
              "internalType": "uint256",
              "name": "",
              "type": "uint256"
            }
          ],
          "stateMutability": "view",
          "type": "function"
        },
        {
          "inputs": [
            {
              "internalType": "address",
              "name": "account",
              "type": "address"
            }
          ],
          "name": "getUnlockAmount",
          "outputs": [
            {
              "internalType": "uint256",
              "name": "",
              "type": "uint256"
            }
          ],
          "stateMutability": "view",
          "type": "function"
        },
        {
          "inputs": [
            {
              "internalType": "address",
              "name": "spender",
              "type": "address"
            },
            {
              "internalType": "uint256",
              "name": "addedValue",
              "type": "uint256"
            }
          ],
          "name": "increaseAllowance",
          "outputs": [
            {
              "internalType": "bool",
              "name": "",
              "type": "bool"
            }
          ],
          "stateMutability": "nonpayable",
          "type": "function"
        },
        {
          "inputs": [],
          "name": "insuranceFee",
          "outputs": [
            {
              "internalType": "uint256",
              "name": "",
              "type": "uint256"
            }
          ],
          "stateMutability": "view",
          "type": "function"
        },
        {
          "inputs": [],
          "name": "insurancePoolBalance",
          "outputs": [
            {
              "internalType": "uint256",
              "name": "",
              "type": "uint256"
            }
          ],
          "stateMutability": "view",
          "type": "function"
        },
        {
          "inputs": [],
          "name": "insurancePoolBurnt",
          "outputs": [
            {
              "internalType": "uint256",
              "name": "",
              "type": "uint256"
            }
          ],
          "stateMutability": "view",
          "type": "function"
        },
        {
          "inputs": [
            {
              "internalType": "address",
              "name": "",
              "type": "address"
            }
          ],
          "name": "isMinters",
          "outputs": [
            {
              "internalType": "bool",
              "name": "",
              "type": "bool"
            }
          ],
          "stateMutability": "view",
          "type": "function"
        },
        {
          "inputs": [],
          "name": "liquidityFee",
          "outputs": [
            {
              "internalType": "uint256",
              "name": "",
              "type": "uint256"
            }
          ],
          "stateMutability": "view",
          "type": "function"
        },
        {
          "inputs": [],
          "name": "minLiquidityAmount",
          "outputs": [
            {
              "internalType": "uint256",
              "name": "",
              "type": "uint256"
            }
          ],
          "stateMutability": "view",
          "type": "function"
        },
        {
          "inputs": [
            {
              "internalType": "uint256",
              "name": "amount",
              "type": "uint256"
            }
          ],
          "name": "mint",
          "outputs": [
            {
              "internalType": "bool",
              "name": "",
              "type": "bool"
            }
          ],
          "stateMutability": "nonpayable",
          "type": "function"
        },
        {
          "inputs": [
            {
              "internalType": "uint256",
              "name": "",
              "type": "uint256"
            }
          ],
          "name": "minters",
          "outputs": [
            {
              "internalType": "address",
              "name": "",
              "type": "address"
            }
          ],
          "stateMutability": "view",
          "type": "function"
        },
        {
          "inputs": [],
          "name": "name",
          "outputs": [
            {
              "internalType": "string",
              "name": "",
              "type": "string"
            }
          ],
          "stateMutability": "view",
          "type": "function"
        },
        {
          "inputs": [],
          "name": "owner",
          "outputs": [
            {
              "internalType": "address",
              "name": "",
              "type": "address"
            }
          ],
          "stateMutability": "view",
          "type": "function"
        },
        {
          "inputs": [],
          "name": "pancakeswapMDUSDTPair",
          "outputs": [
            {
              "internalType": "address",
              "name": "",
              "type": "address"
            }
          ],
          "stateMutability": "view",
          "type": "function"
        },
        {
          "inputs": [],
          "name": "pancakeswapRouter",
          "outputs": [
            {
              "internalType": "contract IPancakeswapRouter",
              "name": "",
              "type": "address"
            }
          ],
          "stateMutability": "view",
          "type": "function"
        },
        {
          "inputs": [
            {
              "internalType": "uint256",
              "name": "_usdt",
              "type": "uint256"
            },
            {
              "internalType": "address",
              "name": "referral",
              "type": "address"
            }
          ],
          "name": "presale",
          "outputs": [],
          "stateMutability": "nonpayable",
          "type": "function"
        },
        {
          "inputs": [],
          "name": "presaleEndTime",
          "outputs": [
            {
              "internalType": "uint256",
              "name": "",
              "type": "uint256"
            }
          ],
          "stateMutability": "view",
          "type": "function"
        },
        {
          "inputs": [],
          "name": "presaleLimit1",
          "outputs": [
            {
              "internalType": "uint256",
              "name": "",
              "type": "uint256"
            }
          ],
          "stateMutability": "view",
          "type": "function"
        },
        {
          "inputs": [],
          "name": "presaleLimit2",
          "outputs": [
            {
              "internalType": "uint256",
              "name": "",
              "type": "uint256"
            }
          ],
          "stateMutability": "view",
          "type": "function"
        },
        {
          "inputs": [],
          "name": "presalePrice",
          "outputs": [
            {
              "internalType": "uint256",
              "name": "",
              "type": "uint256"
            }
          ],
          "stateMutability": "view",
          "type": "function"
        },
        {
          "inputs": [],
          "name": "presaleTotal",
          "outputs": [
            {
              "internalType": "uint256",
              "name": "",
              "type": "uint256"
            }
          ],
          "stateMutability": "view",
          "type": "function"
        },
        {
          "inputs": [],
          "name": "presaledTotal",
          "outputs": [
            {
              "internalType": "uint256",
              "name": "",
              "type": "uint256"
            }
          ],
          "stateMutability": "view",
          "type": "function"
        },
        {
          "inputs": [
            {
              "internalType": "address",
              "name": "",
              "type": "address"
            }
          ],
          "name": "presales",
          "outputs": [
            {
              "internalType": "uint256",
              "name": "amount",
              "type": "uint256"
            },
            {
              "internalType": "uint256",
              "name": "unlocked",
              "type": "uint256"
            },
            {
              "internalType": "uint256",
              "name": "rewards",
              "type": "uint256"
            }
          ],
          "stateMutability": "view",
          "type": "function"
        },
        {
          "inputs": [],
          "name": "referralRate",
          "outputs": [
            {
              "internalType": "uint256",
              "name": "",
              "type": "uint256"
            }
          ],
          "stateMutability": "view",
          "type": "function"
        },
        {
          "inputs": [],
          "name": "renounceOwnership",
          "outputs": [],
          "stateMutability": "nonpayable",
          "type": "function"
        },
        {
          "inputs": [],
          "name": "rewardFee",
          "outputs": [
            {
              "internalType": "uint256",
              "name": "",
              "type": "uint256"
            }
          ],
          "stateMutability": "view",
          "type": "function"
        },
        {
          "inputs": [],
          "name": "rewardPoolBalance",
          "outputs": [
            {
              "internalType": "uint256",
              "name": "",
              "type": "uint256"
            }
          ],
          "stateMutability": "view",
          "type": "function"
        },
        {
          "inputs": [],
          "name": "rewardedTotalBalance",
          "outputs": [
            {
              "internalType": "uint256",
              "name": "",
              "type": "uint256"
            }
          ],
          "stateMutability": "view",
          "type": "function"
        },
        {
          "inputs": [
            {
              "internalType": "uint256[4]",
              "name": "fees",
              "type": "uint256[4]"
            }
          ],
          "name": "setFees",
          "outputs": [],
          "stateMutability": "nonpayable",
          "type": "function"
        },
        {
          "inputs": [
            {
              "internalType": "address",
              "name": "_feeAddress",
              "type": "address"
            },
            {
              "internalType": "address",
              "name": "_communityAddress",
              "type": "address"
            },
            {
              "internalType": "address",
              "name": "_RouterAddress",
              "type": "address"
            },
            {
              "internalType": "address",
              "name": "_USDTAddress",
              "type": "address"
            },
            {
              "internalType": "address",
              "name": "_storeAddress",
              "type": "address"
            }
          ],
          "name": "setInitialAddresses",
          "outputs": [],
          "stateMutability": "nonpayable",
          "type": "function"
        },
        {
          "inputs": [
            {
              "internalType": "address",
              "name": "_newMinter",
              "type": "address"
            }
          ],
          "name": "setMinter",
          "outputs": [],
          "stateMutability": "nonpayable",
          "type": "function"
        },
        {
          "inputs": [
            {
              "internalType": "address[]",
              "name": "_minters",
              "type": "address[]"
            }
          ],
          "name": "setMinters",
          "outputs": [],
          "stateMutability": "nonpayable",
          "type": "function"
        },
        {
          "inputs": [
            {
              "internalType": "uint256",
              "name": "_referralRate",
              "type": "uint256"
            }
          ],
          "name": "setReferralRate",
          "outputs": [],
          "stateMutability": "nonpayable",
          "type": "function"
        },
        {
          "inputs": [
            {
              "internalType": "bool",
              "name": "enable",
              "type": "bool"
            }
          ],
          "name": "setSwapAndLiquifyEnabled",
          "outputs": [],
          "stateMutability": "nonpayable",
          "type": "function"
        },
        {
          "inputs": [],
          "name": "storeAddress",
          "outputs": [
            {
              "internalType": "address",
              "name": "",
              "type": "address"
            }
          ],
          "stateMutability": "view",
          "type": "function"
        },
        {
          "inputs": [],
          "name": "swapAndLiquifyEnabled",
          "outputs": [
            {
              "internalType": "bool",
              "name": "",
              "type": "bool"
            }
          ],
          "stateMutability": "view",
          "type": "function"
        },
        {
          "inputs": [],
          "name": "symbol",
          "outputs": [
            {
              "internalType": "string",
              "name": "",
              "type": "string"
            }
          ],
          "stateMutability": "view",
          "type": "function"
        },
        {
          "inputs": [],
          "name": "totalSupply",
          "outputs": [
            {
              "internalType": "uint256",
              "name": "",
              "type": "uint256"
            }
          ],
          "stateMutability": "view",
          "type": "function"
        },
        {
          "inputs": [
            {
              "internalType": "address",
              "name": "recipient",
              "type": "address"
            },
            {
              "internalType": "uint256",
              "name": "amount",
              "type": "uint256"
            }
          ],
          "name": "transfer",
          "outputs": [
            {
              "internalType": "bool",
              "name": "",
              "type": "bool"
            }
          ],
          "stateMutability": "nonpayable",
          "type": "function"
        },
        {
          "inputs": [
            {
              "internalType": "address",
              "name": "sender",
              "type": "address"
            },
            {
              "internalType": "address",
              "name": "recipient",
              "type": "address"
            },
            {
              "internalType": "uint256",
              "name": "amount",
              "type": "uint256"
            }
          ],
          "name": "transferFrom",
          "outputs": [
            {
              "internalType": "bool",
              "name": "",
              "type": "bool"
            }
          ],
          "stateMutability": "nonpayable",
          "type": "function"
        },
        {
          "inputs": [
            {
              "internalType": "address",
              "name": "newOwner",
              "type": "address"
            }
          ],
          "name": "transferOwnership",
          "outputs": [],
          "stateMutability": "nonpayable",
          "type": "function"
        },
        {
          "inputs": [],
          "name": "unlock",
          "outputs": [],
          "stateMutability": "nonpayable",
          "type": "function"
        }
      ],
      "devdoc": {
        "kind": "dev",
        "methods": {
          "approve(address,uint256)": {
            "details": "Sets `amount` as the allowance of `spender` over the caller's tokens. Returns a boolean value indicating whether the operation succeeded. IMPORTANT: Beware that changing an allowance with this method brings the risk that someone may use both the old and the new allowance by unfortunate transaction ordering. One possible solution to mitigate this race condition is to first reduce the spender's allowance to 0 and set the desired value afterwards: https://github.com/ethereum/EIPs/issues/20#issuecomment-263524729 Emits an {Approval} event."
          },
          "balanceOf(address)": {
            "details": "Returns the amount of tokens owned by `account`."
          },
          "decimals()": {
            "details": "Returns the token decimals."
          },
          "getOwner()": {
            "details": "Returns the bep token owner."
          },
          "name()": {
            "details": "Returns the token name."
          },
          "symbol()": {
            "details": "Returns the token symbol."
          },
          "totalSupply()": {
            "details": "Returns the amount of tokens in existence."
          },
          "transfer(address,uint256)": {
            "details": "Moves `amount` tokens from the caller's account to `recipient`. Returns a boolean value indicating whether the operation succeeded. Emits a {Transfer} event."
          },
          "transferFrom(address,address,uint256)": {
            "details": "Moves `amount` tokens from `sender` to `recipient` using the allowance mechanism. `amount` is then deducted from the caller's allowance. Returns a boolean value indicating whether the operation succeeded. Emits a {Transfer} event."
          }
        },
        "version": 1
      },
      "evm": {
        "bytecode": {
          "linkReferences": {},
          "object": "6005805460ff1916601217905560c06040526002608081905261444d60f01b60a090815262000032916006919062000255565b50604080518082019091526007808252662226aa37b5b2b760c91b602090920191825262000061918162000255565b506b033b2e3c9fd0803ce80000006008556acecb8f27f4200f3a0000006009556005600a818155600b8290556002600c556003600d55600f8054600160a01b60ff60a01b19909116179055683635c9adc5dea0000060105560126018556611c37937e080006019819055915460ff16900a680ad78ebc5ac62000008102829004601a5568a2a15d09519be000000204601b5560055460ff16600a0a630ee6b28002601d5563619a6d00601e9081556040805161012081018252600860e082019081526234bc00610100830152815281518083018352601281526276a700602080830191909152808301919091528251808401845293845262c5c100848201528183019390935281518083018352602d8152630114db0081850152606082015281518083018352603e8152630163f50081850152608082015281518083018352605081526301b30f008185015260a08201528151808301909252606482526301da9c008284015260c0810191909152620001dd91906007620002da565b50600c602155348015620001f057600080fd5b506000620001fd62000251565b600080546001600160a01b0319166001600160a01b0383169081178255604051929350917f8be0079c531659141344cd1fd0a4f28419497f9722a3daafe3b4186f6b6457e0908290a35042601555620003cc565b3390565b828054600181600116156101000203166002900490600052602060002090601f016020900481019282601f106200029857805160ff1916838001178555620002c8565b82800160010185558215620002c8579182015b82811115620002c8578251825591602001919060010190620002ab565b50620002d692915062000334565b5090565b82805482825590600052602060002090810192821562000326579160200282015b82811115620003265782516200031590839060026200034b565b5091602001919060010190620002fb565b50620002d692915062000388565b5b80821115620002d6576000815560010162000335565b828054828255906000526020600020908101928215620002c85791602002820182811115620002c8578251825591602001919060010190620002ab565b80821115620002d65760006200039f8282620003a9565b5060010162000388565b5080546000825590600052602060002090810190620003c9919062000334565b50565b613a5480620003dc6000396000f3fe608060405234801561001057600080fd5b506004361061038d5760003560e01c80638da5cb5b116101de578063c00007b01161010f578063dc1d85f6116100ad578063f2fde38b1161007c578063f2fde38b14610a19578063fca3b5aa14610a3f578063fd64e07814610a65578063ff920c7414610a6d5761038d565b8063dc1d85f614610997578063dd62ed3e1461099f578063efcd708f146109cd578063f2c4da9314610a115761038d565b8063c9559786116100e9578063c955978614610962578063ca4863fd1461096a578063da7a368714610987578063db6754ed1461098f5761038d565b8063c00007b014610915578063c49b9a801461093b578063c8f0c5771461095a5761038d565b8063a0712d681161017c578063a9059cbb11610156578063a9059cbb146108b3578063ada3da15146108df578063b88a802f14610905578063baedc8d61461090d5761038d565b8063a0712d6814610862578063a457c2d71461087f578063a69df4b5146108ab5761038d565b806397c4fac7116101b857806397c4fac71461084257806398118cb41461084a5780639a258a7914610852578063a053ce1f1461085a5761038d565b80638da5cb5b1461082a5780638e33f3ed1461083257806395d89b411461083a5761038d565b8063547d0096116102c35780637a5c08ae1161026157806386e476dd1161023057806386e476dd1461080a578063893d20e8146108125780638961be6b1461081a5780638b424267146108225761038d565b80637a5c08ae146107b15780637ae316d0146107b95780637c2003e3146107c15780638623ec7b146107ed5761038d565b806370a082311161029d57806370a08231146106de578063715018a61461070457806371e8ec681461070c578063733bdef0146107145761038d565b8063547d0096146105c35780636b74b211146106665780636ff1c9bc146106b85761038d565b80633033bed811610330578063412753581161030a578063412753581461054757806349371b191461056b5780634a74bb02146105b35780634d9e9e09146105bb5761038d565b80633033bed8146104d7578063313ce567146104fd578063395093511461051b5761038d565b806318160ddd1161036c57806318160ddd1461046957806321a5ceee1461047157806323b872dd14610499578063249b7c19146104cf5761038d565b80620e7fa81461039257806306fdde03146103ac578063095ea7b314610429575b600080fd5b61039a610a75565b60408051918252519081900360200190f35b6103b4610a7b565b6040805160208082528351818301528351919283929083019185019080838360005b838110156103ee5781810151838201526020016103d6565b50505050905090810190601f16801561041b5780820380516001836020036101000a031916815260200191505b509250505060405180910390f35b6104556004803603604081101561043f57600080fd5b506001600160a01b038135169060200135610b11565b604080519115158252519081900360200190f35b61039a610b2f565b6104976004803603602081101561048757600080fd5b50356001600160a01b0316610b35565b005b610455600480360360608110156104af57600080fd5b506001600160a01b03813581169160208101359091169060400135610be3565b61039a610c6a565b61039a600480360360208110156104ed57600080fd5b50356001600160a01b0316610c70565b610505610d6c565b6040805160ff9092168252519081900360200190f35b6104556004803603604081101561053157600080fd5b506001600160a01b038135169060200135610d75565b61054f610dc3565b604080516001600160a01b039092168252519081900360200190f35b610497600480360360a081101561058157600080fd5b506001600160a01b03813581169160208101358216916040820135811691606081013582169160809091013516610dd2565b610455610f8e565b61039a610f9e565b610497600480360360208110156105d957600080fd5b8101906020810181356401000000008111156105f457600080fd5b82018360208201111561060657600080fd5b8035906020019184602083028401116401000000008311171561062857600080fd5b919080806020026020016040519081016040528093929190818152602001838360200280828437600092019190915250929550610fa4945050505050565b6104976004803603608081101561067c57600080fd5b81019080806080019060048060200260405190810160405280929190826004602002808284376000920191909152509194506110309350505050565b610497600480360360208110156106ce57600080fd5b50356001600160a01b03166110a6565b61039a600480360360208110156106f457600080fd5b50356001600160a01b0316611213565b61049761122e565b61039a6112d0565b61073a6004803603602081101561072a57600080fd5b50356001600160a01b03166112d6565b604051841515815260208101846101e080838360005b83811015610768578181015183820152602001610750565b5050505090500183602460200280838360005b8381101561079357818101518382015260200161077b565b50505050905001821515815260200194505050505060405180910390f35b61039a61188b565b61039a611891565b610497600480360360408110156107d757600080fd5b50803590602001356001600160a01b03166118a3565b61054f6004803603602081101561080357600080fd5b5035611c5b565b61054f611c82565b61054f611c91565b61039a611ca0565b61039a611ca6565b61054f611cac565b61039a611cbb565b6103b4611cc1565b61039a611d22565b61039a611d28565b61054f611d2e565b61039a611d3d565b6104556004803603602081101561087857600080fd5b5035611d43565b6104556004803603604081101561089557600080fd5b506001600160a01b038135169060200135611dd2565b610497611e3a565b610455600480360360408110156108c957600080fd5b506001600160a01b038135169060200135611f4a565b610455600480360360208110156108f557600080fd5b50356001600160a01b0316611f5e565b610497611f73565b61039a612104565b61039a6004803603602081101561092b57600080fd5b50356001600160a01b031661210a565b6104976004803603602081101561095157600080fd5b503515156121be565b61039a612234565b61039a61223a565b6104976004803603602081101561098057600080fd5b5035612240565b61039a61229d565b61054f6122a3565b61039a6122b2565b61039a600480360360408110156109b557600080fd5b506001600160a01b03813581169160200135166122b8565b6109f3600480360360208110156109e357600080fd5b50356001600160a01b03166122e3565b60408051938452602084019290925282820152519081900360600190f35b61054f612304565b61049760048036036020811015610a2f57600080fd5b50356001600160a01b0316612313565b61049760048036036020811015610a5557600080fd5b50356001600160a01b0316612377565b61039a612468565b61054f61246e565b60195481565b60078054604080516020601f6002600019610100600188161502019095169490940493840181900481028201810190925282815260609390929091830182828015610b075780601f10610adc57610100808354040283529160200191610b07565b820191906000526020600020905b815481529060010190602001808311610aea57829003601f168201915b5050505050905090565b6000610b25610b1e61247d565b8484612481565b5060015b92915050565b60095490565b610b3d61247d565b6000546001600160a01b03908116911614610b8d576040805162461bcd60e51b8152602060048201819052602482015260008051602061388d833981519152604482015290519081900360640190fd5b6001600160a01b0381166000818152600160209081526040808320805460ff191690558051928352517f4579ec50a131ee14d9ab0dfeddceba4be2fb6907f7326c52237be3fab060ba7f9281900390910190a250565b6000610bf084848461256d565b610c6084610bfc61247d565b610c5b85604051806060016040528060288152602001613801602891396001600160a01b038a16600090815260046020526040812090610c3a61247d565b6001600160a01b03168152602081019190915260400160002054919061288e565b612481565b5060019392505050565b601e5481565b60006001600160a01b038216610c8857506000610d67565b6020544290600019015b8015610d605760208181548110610ca557fe5b90600052602060002001600181548110610cbb57fe5b906000526020600020015460155401821115610d5757601f6000856001600160a01b03166001600160a01b0316815260200190815260200160002060010154606460208381548110610d0957fe5b90600052602060002001600081548110610d1f57fe5b60009182526020808320909101546001600160a01b0389168352601f9091526040909120540281610d4c57fe5b040392505050610d67565b60001901610c92565b5060009150505b919050565b60055460ff1690565b6000610b25610d8261247d565b84610c5b8560046000610d9361247d565b6001600160a01b03908116825260208083019390935260409182016000908120918c168152925290205490612925565b600f546001600160a01b031681565b610dda61247d565b6000546001600160a01b03908116911614610e2a576040805162461bcd60e51b8152602060048201819052602482015260008051602061388d833981519152604482015290519081900360640190fd5b600f80546001600160a01b038088166001600160a01b031992831617909255600e8054878416908316179055601380548584169083161790556011805492861692909116821790556040805163c45a015560e01b8152905185929163c45a0155916004808301926020929190829003018186803b158015610eaa57600080fd5b505afa158015610ebe573d6000803e3d6000fd5b505050506040513d6020811015610ed457600080fd5b5051601354604080516364e329cb60e11b81523060048201526001600160a01b0392831660248201529051919092169163c9c653969160448083019260209291908290030181600087803b158015610f2b57600080fd5b505af1158015610f3f573d6000803e3d6000fd5b505050506040513d6020811015610f5557600080fd5b5051601280546001600160a01b039283166001600160a01b03199182161790915560148054949092169316929092179091555050505050565b600f54600160a01b900460ff1681565b60105481565b610fac61247d565b6000546001600160a01b03908116911614610ffc576040805162461bcd60e51b8152602060048201819052602482015260008051602061388d833981519152604482015290519081900360640190fd5b60005b815181101561102c5761102482828151811061101757fe5b6020026020010151612377565b600101610fff565b5050565b61103861247d565b6000546001600160a01b03908116911614611088576040805162461bcd60e51b8152602060048201819052602482015260008051602061388d833981519152604482015290519081900360640190fd5b8051600a556020810151600b556040810151600c5560600151600d55565b6110ae61247d565b6000546001600160a01b039081169116146110fe576040805162461bcd60e51b8152602060048201819052602482015260008051602061388d833981519152604482015290519081900360640190fd5b6000816001600160a01b03166370a08231306040518263ffffffff1660e01b815260040180826001600160a01b0316815260200191505060206040518083038186803b15801561114d57600080fd5b505afa158015611161573d6000803e3d6000fd5b505050506040513d602081101561117757600080fd5b505190506001600160a01b03821663a9059cbb611192611cac565b836040518363ffffffff1660e01b815260040180836001600160a01b0316815260200182815260200192505050602060405180830381600087803b1580156111d957600080fd5b505af11580156111ed573d6000803e3d6000fd5b505050506040513d602081101561120357600080fd5b5050600060168190556022555050565b6001600160a01b031660009081526003602052604090205490565b61123661247d565b6000546001600160a01b03908116911614611286576040805162461bcd60e51b8152602060048201819052602482015260008051602061388d833981519152604482015290519081900360640190fd5b600080546040516001600160a01b03909116907f8be0079c531659141344cd1fd0a4f28419497f9722a3daafe3b4186f6b6457e0908390a3600080546001600160a01b0319169055565b601b5481565b60006112e0613753565b6112e8613772565b6001600160a01b0384166000908152601f6020526040812054601e54808552421194506001908061131b57601a5461131e565b60005b60018301928690600f811061132f57fe5b6020020152601b54600183019290829003908690600f811061134d57fe5b6020020152601d5460018301928690600f811061136657fe5b60200201526113748761210a565b60018301928690600f811061138557fe5b602090810291909101919091526001600160a01b03881660009081526003909152604090205460018301928690600f81106113bc57fe5b60200201526001600160a01b0387161561144e57601354604080516370a0823160e01b81526001600160a01b038a81166004830152915191909216916370a08231916024808301926020929190829003018186803b15801561141d57600080fd5b505afa158015611431573d6000803e3d6000fd5b505050506040513d602081101561144757600080fd5b5051611451565b60005b60018301928690600f811061146257fe5b602002015261147087610c70565b60018301928690600f811061148157fe5b602002015260165460018301928690600f811061149a57fe5b602002015260175460018301928690600f81106114b357fe5b602002015260225460018301928690600f81106114cc57fe5b602002015260235460018301928690600f81106114e557fe5b60209081029190910191909152601354601254604080516370a0823160e01b81526001600160a01b039283166004820152905191909216926370a082319260248082019391829003018186803b15801561153e57600080fd5b505afa158015611552573d6000803e3d6000fd5b505050506040513d602081101561156857600080fd5b505160018301928690600f811061157b57fe5b602090810291909101919091526012546001600160a01b031660009081526003909152604090205460018301928690600f81106115b457fe5b602090810291909101919091523060009081526003909152604090205460018301928690600f81106115e257fe5b602002015260009150815b6002548110156118005760008060006002848154811061160957fe5b6000918252602090912001546040805163c345315360e01b81526001600160a01b038e811660048301529151919092169163c3453153916024808301926080929190829003018186803b15801561165f57600080fd5b505afa158015611673573d6000803e3d6000fd5b505050506040513d608081101561168957600080fd5b5080516020820151604090920151600189019891955091935090915083908990602481106116b357fe5b6020020152600186019582908990602481106116cb57fe5b6020020152600186019581908990602481106116e357fe5b602002015260028054859081106116f657fe5b6000918252602091829020015460408051630106395f60e01b815290516001600160a01b0390921692630106395f92600480840193829003018186803b15801561173f57600080fd5b505afa158015611753573d6000803e3d6000fd5b505050506040513d602081101561176957600080fd5b50516040805163313ce56760e01b815290516001600160a01b039092169163313ce56791600480820192602092909190829003018186803b1580156117ad57600080fd5b505afa1580156117c1573d6000803e3d6000fd5b505050506040513d60208110156117d757600080fd5b5051600187019660ff909116908990602481106117f057fe5b60200201525050506001016115ed565b5060125460408051630dfe168160e01b8152905130926001600160a01b031691630dfe1681916004808301926020929190829003018186803b15801561184557600080fd5b505afa158015611859573d6000803e3d6000fd5b505050506040513d602081101561186f57600080fd5b5051969895975093956001600160a01b03169093149392505050565b60165481565b600d54600b54600c54600a5401010190565b6019543390600090670de0b6b3a76400008502816118bd57fe5b0490506001600160a01b03821661191b576040805162461bcd60e51b815260206004820152601d60248201527f5f73656e6465722063616e2774206265207a65726f2061646472657373000000604482015290519081900360640190fd5b80601d5411801561192d5750601e5442105b61196e576040805162461bcd60e51b815260206004820152600d60248201526c1c1c995cd85b1948195b991959609a1b604482015290519081900360640190fd5b6001600160a01b0382166000908152601f6020526040902054601a5490820110156119ca5760405162461bcd60e51b815260040180806020018281038252602d8152602001806138d3602d913960400191505060405180910390fd5b6001600160a01b0382166000908152601f6020526040902054601b549082011115611a265760405162461bcd60e51b81526004018080602001828103825260308152602001806139ab6030913960400191505060405180910390fd5b601354600f54604080516323b872dd60e01b81526001600160a01b038681166004830152928316602482015260448101889052905191909216916323b872dd9160648083019260209291908290030181600087803b158015611a8757600080fd5b505af1158015611a9b573d6000803e3d6000fd5b505050506040513d6020811015611ab157600080fd5b50611abe90508282612986565b6001600160a01b03831615611be757611af683611af16064611aeb60215486612aa690919063ffffffff16565b90612aff565b612986565b611b106064611aeb60215484612aa690919063ffffffff16565b6001600160a01b0384166000908152601f6020526040902080549091019055602154611b4490606490611aeb908490612aa6565b601d8054919091039055602154611b6390606490611aeb908490612aa6565b601c805490910190556021547ff0abe27de28fcb91718e6302b9813c494ef6d8a617b38c71b44d6f70be3a5f2a908490611ba590606490611aeb908990612aa6565b611bbf6064611aeb60215487612aa690919063ffffffff16565b604080516001600160a01b039094168452602084019290925282820152519081900360600190a15b6001600160a01b0382166000818152601f6020908152604091829020805485019055601d80548590039055601c80548501905581519283528201869052818101839052517ff0abe27de28fcb91718e6302b9813c494ef6d8a617b38c71b44d6f70be3a5f2a9181900360600190a150505050565b60028181548110611c6857fe5b6000918252602090912001546001600160a01b0316905081565b600e546001600160a01b031681565b6000611c9b611cac565b905090565b600d5481565b600b5481565b6000546001600160a01b031690565b60235481565b60068054604080516020601f6002600019610100600188161502019095169490940493840181900481028201810190925282815260609390929091830182828015610b075780601f10610adc57610100808354040283529160200191610b07565b600c5481565b600a5481565b6012546001600160a01b031681565b60215481565b33600090815260016020819052604082205460ff1615151480611d7e5750611d69611cac565b6001600160a01b0316336001600160a01b0316145b611db95760405162461bcd60e51b81526004018080602001828103825260228152602001806139436022913960400191505060405180910390fd5b611dca611dc461247d565b83612986565b506001919050565b6000610b25611ddf61247d565b84610c5b856040518060600160405280602581526020016139656025913960046000611e0961247d565b6001600160a01b03908116825260208083019390935260409182016000908120918d1681529252902054919061288e565b336000611e4682610c70565b90506001600160a01b038216611e9a576040805162461bcd60e51b815260206004820152601460248201527373656e6465722063616e2774206265207a65726f60601b604482015290519081900360640190fd5b60008111611ee7576040805162461bcd60e51b81526020600482015260156024820152745f756e6c6f636b416d6f756e74206973207a65726f60581b604482015290519081900360640190fd5b6001600160a01b0382166000818152601f6020908152604091829020600101805485019055815192835282018390524282820152517f3f2f29fa02cc34566ac167b446be0be9e0254cac18eda93b2dfe6a7a7c8affb99181900360600190a15050565b6000610b25611f5761247d565b848461256d565b60016020526000908152604090205460ff1681565b336000611f7f8261210a565b90506001600160a01b038216611fd3576040805162461bcd60e51b815260206004820152601460248201527373656e6465722063616e2774206265207a65726f60601b604482015290519081900360640190fd5b600081116120125760405162461bcd60e51b81526004018080602001828103825260218152602001806138296021913960400191505060405180910390fd5b6013546040805163a9059cbb60e01b81526001600160a01b038581166004830152602482018590529151919092169163a9059cbb9160448083019260209291908290030181600087803b15801561206857600080fd5b505af115801561207c573d6000803e3d6000fd5b505050506040513d602081101561209257600080fd5b50506001600160a01b0382166000818152601f602090815260409182902060020180548501905560168054859003905560178054850190558151928352820183905280517fba8de60c3403ec381d1d484652ea1980e3c3e56359195c92525bff4ce47ad98e9281900390910190a15050565b60175481565b6000601c546000148061212457506001600160a01b038216155b1561213157506000610d67565b601c546001600160a01b0383166000908152601f602052604090205460175460165461216d9392611aeb92909161216791612925565b90612aa6565b6001600160a01b0383166000908152601f60205260409020600201549091508111156121b6576001600160a01b0382166000908152601f60205260409020600201549003610d67565b506000919050565b6121c661247d565b6000546001600160a01b03908116911614612216576040805162461bcd60e51b8152602060048201819052602482015260008051602061388d833981519152604482015290519081900360640190fd5b600f8054911515600160a01b0260ff60a01b19909216919091179055565b601a5481565b60225481565b61224861247d565b6000546001600160a01b03908116911614612298576040805162461bcd60e51b8152602060048201819052602482015260008051602061388d833981519152604482015290519081900360640190fd5b602155565b601c5481565b6011546001600160a01b031681565b601d5481565b6001600160a01b03918216600090815260046020908152604080832093909416825291909152205490565b601f6020526000908152604090208054600182015460029092015490919083565b6014546001600160a01b031681565b61231b61247d565b6000546001600160a01b0390811691161461236b576040805162461bcd60e51b8152602060048201819052602482015260008051602061388d833981519152604482015290519081900360640190fd5b61237481612b41565b50565b61237f61247d565b6000546001600160a01b039081169116146123cf576040805162461bcd60e51b8152602060048201819052602482015260008051602061388d833981519152604482015290519081900360640190fd5b6001600160a01b0381166000818152600160208181526040808420805460ff19168417905560028054808501825594527f405787fa12a823e0f2b7631cc41b3ba8828b3321ca811111fa75cd3aa3bb5ace90930180546001600160a01b03191685179055825191825291517f4579ec50a131ee14d9ab0dfeddceba4be2fb6907f7326c52237be3fab060ba7f929181900390910190a250565b60185481565b6013546001600160a01b031681565b3390565b6001600160a01b0383166124c65760405162461bcd60e51b81526004018080602001828103825260248152602001806137b76024913960400191505060405180910390fd5b6001600160a01b03821661250b5760405162461bcd60e51b81526004018080602001828103825260228152602001806139fd6022913960400191505060405180910390fd5b6001600160a01b03808416600081815260046020908152604080832094871680845294825291829020859055815185815291517f8c5be1e5ebec7d5bd14f71427d1e84f3dd0314c0f7b2291e5b200ac8c7c3b9259281900390910190a3505050565b6001600160a01b0383166125b25760405162461bcd60e51b81526004018080602001828103825260258152602001806137926025913960400191505060405180910390fd5b6001600160a01b0382166125f75760405162461bcd60e51b81526004018080602001828103825260238152602001806139206023913960400191505060405180910390fd5b6001600160a01b0383166000908152601f6020908152604080832080546001909101546003909352922054839283926126399261263391612925565b90612be1565b10156126765760405162461bcd60e51b81526004018080602001828103825260268152602001806138ad6026913960400191505060405180910390fd5b6126b3826040518060600160405280602681526020016138ad602691396001600160a01b038716600090815260036020526040902054919061288e565b6001600160a01b03808616600081815260036020526040902092909255601254811691821491908516148015612789576126fd6064611aeb6126f3611891565b8790606403612aa6565b925060006127276064611aeb600d54600c54600b54600a5401010188612aa690919063ffffffff16565b306000908152600360205260409020549091506127449082612925565b30600081815260036020908152604091829020939093558051848152905191926001600160a01b038b16926000805160206139008339815191529281900390910190a3505b6001600160a01b0385166000908152600360205260409020546127ac9084612925565b6001600160a01b0386166000908152600360205260408120919091556127d130611213565b601454909150600160a01b900460ff161580156127f85750601454600160a81b900460ff16155b8015612802575082155b801561280c575081155b80156128215750600f54600160a01b900460ff165b1561284c57806010541161283757612837612c23565b61283f612f28565b1561284c5761284c612f3f565b856001600160a01b0316876001600160a01b0316600080516020613900833981519152866040518082815260200191505060405180910390a350505050505050565b6000818484111561291d5760405162461bcd60e51b81526004018080602001828103825283818151815260200191508051906020019080838360005b838110156128e25781810151838201526020016128ca565b50505050905090810190601f16801561290f5780820380516001836020036101000a031916815260200191505b509250505060405180910390fd5b505050900390565b60008282018381101561297f576040805162461bcd60e51b815260206004820152601b60248201527f536166654d6174683a206164646974696f6e206f766572666c6f770000000000604482015290519081900360640190fd5b9392505050565b6001600160a01b0382166129e1576040805162461bcd60e51b815260206004820152601f60248201527f42455032303a206d696e7420746f20746865207a65726f206164647265737300604482015290519081900360640190fd5b60085460095410612a2d576040805162461bcd60e51b8152602060048201526011602482015270657863656564206d617820737570706c7960781b604482015290519081900360640190fd5b600954612a3a9082612925565b6009556001600160a01b038216600090815260036020526040902054612a609082612925565b6001600160a01b03831660008181526003602090815260408083209490945583518581529351929391926000805160206139008339815191529281900390910190a35050565b600082612ab557506000610b29565b82820282848281612ac257fe5b041461297f5760405162461bcd60e51b815260040180806020018281038252602181526020018061386c6021913960400191505060405180910390fd5b600061297f83836040518060400160405280601a81526020017f536166654d6174683a206469766973696f6e206279207a65726f0000000000008152506132b4565b6001600160a01b038116612b865760405162461bcd60e51b81526004018080602001828103825260268152602001806137db6026913960400191505060405180910390fd5b600080546040516001600160a01b03808516939216917f8be0079c531659141344cd1fd0a4f28419497f9722a3daafe3b4186f6b6457e091a3600080546001600160a01b0319166001600160a01b0392909216919091179055565b600061297f83836040518060400160405280601e81526020017f536166654d6174683a207375627472616374696f6e206f766572666c6f77000081525061288e565b6014805460ff60a01b1916600160a01b1790553060009081526003602052604081205490612c656002611aeb612c57611891565b600a54611aeb908790612aa6565b90506000612c738383612be1565b601354604080516370a0823160e01b815230600482015290519293506000926001600160a01b03909216916370a0823191602480820192602092909190829003018186803b158015612cc457600080fd5b505afa158015612cd8573d6000803e3d6000fd5b505050506040513d6020811015612cee57600080fd5b50519050612cfb82613319565b601354604080516370a0823160e01b81523060048201529051600092612d819285926001600160a01b03909216916370a0823191602480820192602092909190829003018186803b158015612d4f57600080fd5b505afa158015612d63573d6000803e3d6000fd5b505050506040513d6020811015612d7957600080fd5b505190612be1565b9050612dc1612db8612daa612da26002600a54612aff90919063ffffffff16565b612633611891565b600b54611aeb908590612aa6565b60165490612925565b601655600a54612df590612dec90612dde90612da2906002612aff565b600c54611aeb908590612aa6565b60225490612925565b602255601354600e54600a546001600160a01b039283169263a9059cbb921690612e3690612e2890612da2906002612aff565b600d54611aeb908790612aa6565b6040518363ffffffff1660e01b815260040180836001600160a01b0316815260200182815260200192505050602060405180830381600087803b158015612e7c57600080fd5b505af1158015612e90573d6000803e3d6000fd5b505050506040513d6020811015612ea657600080fd5b5050602254601654601354604080516370a0823160e01b81523060048201529051600094612f079490936126339391926001600160a01b03909116916370a08231916024808301926020929190829003018186803b158015612d4f57600080fd5b9050612f1385826134d3565b50506014805460ff60a01b1916905550505050565b6000601854600a0a620186a0026022541015905090565b6014805460ff60a81b1916600160a81b179055612f5a612f28565b612f955760405162461bcd60e51b815260040180806020018281038252602281526020018061384a6022913960400191505060405180910390fd5b602254600090612fa6906002612aff565b604080516002808252606080830184529394509091602083019080368337505060135482519293506001600160a01b031691839150600090612fe457fe5b60200260200101906001600160a01b031690816001600160a01b031681525050308160018151811061301257fe5b6001600160a01b039283166020918202929092018101919091526013546011546040805163095ea7b360e01b815291851660048301526024820187905251919093169263095ea7b39260448083019391928290030181600087803b15801561307957600080fd5b505af115801561308d573d6000803e3d6000fd5b505050506040513d60208110156130a357600080fd5b50503060009081526003602090815260408083205460115460145492516338ed173960e01b815260048101888152602482018790526001600160a01b0394851660648301819052426084840181905260a0604485019081528a5160a48601528a51969995909716976338ed1739978c978c9694959394919260c49092019187810191028083838b5b8381101561314357818101518382015260200161312b565b505050509050019650505050505050600060405180830381600087803b15801561316c57600080fd5b505af1158015613180573d6000803e3d6000fd5b505050506040513d6000823e601f3d908101601f1916820160405260208110156131a957600080fd5b81019080805160405193929190846401000000008211156131c957600080fd5b9083019060208201858111156131de57600080fd5b82518660208202830111640100000000821117156131fb57600080fd5b82525081516020918201928201910280838360005b83811015613228578181015183820152602001613210565b50505050919091016040908152601480546001600160a01b039081166000908152600360205283812054308083528583208054909201825593549092168152928320839055602280548c900390559082525490955061328d9450925085915050612be1565b602380548201905590506132a1308261364b565b50506014805460ff60a81b191690555050565b600081836133035760405162461bcd60e51b81526020600482018181528351602484015283519092839260449091019190850190808383600083156128e25781810151838201526020016128ca565b50600083858161330f57fe5b0495945050505050565b6040805160028082526060808301845292602083019080368337019050509050308160008151811061334757fe5b6001600160a01b03928316602091820292909201015260135482519116908290600190811061337257fe5b6001600160a01b0392831660209182029290920101526011546133989130911684612481565b601154601454604051635c11d79560e01b8152600481018581526000602483018190526001600160a01b0393841660648401819052426084850181905260a060448601908152885160a487015288519690971696635c11d795968a9694958a9590929160c490910190602080880191028083838b5b8381101561342557818101518382015260200161340d565b505050509050019650505050505050600060405180830381600087803b15801561344e57600080fd5b505af1158015613462573d6000803e3d6000fd5b505060145460135460408051630a67d2c760e01b81526001600160a01b0392831660048201529051919092169350630a67d2c79250602480830192600092919082900301818387803b1580156134b757600080fd5b505af11580156134cb573d6000803e3d6000fd5b505050505050565b6011546134eb9030906001600160a01b031684612481565b6013546011546040805163095ea7b360e01b81526001600160a01b039283166004820152602481018590529051919092169163095ea7b39160448083019260209291908290030181600087803b15801561354457600080fd5b505af1158015613558573d6000803e3d6000fd5b505050506040513d602081101561356e57600080fd5b50506011546013546001600160a01b039182169163e8e33700913091168585600080613598611cac565b426040518963ffffffff1660e01b815260040180896001600160a01b03168152602001886001600160a01b03168152602001878152602001868152602001858152602001848152602001836001600160a01b0316815260200182815260200198505050505050505050606060405180830381600087803b15801561361b57600080fd5b505af115801561362f573d6000803e3d6000fd5b505050506040513d606081101561364557600080fd5b50505050565b6001600160a01b0382166136905760405162461bcd60e51b815260040180806020018281038252602181526020018061398a6021913960400191505060405180910390fd5b6136cd816040518060600160405280602281526020016139db602291396001600160a01b038516600090815260036020526040902054919061288e565b60036000846001600160a01b03166001600160a01b031681526020019081526020016000208190555061371d816040518060600160405280602281526020016139db60229139600954919061288e565b6009556040805182815290516000916001600160a01b038516916000805160206139008339815191529181900360200190a35050565b604051806101e00160405280600f906020820280368337509192915050565b604051806104800160405280602490602082028036833750919291505056fe42455032303a207472616e736665722066726f6d20746865207a65726f206164647265737342455032303a20617070726f76652066726f6d20746865207a65726f20616464726573734f776e61626c653a206e6577206f776e657220697320746865207a65726f206164647265737342455032303a207472616e7366657220616d6f756e74206578636565647320616c6c6f77616e6365436c61696d203a205468657265206973206e6f2072657761726420616d6f756e746e6f7420656e6f7567687420696e737572616e636520706f6f6c2062616c616e6365536166654d6174683a206d756c7469706c69636174696f6e206f766572666c6f774f776e61626c653a2063616c6c6572206973206e6f7420746865206f776e657242455032303a207472616e7366657220616d6f756e7420657863656564732062616c616e63655f73656e646572206d7573742062652067726561746572206f7220657175616c73207468616e206c696d697431ddf252ad1be2c89b69c2b068fc378daa952ba7f163c4a11628f55a4df523b3ef42455032303a207472616e7366657220746f20746865207a65726f20616464726573734d696e7461626c653a2063616c6c6572206973206e6f7420746865206d696e74657242455032303a2064656372656173656420616c6c6f77616e63652062656c6f77207a65726f42455032303a206275726e2066726f6d20746865207a65726f206164647265737370726573616c6520746f74616c206d757374206265206c657373206f7220657175616c73207468616e206c696d69743242455032303a206275726e20616d6f756e7420657863656564732062616c616e636542455032303a20617070726f766520746f20746865207a65726f2061646472657373a2646970667358221220753e4b169568ac6cfb8a0579ce50ca61a19892b8208dbd27cdda21bcc750291864736f6c634300060c0033",
          "opcodes": "PUSH1 0x5 DUP1 SLOAD PUSH1 0xFF NOT AND PUSH1 0x12 OR SWAP1 SSTORE PUSH1 0xC0 PUSH1 0x40 MSTORE PUSH1 0x2 PUSH1 0x80 DUP2 SWAP1 MSTORE PUSH2 0x444D PUSH1 0xF0 SHL PUSH1 0xA0 SWAP1 DUP2 MSTORE PUSH3 0x32 SWAP2 PUSH1 0x6 SWAP2 SWAP1 PUSH3 0x255 JUMP JUMPDEST POP PUSH1 0x40 DUP1 MLOAD DUP1 DUP3 ADD SWAP1 SWAP2 MSTORE PUSH1 0x7 DUP1 DUP3 MSTORE PUSH7 0x2226AA37B5B2B7 PUSH1 0xC9 SHL PUSH1 0x20 SWAP1 SWAP3 ADD SWAP2 DUP3 MSTORE PUSH3 0x61 SWAP2 DUP2 PUSH3 0x255 JUMP JUMPDEST POP PUSH12 0x33B2E3C9FD0803CE8000000 PUSH1 0x8 SSTORE PUSH11 0xCECB8F27F4200F3A000000 PUSH1 0x9 SSTORE PUSH1 0x5 PUSH1 0xA DUP2 DUP2 SSTORE PUSH1 0xB DUP3 SWAP1 SSTORE PUSH1 0x2 PUSH1 0xC SSTORE PUSH1 0x3 PUSH1 0xD SSTORE PUSH1 0xF DUP1 SLOAD PUSH1 0x1 PUSH1 0xA0 SHL PUSH1 0xFF PUSH1 0xA0 SHL NOT SWAP1 SWAP2 AND OR SWAP1 SSTORE PUSH9 0x3635C9ADC5DEA00000 PUSH1 0x10 SSTORE PUSH1 0x12 PUSH1 0x18 SSTORE PUSH7 0x11C37937E08000 PUSH1 0x19 DUP2 SWAP1 SSTORE SWAP2 SLOAD PUSH1 0xFF AND SWAP1 EXP PUSH9 0xAD78EBC5AC6200000 DUP2 MUL DUP3 SWAP1 DIV PUSH1 0x1A SSTORE PUSH9 0xA2A15D09519BE00000 MUL DIV PUSH1 0x1B SSTORE PUSH1 0x5 SLOAD PUSH1 0xFF AND PUSH1 0xA EXP PUSH4 0xEE6B280 MUL PUSH1 0x1D SSTORE PUSH4 0x619A6D00 PUSH1 0x1E SWAP1 DUP2 SSTORE PUSH1 0x40 DUP1 MLOAD PUSH2 0x120 DUP2 ADD DUP3 MSTORE PUSH1 0x8 PUSH1 0xE0 DUP3 ADD SWAP1 DUP2 MSTORE PUSH3 0x34BC00 PUSH2 0x100 DUP4 ADD MSTORE DUP2 MSTORE DUP2 MLOAD DUP1 DUP4 ADD DUP4 MSTORE PUSH1 0x12 DUP2 MSTORE PUSH3 0x76A700 PUSH1 0x20 DUP1 DUP4 ADD SWAP2 SWAP1 SWAP2 MSTORE DUP1 DUP4 ADD SWAP2 SWAP1 SWAP2 MSTORE DUP3 MLOAD DUP1 DUP5 ADD DUP5 MSTORE SWAP4 DUP5 MSTORE PUSH3 0xC5C100 DUP5 DUP3 ADD MSTORE DUP2 DUP4 ADD SWAP4 SWAP1 SWAP4 MSTORE DUP2 MLOAD DUP1 DUP4 ADD DUP4 MSTORE PUSH1 0x2D DUP2 MSTORE PUSH4 0x114DB00 DUP2 DUP6 ADD MSTORE PUSH1 0x60 DUP3 ADD MSTORE DUP2 MLOAD DUP1 DUP4 ADD DUP4 MSTORE PUSH1 0x3E DUP2 MSTORE PUSH4 0x163F500 DUP2 DUP6 ADD MSTORE PUSH1 0x80 DUP3 ADD MSTORE DUP2 MLOAD DUP1 DUP4 ADD DUP4 MSTORE PUSH1 0x50 DUP2 MSTORE PUSH4 0x1B30F00 DUP2 DUP6 ADD MSTORE PUSH1 0xA0 DUP3 ADD MSTORE DUP2 MLOAD DUP1 DUP4 ADD SWAP1 SWAP3 MSTORE PUSH1 0x64 DUP3 MSTORE PUSH4 0x1DA9C00 DUP3 DUP5 ADD MSTORE PUSH1 0xC0 DUP2 ADD SWAP2 SWAP1 SWAP2 MSTORE PUSH3 0x1DD SWAP2 SWAP1 PUSH1 0x7 PUSH3 0x2DA JUMP JUMPDEST POP PUSH1 0xC PUSH1 0x21 SSTORE CALLVALUE DUP1 ISZERO PUSH3 0x1F0 JUMPI PUSH1 0x0 DUP1 REVERT JUMPDEST POP PUSH1 0x0 PUSH3 0x1FD PUSH3 0x251 JUMP JUMPDEST PUSH1 0x0 DUP1 SLOAD PUSH1 0x1 PUSH1 0x1 PUSH1 0xA0 SHL SUB NOT AND PUSH1 0x1 PUSH1 0x1 PUSH1 0xA0 SHL SUB DUP4 AND SWAP1 DUP2 OR DUP3 SSTORE PUSH1 0x40 MLOAD SWAP3 SWAP4 POP SWAP2 PUSH32 0x8BE0079C531659141344CD1FD0A4F28419497F9722A3DAAFE3B4186F6B6457E0 SWAP1 DUP3 SWAP1 LOG3 POP TIMESTAMP PUSH1 0x15 SSTORE PUSH3 0x3CC JUMP JUMPDEST CALLER SWAP1 JUMP JUMPDEST DUP3 DUP1 SLOAD PUSH1 0x1 DUP2 PUSH1 0x1 AND ISZERO PUSH2 0x100 MUL SUB AND PUSH1 0x2 SWAP1 DIV SWAP1 PUSH1 0x0 MSTORE PUSH1 0x20 PUSH1 0x0 KECCAK256 SWAP1 PUSH1 0x1F ADD PUSH1 0x20 SWAP1 DIV DUP2 ADD SWAP3 DUP3 PUSH1 0x1F LT PUSH3 0x298 JUMPI DUP1 MLOAD PUSH1 0xFF NOT AND DUP4 DUP1 ADD OR DUP6 SSTORE PUSH3 0x2C8 JUMP JUMPDEST DUP3 DUP1 ADD PUSH1 0x1 ADD DUP6 SSTORE DUP3 ISZERO PUSH3 0x2C8 JUMPI SWAP2 DUP3 ADD JUMPDEST DUP3 DUP2 GT ISZERO PUSH3 0x2C8 JUMPI DUP3 MLOAD DUP3 SSTORE SWAP2 PUSH1 0x20 ADD SWAP2 SWAP1 PUSH1 0x1 ADD SWAP1 PUSH3 0x2AB JUMP JUMPDEST POP PUSH3 0x2D6 SWAP3 SWAP2 POP PUSH3 0x334 JUMP JUMPDEST POP SWAP1 JUMP JUMPDEST DUP3 DUP1 SLOAD DUP3 DUP3 SSTORE SWAP1 PUSH1 0x0 MSTORE PUSH1 0x20 PUSH1 0x0 KECCAK256 SWAP1 DUP2 ADD SWAP3 DUP3 ISZERO PUSH3 0x326 JUMPI SWAP2 PUSH1 0x20 MUL DUP3 ADD JUMPDEST DUP3 DUP2 GT ISZERO PUSH3 0x326 JUMPI DUP3 MLOAD PUSH3 0x315 SWAP1 DUP4 SWAP1 PUSH1 0x2 PUSH3 0x34B JUMP JUMPDEST POP SWAP2 PUSH1 0x20 ADD SWAP2 SWAP1 PUSH1 0x1 ADD SWAP1 PUSH3 0x2FB JUMP JUMPDEST POP PUSH3 0x2D6 SWAP3 SWAP2 POP PUSH3 0x388 JUMP JUMPDEST JUMPDEST DUP1 DUP3 GT ISZERO PUSH3 0x2D6 JUMPI PUSH1 0x0 DUP2 SSTORE PUSH1 0x1 ADD PUSH3 0x335 JUMP JUMPDEST DUP3 DUP1 SLOAD DUP3 DUP3 SSTORE SWAP1 PUSH1 0x0 MSTORE PUSH1 0x20 PUSH1 0x0 KECCAK256 SWAP1 DUP2 ADD SWAP3 DUP3 ISZERO PUSH3 0x2C8 JUMPI SWAP2 PUSH1 0x20 MUL DUP3 ADD DUP3 DUP2 GT ISZERO PUSH3 0x2C8 JUMPI DUP3 MLOAD DUP3 SSTORE SWAP2 PUSH1 0x20 ADD SWAP2 SWAP1 PUSH1 0x1 ADD SWAP1 PUSH3 0x2AB JUMP JUMPDEST DUP1 DUP3 GT ISZERO PUSH3 0x2D6 JUMPI PUSH1 0x0 PUSH3 0x39F DUP3 DUP3 PUSH3 0x3A9 JUMP JUMPDEST POP PUSH1 0x1 ADD PUSH3 0x388 JUMP JUMPDEST POP DUP1 SLOAD PUSH1 0x0 DUP3 SSTORE SWAP1 PUSH1 0x0 MSTORE PUSH1 0x20 PUSH1 0x0 KECCAK256 SWAP1 DUP2 ADD SWAP1 PUSH3 0x3C9 SWAP2 SWAP1 PUSH3 0x334 JUMP JUMPDEST POP JUMP JUMPDEST PUSH2 0x3A54 DUP1 PUSH3 0x3DC PUSH1 0x0 CODECOPY PUSH1 0x0 RETURN INVALID PUSH1 0x80 PUSH1 0x40 MSTORE CALLVALUE DUP1 ISZERO PUSH2 0x10 JUMPI PUSH1 0x0 DUP1 REVERT JUMPDEST POP PUSH1 0x4 CALLDATASIZE LT PUSH2 0x38D JUMPI PUSH1 0x0 CALLDATALOAD PUSH1 0xE0 SHR DUP1 PUSH4 0x8DA5CB5B GT PUSH2 0x1DE JUMPI DUP1 PUSH4 0xC00007B0 GT PUSH2 0x10F JUMPI DUP1 PUSH4 0xDC1D85F6 GT PUSH2 0xAD JUMPI DUP1 PUSH4 0xF2FDE38B GT PUSH2 0x7C JUMPI DUP1 PUSH4 0xF2FDE38B EQ PUSH2 0xA19 JUMPI DUP1 PUSH4 0xFCA3B5AA EQ PUSH2 0xA3F JUMPI DUP1 PUSH4 0xFD64E078 EQ PUSH2 0xA65 JUMPI DUP1 PUSH4 0xFF920C74 EQ PUSH2 0xA6D JUMPI PUSH2 0x38D JUMP JUMPDEST DUP1 PUSH4 0xDC1D85F6 EQ PUSH2 0x997 JUMPI DUP1 PUSH4 0xDD62ED3E EQ PUSH2 0x99F JUMPI DUP1 PUSH4 0xEFCD708F EQ PUSH2 0x9CD JUMPI DUP1 PUSH4 0xF2C4DA93 EQ PUSH2 0xA11 JUMPI PUSH2 0x38D JUMP JUMPDEST DUP1 PUSH4 0xC9559786 GT PUSH2 0xE9 JUMPI DUP1 PUSH4 0xC9559786 EQ PUSH2 0x962 JUMPI DUP1 PUSH4 0xCA4863FD EQ PUSH2 0x96A JUMPI DUP1 PUSH4 0xDA7A3687 EQ PUSH2 0x987 JUMPI DUP1 PUSH4 0xDB6754ED EQ PUSH2 0x98F JUMPI PUSH2 0x38D JUMP JUMPDEST DUP1 PUSH4 0xC00007B0 EQ PUSH2 0x915 JUMPI DUP1 PUSH4 0xC49B9A80 EQ PUSH2 0x93B JUMPI DUP1 PUSH4 0xC8F0C577 EQ PUSH2 0x95A JUMPI PUSH2 0x38D JUMP JUMPDEST DUP1 PUSH4 0xA0712D68 GT PUSH2 0x17C JUMPI DUP1 PUSH4 0xA9059CBB GT PUSH2 0x156 JUMPI DUP1 PUSH4 0xA9059CBB EQ PUSH2 0x8B3 JUMPI DUP1 PUSH4 0xADA3DA15 EQ PUSH2 0x8DF JUMPI DUP1 PUSH4 0xB88A802F EQ PUSH2 0x905 JUMPI DUP1 PUSH4 0xBAEDC8D6 EQ PUSH2 0x90D JUMPI PUSH2 0x38D JUMP JUMPDEST DUP1 PUSH4 0xA0712D68 EQ PUSH2 0x862 JUMPI DUP1 PUSH4 0xA457C2D7 EQ PUSH2 0x87F JUMPI DUP1 PUSH4 0xA69DF4B5 EQ PUSH2 0x8AB JUMPI PUSH2 0x38D JUMP JUMPDEST DUP1 PUSH4 0x97C4FAC7 GT PUSH2 0x1B8 JUMPI DUP1 PUSH4 0x97C4FAC7 EQ PUSH2 0x842 JUMPI DUP1 PUSH4 0x98118CB4 EQ PUSH2 0x84A JUMPI DUP1 PUSH4 0x9A258A79 EQ PUSH2 0x852 JUMPI DUP1 PUSH4 0xA053CE1F EQ PUSH2 0x85A JUMPI PUSH2 0x38D JUMP JUMPDEST DUP1 PUSH4 0x8DA5CB5B EQ PUSH2 0x82A JUMPI DUP1 PUSH4 0x8E33F3ED EQ PUSH2 0x832 JUMPI DUP1 PUSH4 0x95D89B41 EQ PUSH2 0x83A JUMPI PUSH2 0x38D JUMP JUMPDEST DUP1 PUSH4 0x547D0096 GT PUSH2 0x2C3 JUMPI DUP1 PUSH4 0x7A5C08AE GT PUSH2 0x261 JUMPI DUP1 PUSH4 0x86E476DD GT PUSH2 0x230 JUMPI DUP1 PUSH4 0x86E476DD EQ PUSH2 0x80A JUMPI DUP1 PUSH4 0x893D20E8 EQ PUSH2 0x812 JUMPI DUP1 PUSH4 0x8961BE6B EQ PUSH2 0x81A JUMPI DUP1 PUSH4 0x8B424267 EQ PUSH2 0x822 JUMPI PUSH2 0x38D JUMP JUMPDEST DUP1 PUSH4 0x7A5C08AE EQ PUSH2 0x7B1 JUMPI DUP1 PUSH4 0x7AE316D0 EQ PUSH2 0x7B9 JUMPI DUP1 PUSH4 0x7C2003E3 EQ PUSH2 0x7C1 JUMPI DUP1 PUSH4 0x8623EC7B EQ PUSH2 0x7ED JUMPI PUSH2 0x38D JUMP JUMPDEST DUP1 PUSH4 0x70A08231 GT PUSH2 0x29D JUMPI DUP1 PUSH4 0x70A08231 EQ PUSH2 0x6DE JUMPI DUP1 PUSH4 0x715018A6 EQ PUSH2 0x704 JUMPI DUP1 PUSH4 0x71E8EC68 EQ PUSH2 0x70C JUMPI DUP1 PUSH4 0x733BDEF0 EQ PUSH2 0x714 JUMPI PUSH2 0x38D JUMP JUMPDEST DUP1 PUSH4 0x547D0096 EQ PUSH2 0x5C3 JUMPI DUP1 PUSH4 0x6B74B211 EQ PUSH2 0x666 JUMPI DUP1 PUSH4 0x6FF1C9BC EQ PUSH2 0x6B8 JUMPI PUSH2 0x38D JUMP JUMPDEST DUP1 PUSH4 0x3033BED8 GT PUSH2 0x330 JUMPI DUP1 PUSH4 0x41275358 GT PUSH2 0x30A JUMPI DUP1 PUSH4 0x41275358 EQ PUSH2 0x547 JUMPI DUP1 PUSH4 0x49371B19 EQ PUSH2 0x56B JUMPI DUP1 PUSH4 0x4A74BB02 EQ PUSH2 0x5B3 JUMPI DUP1 PUSH4 0x4D9E9E09 EQ PUSH2 0x5BB JUMPI PUSH2 0x38D JUMP JUMPDEST DUP1 PUSH4 0x3033BED8 EQ PUSH2 0x4D7 JUMPI DUP1 PUSH4 0x313CE567 EQ PUSH2 0x4FD JUMPI DUP1 PUSH4 0x39509351 EQ PUSH2 0x51B JUMPI PUSH2 0x38D JUMP JUMPDEST DUP1 PUSH4 0x18160DDD GT PUSH2 0x36C JUMPI DUP1 PUSH4 0x18160DDD EQ PUSH2 0x469 JUMPI DUP1 PUSH4 0x21A5CEEE EQ PUSH2 0x471 JUMPI DUP1 PUSH4 0x23B872DD EQ PUSH2 0x499 JUMPI DUP1 PUSH4 0x249B7C19 EQ PUSH2 0x4CF JUMPI PUSH2 0x38D JUMP JUMPDEST DUP1 PUSH3 0xE7FA8 EQ PUSH2 0x392 JUMPI DUP1 PUSH4 0x6FDDE03 EQ PUSH2 0x3AC JUMPI DUP1 PUSH4 0x95EA7B3 EQ PUSH2 0x429 JUMPI JUMPDEST PUSH1 0x0 DUP1 REVERT JUMPDEST PUSH2 0x39A PUSH2 0xA75 JUMP JUMPDEST PUSH1 0x40 DUP1 MLOAD SWAP2 DUP3 MSTORE MLOAD SWAP1 DUP2 SWAP1 SUB PUSH1 0x20 ADD SWAP1 RETURN JUMPDEST PUSH2 0x3B4 PUSH2 0xA7B JUMP JUMPDEST PUSH1 0x40 DUP1 MLOAD PUSH1 0x20 DUP1 DUP3 MSTORE DUP4 MLOAD DUP2 DUP4 ADD MSTORE DUP4 MLOAD SWAP2 SWAP3 DUP4 SWAP3 SWAP1 DUP4 ADD SWAP2 DUP6 ADD SWAP1 DUP1 DUP4 DUP4 PUSH1 0x0 JUMPDEST DUP4 DUP2 LT ISZERO PUSH2 0x3EE JUMPI DUP2 DUP2 ADD MLOAD DUP4 DUP3 ADD MSTORE PUSH1 0x20 ADD PUSH2 0x3D6 JUMP JUMPDEST POP POP POP POP SWAP1 POP SWAP1 DUP2 ADD SWAP1 PUSH1 0x1F AND DUP1 ISZERO PUSH2 0x41B JUMPI DUP1 DUP3 SUB DUP1 MLOAD PUSH1 0x1 DUP4 PUSH1 0x20 SUB PUSH2 0x100 EXP SUB NOT AND DUP2 MSTORE PUSH1 0x20 ADD SWAP2 POP JUMPDEST POP SWAP3 POP POP POP PUSH1 0x40 MLOAD DUP1 SWAP2 SUB SWAP1 RETURN JUMPDEST PUSH2 0x455 PUSH1 0x4 DUP1 CALLDATASIZE SUB PUSH1 0x40 DUP2 LT ISZERO PUSH2 0x43F JUMPI PUSH1 0x0 DUP1 REVERT JUMPDEST POP PUSH1 0x1 PUSH1 0x1 PUSH1 0xA0 SHL SUB DUP2 CALLDATALOAD AND SWAP1 PUSH1 0x20 ADD CALLDATALOAD PUSH2 0xB11 JUMP JUMPDEST PUSH1 0x40 DUP1 MLOAD SWAP2 ISZERO ISZERO DUP3 MSTORE MLOAD SWAP1 DUP2 SWAP1 SUB PUSH1 0x20 ADD SWAP1 RETURN JUMPDEST PUSH2 0x39A PUSH2 0xB2F JUMP JUMPDEST PUSH2 0x497 PUSH1 0x4 DUP1 CALLDATASIZE SUB PUSH1 0x20 DUP2 LT ISZERO PUSH2 0x487 JUMPI PUSH1 0x0 DUP1 REVERT JUMPDEST POP CALLDATALOAD PUSH1 0x1 PUSH1 0x1 PUSH1 0xA0 SHL SUB AND PUSH2 0xB35 JUMP JUMPDEST STOP JUMPDEST PUSH2 0x455 PUSH1 0x4 DUP1 CALLDATASIZE SUB PUSH1 0x60 DUP2 LT ISZERO PUSH2 0x4AF JUMPI PUSH1 0x0 DUP1 REVERT JUMPDEST POP PUSH1 0x1 PUSH1 0x1 PUSH1 0xA0 SHL SUB DUP2 CALLDATALOAD DUP2 AND SWAP2 PUSH1 0x20 DUP2 ADD CALLDATALOAD SWAP1 SWAP2 AND SWAP1 PUSH1 0x40 ADD CALLDATALOAD PUSH2 0xBE3 JUMP JUMPDEST PUSH2 0x39A PUSH2 0xC6A JUMP JUMPDEST PUSH2 0x39A PUSH1 0x4 DUP1 CALLDATASIZE SUB PUSH1 0x20 DUP2 LT ISZERO PUSH2 0x4ED JUMPI PUSH1 0x0 DUP1 REVERT JUMPDEST POP CALLDATALOAD PUSH1 0x1 PUSH1 0x1 PUSH1 0xA0 SHL SUB AND PUSH2 0xC70 JUMP JUMPDEST PUSH2 0x505 PUSH2 0xD6C JUMP JUMPDEST PUSH1 0x40 DUP1 MLOAD PUSH1 0xFF SWAP1 SWAP3 AND DUP3 MSTORE MLOAD SWAP1 DUP2 SWAP1 SUB PUSH1 0x20 ADD SWAP1 RETURN JUMPDEST PUSH2 0x455 PUSH1 0x4 DUP1 CALLDATASIZE SUB PUSH1 0x40 DUP2 LT ISZERO PUSH2 0x531 JUMPI PUSH1 0x0 DUP1 REVERT JUMPDEST POP PUSH1 0x1 PUSH1 0x1 PUSH1 0xA0 SHL SUB DUP2 CALLDATALOAD AND SWAP1 PUSH1 0x20 ADD CALLDATALOAD PUSH2 0xD75 JUMP JUMPDEST PUSH2 0x54F PUSH2 0xDC3 JUMP JUMPDEST PUSH1 0x40 DUP1 MLOAD PUSH1 0x1 PUSH1 0x1 PUSH1 0xA0 SHL SUB SWAP1 SWAP3 AND DUP3 MSTORE MLOAD SWAP1 DUP2 SWAP1 SUB PUSH1 0x20 ADD SWAP1 RETURN JUMPDEST PUSH2 0x497 PUSH1 0x4 DUP1 CALLDATASIZE SUB PUSH1 0xA0 DUP2 LT ISZERO PUSH2 0x581 JUMPI PUSH1 0x0 DUP1 REVERT JUMPDEST POP PUSH1 0x1 PUSH1 0x1 PUSH1 0xA0 SHL SUB DUP2 CALLDATALOAD DUP2 AND SWAP2 PUSH1 0x20 DUP2 ADD CALLDATALOAD DUP3 AND SWAP2 PUSH1 0x40 DUP3 ADD CALLDATALOAD DUP2 AND SWAP2 PUSH1 0x60 DUP2 ADD CALLDATALOAD DUP3 AND SWAP2 PUSH1 0x80 SWAP1 SWAP2 ADD CALLDATALOAD AND PUSH2 0xDD2 JUMP JUMPDEST PUSH2 0x455 PUSH2 0xF8E JUMP JUMPDEST PUSH2 0x39A PUSH2 0xF9E JUMP JUMPDEST PUSH2 0x497 PUSH1 0x4 DUP1 CALLDATASIZE SUB PUSH1 0x20 DUP2 LT ISZERO PUSH2 0x5D9 JUMPI PUSH1 0x0 DUP1 REVERT JUMPDEST DUP2 ADD SWAP1 PUSH1 0x20 DUP2 ADD DUP2 CALLDATALOAD PUSH5 0x100000000 DUP2 GT ISZERO PUSH2 0x5F4 JUMPI PUSH1 0x0 DUP1 REVERT JUMPDEST DUP3 ADD DUP4 PUSH1 0x20 DUP3 ADD GT ISZERO PUSH2 0x606 JUMPI PUSH1 0x0 DUP1 REVERT JUMPDEST DUP1 CALLDATALOAD SWAP1 PUSH1 0x20 ADD SWAP2 DUP5 PUSH1 0x20 DUP4 MUL DUP5 ADD GT PUSH5 0x100000000 DUP4 GT OR ISZERO PUSH2 0x628 JUMPI PUSH1 0x0 DUP1 REVERT JUMPDEST SWAP2 SWAP1 DUP1 DUP1 PUSH1 0x20 MUL PUSH1 0x20 ADD PUSH1 0x40 MLOAD SWAP1 DUP2 ADD PUSH1 0x40 MSTORE DUP1 SWAP4 SWAP3 SWAP2 SWAP1 DUP2 DUP2 MSTORE PUSH1 0x20 ADD DUP4 DUP4 PUSH1 0x20 MUL DUP1 DUP3 DUP5 CALLDATACOPY PUSH1 0x0 SWAP3 ADD SWAP2 SWAP1 SWAP2 MSTORE POP SWAP3 SWAP6 POP PUSH2 0xFA4 SWAP5 POP POP POP POP POP JUMP JUMPDEST PUSH2 0x497 PUSH1 0x4 DUP1 CALLDATASIZE SUB PUSH1 0x80 DUP2 LT ISZERO PUSH2 0x67C JUMPI PUSH1 0x0 DUP1 REVERT JUMPDEST DUP2 ADD SWAP1 DUP1 DUP1 PUSH1 0x80 ADD SWAP1 PUSH1 0x4 DUP1 PUSH1 0x20 MUL PUSH1 0x40 MLOAD SWAP1 DUP2 ADD PUSH1 0x40 MSTORE DUP1 SWAP3 SWAP2 SWAP1 DUP3 PUSH1 0x4 PUSH1 0x20 MUL DUP1 DUP3 DUP5 CALLDATACOPY PUSH1 0x0 SWAP3 ADD SWAP2 SWAP1 SWAP2 MSTORE POP SWAP2 SWAP5 POP PUSH2 0x1030 SWAP4 POP POP POP POP JUMP JUMPDEST PUSH2 0x497 PUSH1 0x4 DUP1 CALLDATASIZE SUB PUSH1 0x20 DUP2 LT ISZERO PUSH2 0x6CE JUMPI PUSH1 0x0 DUP1 REVERT JUMPDEST POP CALLDATALOAD PUSH1 0x1 PUSH1 0x1 PUSH1 0xA0 SHL SUB AND PUSH2 0x10A6 JUMP JUMPDEST PUSH2 0x39A PUSH1 0x4 DUP1 CALLDATASIZE SUB PUSH1 0x20 DUP2 LT ISZERO PUSH2 0x6F4 JUMPI PUSH1 0x0 DUP1 REVERT JUMPDEST POP CALLDATALOAD PUSH1 0x1 PUSH1 0x1 PUSH1 0xA0 SHL SUB AND PUSH2 0x1213 JUMP JUMPDEST PUSH2 0x497 PUSH2 0x122E JUMP JUMPDEST PUSH2 0x39A PUSH2 0x12D0 JUMP JUMPDEST PUSH2 0x73A PUSH1 0x4 DUP1 CALLDATASIZE SUB PUSH1 0x20 DUP2 LT ISZERO PUSH2 0x72A JUMPI PUSH1 0x0 DUP1 REVERT JUMPDEST POP CALLDATALOAD PUSH1 0x1 PUSH1 0x1 PUSH1 0xA0 SHL SUB AND PUSH2 0x12D6 JUMP JUMPDEST PUSH1 0x40 MLOAD DUP5 ISZERO ISZERO DUP2 MSTORE PUSH1 0x20 DUP2 ADD DUP5 PUSH2 0x1E0 DUP1 DUP4 DUP4 PUSH1 0x0 JUMPDEST DUP4 DUP2 LT ISZERO PUSH2 0x768 JUMPI DUP2 DUP2 ADD MLOAD DUP4 DUP3 ADD MSTORE PUSH1 0x20 ADD PUSH2 0x750 JUMP JUMPDEST POP POP POP POP SWAP1 POP ADD DUP4 PUSH1 0x24 PUSH1 0x20 MUL DUP1 DUP4 DUP4 PUSH1 0x0 JUMPDEST DUP4 DUP2 LT ISZERO PUSH2 0x793 JUMPI DUP2 DUP2 ADD MLOAD DUP4 DUP3 ADD MSTORE PUSH1 0x20 ADD PUSH2 0x77B JUMP JUMPDEST POP POP POP POP SWAP1 POP ADD DUP3 ISZERO ISZERO DUP2 MSTORE PUSH1 0x20 ADD SWAP5 POP POP POP POP POP PUSH1 0x40 MLOAD DUP1 SWAP2 SUB SWAP1 RETURN JUMPDEST PUSH2 0x39A PUSH2 0x188B JUMP JUMPDEST PUSH2 0x39A PUSH2 0x1891 JUMP JUMPDEST PUSH2 0x497 PUSH1 0x4 DUP1 CALLDATASIZE SUB PUSH1 0x40 DUP2 LT ISZERO PUSH2 0x7D7 JUMPI PUSH1 0x0 DUP1 REVERT JUMPDEST POP DUP1 CALLDATALOAD SWAP1 PUSH1 0x20 ADD CALLDATALOAD PUSH1 0x1 PUSH1 0x1 PUSH1 0xA0 SHL SUB AND PUSH2 0x18A3 JUMP JUMPDEST PUSH2 0x54F PUSH1 0x4 DUP1 CALLDATASIZE SUB PUSH1 0x20 DUP2 LT ISZERO PUSH2 0x803 JUMPI PUSH1 0x0 DUP1 REVERT JUMPDEST POP CALLDATALOAD PUSH2 0x1C5B JUMP JUMPDEST PUSH2 0x54F PUSH2 0x1C82 JUMP JUMPDEST PUSH2 0x54F PUSH2 0x1C91 JUMP JUMPDEST PUSH2 0x39A PUSH2 0x1CA0 JUMP JUMPDEST PUSH2 0x39A PUSH2 0x1CA6 JUMP JUMPDEST PUSH2 0x54F PUSH2 0x1CAC JUMP JUMPDEST PUSH2 0x39A PUSH2 0x1CBB JUMP JUMPDEST PUSH2 0x3B4 PUSH2 0x1CC1 JUMP JUMPDEST PUSH2 0x39A PUSH2 0x1D22 JUMP JUMPDEST PUSH2 0x39A PUSH2 0x1D28 JUMP JUMPDEST PUSH2 0x54F PUSH2 0x1D2E JUMP JUMPDEST PUSH2 0x39A PUSH2 0x1D3D JUMP JUMPDEST PUSH2 0x455 PUSH1 0x4 DUP1 CALLDATASIZE SUB PUSH1 0x20 DUP2 LT ISZERO PUSH2 0x878 JUMPI PUSH1 0x0 DUP1 REVERT JUMPDEST POP CALLDATALOAD PUSH2 0x1D43 JUMP JUMPDEST PUSH2 0x455 PUSH1 0x4 DUP1 CALLDATASIZE SUB PUSH1 0x40 DUP2 LT ISZERO PUSH2 0x895 JUMPI PUSH1 0x0 DUP1 REVERT JUMPDEST POP PUSH1 0x1 PUSH1 0x1 PUSH1 0xA0 SHL SUB DUP2 CALLDATALOAD AND SWAP1 PUSH1 0x20 ADD CALLDATALOAD PUSH2 0x1DD2 JUMP JUMPDEST PUSH2 0x497 PUSH2 0x1E3A JUMP JUMPDEST PUSH2 0x455 PUSH1 0x4 DUP1 CALLDATASIZE SUB PUSH1 0x40 DUP2 LT ISZERO PUSH2 0x8C9 JUMPI PUSH1 0x0 DUP1 REVERT JUMPDEST POP PUSH1 0x1 PUSH1 0x1 PUSH1 0xA0 SHL SUB DUP2 CALLDATALOAD AND SWAP1 PUSH1 0x20 ADD CALLDATALOAD PUSH2 0x1F4A JUMP JUMPDEST PUSH2 0x455 PUSH1 0x4 DUP1 CALLDATASIZE SUB PUSH1 0x20 DUP2 LT ISZERO PUSH2 0x8F5 JUMPI PUSH1 0x0 DUP1 REVERT JUMPDEST POP CALLDATALOAD PUSH1 0x1 PUSH1 0x1 PUSH1 0xA0 SHL SUB AND PUSH2 0x1F5E JUMP JUMPDEST PUSH2 0x497 PUSH2 0x1F73 JUMP JUMPDEST PUSH2 0x39A PUSH2 0x2104 JUMP JUMPDEST PUSH2 0x39A PUSH1 0x4 DUP1 CALLDATASIZE SUB PUSH1 0x20 DUP2 LT ISZERO PUSH2 0x92B JUMPI PUSH1 0x0 DUP1 REVERT JUMPDEST POP CALLDATALOAD PUSH1 0x1 PUSH1 0x1 PUSH1 0xA0 SHL SUB AND PUSH2 0x210A JUMP JUMPDEST PUSH2 0x497 PUSH1 0x4 DUP1 CALLDATASIZE SUB PUSH1 0x20 DUP2 LT ISZERO PUSH2 0x951 JUMPI PUSH1 0x0 DUP1 REVERT JUMPDEST POP CALLDATALOAD ISZERO ISZERO PUSH2 0x21BE JUMP JUMPDEST PUSH2 0x39A PUSH2 0x2234 JUMP JUMPDEST PUSH2 0x39A PUSH2 0x223A JUMP JUMPDEST PUSH2 0x497 PUSH1 0x4 DUP1 CALLDATASIZE SUB PUSH1 0x20 DUP2 LT ISZERO PUSH2 0x980 JUMPI PUSH1 0x0 DUP1 REVERT JUMPDEST POP CALLDATALOAD PUSH2 0x2240 JUMP JUMPDEST PUSH2 0x39A PUSH2 0x229D JUMP JUMPDEST PUSH2 0x54F PUSH2 0x22A3 JUMP JUMPDEST PUSH2 0x39A PUSH2 0x22B2 JUMP JUMPDEST PUSH2 0x39A PUSH1 0x4 DUP1 CALLDATASIZE SUB PUSH1 0x40 DUP2 LT ISZERO PUSH2 0x9B5 JUMPI PUSH1 0x0 DUP1 REVERT JUMPDEST POP PUSH1 0x1 PUSH1 0x1 PUSH1 0xA0 SHL SUB DUP2 CALLDATALOAD DUP2 AND SWAP2 PUSH1 0x20 ADD CALLDATALOAD AND PUSH2 0x22B8 JUMP JUMPDEST PUSH2 0x9F3 PUSH1 0x4 DUP1 CALLDATASIZE SUB PUSH1 0x20 DUP2 LT ISZERO PUSH2 0x9E3 JUMPI PUSH1 0x0 DUP1 REVERT JUMPDEST POP CALLDATALOAD PUSH1 0x1 PUSH1 0x1 PUSH1 0xA0 SHL SUB AND PUSH2 0x22E3 JUMP JUMPDEST PUSH1 0x40 DUP1 MLOAD SWAP4 DUP5 MSTORE PUSH1 0x20 DUP5 ADD SWAP3 SWAP1 SWAP3 MSTORE DUP3 DUP3 ADD MSTORE MLOAD SWAP1 DUP2 SWAP1 SUB PUSH1 0x60 ADD SWAP1 RETURN JUMPDEST PUSH2 0x54F PUSH2 0x2304 JUMP JUMPDEST PUSH2 0x497 PUSH1 0x4 DUP1 CALLDATASIZE SUB PUSH1 0x20 DUP2 LT ISZERO PUSH2 0xA2F JUMPI PUSH1 0x0 DUP1 REVERT JUMPDEST POP CALLDATALOAD PUSH1 0x1 PUSH1 0x1 PUSH1 0xA0 SHL SUB AND PUSH2 0x2313 JUMP JUMPDEST PUSH2 0x497 PUSH1 0x4 DUP1 CALLDATASIZE SUB PUSH1 0x20 DUP2 LT ISZERO PUSH2 0xA55 JUMPI PUSH1 0x0 DUP1 REVERT JUMPDEST POP CALLDATALOAD PUSH1 0x1 PUSH1 0x1 PUSH1 0xA0 SHL SUB AND PUSH2 0x2377 JUMP JUMPDEST PUSH2 0x39A PUSH2 0x2468 JUMP JUMPDEST PUSH2 0x54F PUSH2 0x246E JUMP JUMPDEST PUSH1 0x19 SLOAD DUP2 JUMP JUMPDEST PUSH1 0x7 DUP1 SLOAD PUSH1 0x40 DUP1 MLOAD PUSH1 0x20 PUSH1 0x1F PUSH1 0x2 PUSH1 0x0 NOT PUSH2 0x100 PUSH1 0x1 DUP9 AND ISZERO MUL ADD SWAP1 SWAP6 AND SWAP5 SWAP1 SWAP5 DIV SWAP4 DUP5 ADD DUP2 SWAP1 DIV DUP2 MUL DUP3 ADD DUP2 ADD SWAP1 SWAP3 MSTORE DUP3 DUP2 MSTORE PUSH1 0x60 SWAP4 SWAP1 SWAP3 SWAP1 SWAP2 DUP4 ADD DUP3 DUP3 DUP1 ISZERO PUSH2 0xB07 JUMPI DUP1 PUSH1 0x1F LT PUSH2 0xADC JUMPI PUSH2 0x100 DUP1 DUP4 SLOAD DIV MUL DUP4 MSTORE SWAP2 PUSH1 0x20 ADD SWAP2 PUSH2 0xB07 JUMP JUMPDEST DUP3 ADD SWAP2 SWAP1 PUSH1 0x0 MSTORE PUSH1 0x20 PUSH1 0x0 KECCAK256 SWAP1 JUMPDEST DUP2 SLOAD DUP2 MSTORE SWAP1 PUSH1 0x1 ADD SWAP1 PUSH1 0x20 ADD DUP1 DUP4 GT PUSH2 0xAEA JUMPI DUP3 SWAP1 SUB PUSH1 0x1F AND DUP3 ADD SWAP2 JUMPDEST POP POP POP POP POP SWAP1 POP SWAP1 JUMP JUMPDEST PUSH1 0x0 PUSH2 0xB25 PUSH2 0xB1E PUSH2 0x247D JUMP JUMPDEST DUP5 DUP5 PUSH2 0x2481 JUMP JUMPDEST POP PUSH1 0x1 JUMPDEST SWAP3 SWAP2 POP POP JUMP JUMPDEST PUSH1 0x9 SLOAD SWAP1 JUMP JUMPDEST PUSH2 0xB3D PUSH2 0x247D JUMP JUMPDEST PUSH1 0x0 SLOAD PUSH1 0x1 PUSH1 0x1 PUSH1 0xA0 SHL SUB SWAP1 DUP2 AND SWAP2 AND EQ PUSH2 0xB8D JUMPI PUSH1 0x40 DUP1 MLOAD PUSH3 0x461BCD PUSH1 0xE5 SHL DUP2 MSTORE PUSH1 0x20 PUSH1 0x4 DUP3 ADD DUP2 SWAP1 MSTORE PUSH1 0x24 DUP3 ADD MSTORE PUSH1 0x0 DUP1 MLOAD PUSH1 0x20 PUSH2 0x388D DUP4 CODECOPY DUP2 MLOAD SWAP2 MSTORE PUSH1 0x44 DUP3 ADD MSTORE SWAP1 MLOAD SWAP1 DUP2 SWAP1 SUB PUSH1 0x64 ADD SWAP1 REVERT JUMPDEST PUSH1 0x1 PUSH1 0x1 PUSH1 0xA0 SHL SUB DUP2 AND PUSH1 0x0 DUP2 DUP2 MSTORE PUSH1 0x1 PUSH1 0x20 SWAP1 DUP2 MSTORE PUSH1 0x40 DUP1 DUP4 KECCAK256 DUP1 SLOAD PUSH1 0xFF NOT AND SWAP1 SSTORE DUP1 MLOAD SWAP3 DUP4 MSTORE MLOAD PUSH32 0x4579EC50A131EE14D9AB0DFEDDCEBA4BE2FB6907F7326C52237BE3FAB060BA7F SWAP3 DUP2 SWAP1 SUB SWAP1 SWAP2 ADD SWAP1 LOG2 POP JUMP JUMPDEST PUSH1 0x0 PUSH2 0xBF0 DUP5 DUP5 DUP5 PUSH2 0x256D JUMP JUMPDEST PUSH2 0xC60 DUP5 PUSH2 0xBFC PUSH2 0x247D JUMP JUMPDEST PUSH2 0xC5B DUP6 PUSH1 0x40 MLOAD DUP1 PUSH1 0x60 ADD PUSH1 0x40 MSTORE DUP1 PUSH1 0x28 DUP2 MSTORE PUSH1 0x20 ADD PUSH2 0x3801 PUSH1 0x28 SWAP2 CODECOPY PUSH1 0x1 PUSH1 0x1 PUSH1 0xA0 SHL SUB DUP11 AND PUSH1 0x0 SWAP1 DUP2 MSTORE PUSH1 0x4 PUSH1 0x20 MSTORE PUSH1 0x40 DUP2 KECCAK256 SWAP1 PUSH2 0xC3A PUSH2 0x247D JUMP JUMPDEST PUSH1 0x1 PUSH1 0x1 PUSH1 0xA0 SHL SUB AND DUP2 MSTORE PUSH1 0x20 DUP2 ADD SWAP2 SWAP1 SWAP2 MSTORE PUSH1 0x40 ADD PUSH1 0x0 KECCAK256 SLOAD SWAP2 SWAP1 PUSH2 0x288E JUMP JUMPDEST PUSH2 0x2481 JUMP JUMPDEST POP PUSH1 0x1 SWAP4 SWAP3 POP POP POP JUMP JUMPDEST PUSH1 0x1E SLOAD DUP2 JUMP JUMPDEST PUSH1 0x0 PUSH1 0x1 PUSH1 0x1 PUSH1 0xA0 SHL SUB DUP3 AND PUSH2 0xC88 JUMPI POP PUSH1 0x0 PUSH2 0xD67 JUMP JUMPDEST PUSH1 0x20 SLOAD TIMESTAMP SWAP1 PUSH1 0x0 NOT ADD JUMPDEST DUP1 ISZERO PUSH2 0xD60 JUMPI PUSH1 0x20 DUP2 DUP2 SLOAD DUP2 LT PUSH2 0xCA5 JUMPI INVALID JUMPDEST SWAP1 PUSH1 0x0 MSTORE PUSH1 0x20 PUSH1 0x0 KECCAK256 ADD PUSH1 0x1 DUP2 SLOAD DUP2 LT PUSH2 0xCBB JUMPI INVALID JUMPDEST SWAP1 PUSH1 0x0 MSTORE PUSH1 0x20 PUSH1 0x0 KECCAK256 ADD SLOAD PUSH1 0x15 SLOAD ADD DUP3 GT ISZERO PUSH2 0xD57 JUMPI PUSH1 0x1F PUSH1 0x0 DUP6 PUSH1 0x1 PUSH1 0x1 PUSH1 0xA0 SHL SUB AND PUSH1 0x1 PUSH1 0x1 PUSH1 0xA0 SHL SUB AND DUP2 MSTORE PUSH1 0x20 ADD SWAP1 DUP2 MSTORE PUSH1 0x20 ADD PUSH1 0x0 KECCAK256 PUSH1 0x1 ADD SLOAD PUSH1 0x64 PUSH1 0x20 DUP4 DUP2 SLOAD DUP2 LT PUSH2 0xD09 JUMPI INVALID JUMPDEST SWAP1 PUSH1 0x0 MSTORE PUSH1 0x20 PUSH1 0x0 KECCAK256 ADD PUSH1 0x0 DUP2 SLOAD DUP2 LT PUSH2 0xD1F JUMPI INVALID JUMPDEST PUSH1 0x0 SWAP2 DUP3 MSTORE PUSH1 0x20 DUP1 DUP4 KECCAK256 SWAP1 SWAP2 ADD SLOAD PUSH1 0x1 PUSH1 0x1 PUSH1 0xA0 SHL SUB DUP10 AND DUP4 MSTORE PUSH1 0x1F SWAP1 SWAP2 MSTORE PUSH1 0x40 SWAP1 SWAP2 KECCAK256 SLOAD MUL DUP2 PUSH2 0xD4C JUMPI INVALID JUMPDEST DIV SUB SWAP3 POP POP POP PUSH2 0xD67 JUMP JUMPDEST PUSH1 0x0 NOT ADD PUSH2 0xC92 JUMP JUMPDEST POP PUSH1 0x0 SWAP2 POP POP JUMPDEST SWAP2 SWAP1 POP JUMP JUMPDEST PUSH1 0x5 SLOAD PUSH1 0xFF AND SWAP1 JUMP JUMPDEST PUSH1 0x0 PUSH2 0xB25 PUSH2 0xD82 PUSH2 0x247D JUMP JUMPDEST DUP5 PUSH2 0xC5B DUP6 PUSH1 0x4 PUSH1 0x0 PUSH2 0xD93 PUSH2 0x247D JUMP JUMPDEST PUSH1 0x1 PUSH1 0x1 PUSH1 0xA0 SHL SUB SWAP1 DUP2 AND DUP3 MSTORE PUSH1 0x20 DUP1 DUP4 ADD SWAP4 SWAP1 SWAP4 MSTORE PUSH1 0x40 SWAP2 DUP3 ADD PUSH1 0x0 SWAP1 DUP2 KECCAK256 SWAP2 DUP13 AND DUP2 MSTORE SWAP3 MSTORE SWAP1 KECCAK256 SLOAD SWAP1 PUSH2 0x2925 JUMP JUMPDEST PUSH1 0xF SLOAD PUSH1 0x1 PUSH1 0x1 PUSH1 0xA0 SHL SUB AND DUP2 JUMP JUMPDEST PUSH2 0xDDA PUSH2 0x247D JUMP JUMPDEST PUSH1 0x0 SLOAD PUSH1 0x1 PUSH1 0x1 PUSH1 0xA0 SHL SUB SWAP1 DUP2 AND SWAP2 AND EQ PUSH2 0xE2A JUMPI PUSH1 0x40 DUP1 MLOAD PUSH3 0x461BCD PUSH1 0xE5 SHL DUP2 MSTORE PUSH1 0x20 PUSH1 0x4 DUP3 ADD DUP2 SWAP1 MSTORE PUSH1 0x24 DUP3 ADD MSTORE PUSH1 0x0 DUP1 MLOAD PUSH1 0x20 PUSH2 0x388D DUP4 CODECOPY DUP2 MLOAD SWAP2 MSTORE PUSH1 0x44 DUP3 ADD MSTORE SWAP1 MLOAD SWAP1 DUP2 SWAP1 SUB PUSH1 0x64 ADD SWAP1 REVERT JUMPDEST PUSH1 0xF DUP1 SLOAD PUSH1 0x1 PUSH1 0x1 PUSH1 0xA0 SHL SUB DUP1 DUP9 AND PUSH1 0x1 PUSH1 0x1 PUSH1 0xA0 SHL SUB NOT SWAP3 DUP4 AND OR SWAP1 SWAP3 SSTORE PUSH1 0xE DUP1 SLOAD DUP8 DUP5 AND SWAP1 DUP4 AND OR SWAP1 SSTORE PUSH1 0x13 DUP1 SLOAD DUP6 DUP5 AND SWAP1 DUP4 AND OR SWAP1 SSTORE PUSH1 0x11 DUP1 SLOAD SWAP3 DUP7 AND SWAP3 SWAP1 SWAP2 AND DUP3 OR SWAP1 SSTORE PUSH1 0x40 DUP1 MLOAD PUSH4 0xC45A0155 PUSH1 0xE0 SHL DUP2 MSTORE SWAP1 MLOAD DUP6 SWAP3 SWAP2 PUSH4 0xC45A0155 SWAP2 PUSH1 0x4 DUP1 DUP4 ADD SWAP3 PUSH1 0x20 SWAP3 SWAP2 SWAP1 DUP3 SWAP1 SUB ADD DUP2 DUP7 DUP1 EXTCODESIZE ISZERO DUP1 ISZERO PUSH2 0xEAA JUMPI PUSH1 0x0 DUP1 REVERT JUMPDEST POP GAS STATICCALL ISZERO DUP1 ISZERO PUSH2 0xEBE JUMPI RETURNDATASIZE PUSH1 0x0 DUP1 RETURNDATACOPY RETURNDATASIZE PUSH1 0x0 REVERT JUMPDEST POP POP POP POP PUSH1 0x40 MLOAD RETURNDATASIZE PUSH1 0x20 DUP2 LT ISZERO PUSH2 0xED4 JUMPI PUSH1 0x0 DUP1 REVERT JUMPDEST POP MLOAD PUSH1 0x13 SLOAD PUSH1 0x40 DUP1 MLOAD PUSH4 0x64E329CB PUSH1 0xE1 SHL DUP2 MSTORE ADDRESS PUSH1 0x4 DUP3 ADD MSTORE PUSH1 0x1 PUSH1 0x1 PUSH1 0xA0 SHL SUB SWAP3 DUP4 AND PUSH1 0x24 DUP3 ADD MSTORE SWAP1 MLOAD SWAP2 SWAP1 SWAP3 AND SWAP2 PUSH4 0xC9C65396 SWAP2 PUSH1 0x44 DUP1 DUP4 ADD SWAP3 PUSH1 0x20 SWAP3 SWAP2 SWAP1 DUP3 SWAP1 SUB ADD DUP2 PUSH1 0x0 DUP8 DUP1 EXTCODESIZE ISZERO DUP1 ISZERO PUSH2 0xF2B JUMPI PUSH1 0x0 DUP1 REVERT JUMPDEST POP GAS CALL ISZERO DUP1 ISZERO PUSH2 0xF3F JUMPI RETURNDATASIZE PUSH1 0x0 DUP1 RETURNDATACOPY RETURNDATASIZE PUSH1 0x0 REVERT JUMPDEST POP POP POP POP PUSH1 0x40 MLOAD RETURNDATASIZE PUSH1 0x20 DUP2 LT ISZERO PUSH2 0xF55 JUMPI PUSH1 0x0 DUP1 REVERT JUMPDEST POP MLOAD PUSH1 0x12 DUP1 SLOAD PUSH1 0x1 PUSH1 0x1 PUSH1 0xA0 SHL SUB SWAP3 DUP4 AND PUSH1 0x1 PUSH1 0x1 PUSH1 0xA0 SHL SUB NOT SWAP2 DUP3 AND OR SWAP1 SWAP2 SSTORE PUSH1 0x14 DUP1 SLOAD SWAP5 SWAP1 SWAP3 AND SWAP4 AND SWAP3 SWAP1 SWAP3 OR SWAP1 SWAP2 SSTORE POP POP POP POP POP JUMP JUMPDEST PUSH1 0xF SLOAD PUSH1 0x1 PUSH1 0xA0 SHL SWAP1 DIV PUSH1 0xFF AND DUP2 JUMP JUMPDEST PUSH1 0x10 SLOAD DUP2 JUMP JUMPDEST PUSH2 0xFAC PUSH2 0x247D JUMP JUMPDEST PUSH1 0x0 SLOAD PUSH1 0x1 PUSH1 0x1 PUSH1 0xA0 SHL SUB SWAP1 DUP2 AND SWAP2 AND EQ PUSH2 0xFFC JUMPI PUSH1 0x40 DUP1 MLOAD PUSH3 0x461BCD PUSH1 0xE5 SHL DUP2 MSTORE PUSH1 0x20 PUSH1 0x4 DUP3 ADD DUP2 SWAP1 MSTORE PUSH1 0x24 DUP3 ADD MSTORE PUSH1 0x0 DUP1 MLOAD PUSH1 0x20 PUSH2 0x388D DUP4 CODECOPY DUP2 MLOAD SWAP2 MSTORE PUSH1 0x44 DUP3 ADD MSTORE SWAP1 MLOAD SWAP1 DUP2 SWAP1 SUB PUSH1 0x64 ADD SWAP1 REVERT JUMPDEST PUSH1 0x0 JUMPDEST DUP2 MLOAD DUP2 LT ISZERO PUSH2 0x102C JUMPI PUSH2 0x1024 DUP3 DUP3 DUP2 MLOAD DUP2 LT PUSH2 0x1017 JUMPI INVALID JUMPDEST PUSH1 0x20 MUL PUSH1 0x20 ADD ADD MLOAD PUSH2 0x2377 JUMP JUMPDEST PUSH1 0x1 ADD PUSH2 0xFFF JUMP JUMPDEST POP POP JUMP JUMPDEST PUSH2 0x1038 PUSH2 0x247D JUMP JUMPDEST PUSH1 0x0 SLOAD PUSH1 0x1 PUSH1 0x1 PUSH1 0xA0 SHL SUB SWAP1 DUP2 AND SWAP2 AND EQ PUSH2 0x1088 JUMPI PUSH1 0x40 DUP1 MLOAD PUSH3 0x461BCD PUSH1 0xE5 SHL DUP2 MSTORE PUSH1 0x20 PUSH1 0x4 DUP3 ADD DUP2 SWAP1 MSTORE PUSH1 0x24 DUP3 ADD MSTORE PUSH1 0x0 DUP1 MLOAD PUSH1 0x20 PUSH2 0x388D DUP4 CODECOPY DUP2 MLOAD SWAP2 MSTORE PUSH1 0x44 DUP3 ADD MSTORE SWAP1 MLOAD SWAP1 DUP2 SWAP1 SUB PUSH1 0x64 ADD SWAP1 REVERT JUMPDEST DUP1 MLOAD PUSH1 0xA SSTORE PUSH1 0x20 DUP2 ADD MLOAD PUSH1 0xB SSTORE PUSH1 0x40 DUP2 ADD MLOAD PUSH1 0xC SSTORE PUSH1 0x60 ADD MLOAD PUSH1 0xD SSTORE JUMP JUMPDEST PUSH2 0x10AE PUSH2 0x247D JUMP JUMPDEST PUSH1 0x0 SLOAD PUSH1 0x1 PUSH1 0x1 PUSH1 0xA0 SHL SUB SWAP1 DUP2 AND SWAP2 AND EQ PUSH2 0x10FE JUMPI PUSH1 0x40 DUP1 MLOAD PUSH3 0x461BCD PUSH1 0xE5 SHL DUP2 MSTORE PUSH1 0x20 PUSH1 0x4 DUP3 ADD DUP2 SWAP1 MSTORE PUSH1 0x24 DUP3 ADD MSTORE PUSH1 0x0 DUP1 MLOAD PUSH1 0x20 PUSH2 0x388D DUP4 CODECOPY DUP2 MLOAD SWAP2 MSTORE PUSH1 0x44 DUP3 ADD MSTORE SWAP1 MLOAD SWAP1 DUP2 SWAP1 SUB PUSH1 0x64 ADD SWAP1 REVERT JUMPDEST PUSH1 0x0 DUP2 PUSH1 0x1 PUSH1 0x1 PUSH1 0xA0 SHL SUB AND PUSH4 0x70A08231 ADDRESS PUSH1 0x40 MLOAD DUP3 PUSH4 0xFFFFFFFF AND PUSH1 0xE0 SHL DUP2 MSTORE PUSH1 0x4 ADD DUP1 DUP3 PUSH1 0x1 PUSH1 0x1 PUSH1 0xA0 SHL SUB AND DUP2 MSTORE PUSH1 0x20 ADD SWAP2 POP POP PUSH1 0x20 PUSH1 0x40 MLOAD DUP1 DUP4 SUB DUP2 DUP7 DUP1 EXTCODESIZE ISZERO DUP1 ISZERO PUSH2 0x114D JUMPI PUSH1 0x0 DUP1 REVERT JUMPDEST POP GAS STATICCALL ISZERO DUP1 ISZERO PUSH2 0x1161 JUMPI RETURNDATASIZE PUSH1 0x0 DUP1 RETURNDATACOPY RETURNDATASIZE PUSH1 0x0 REVERT JUMPDEST POP POP POP POP PUSH1 0x40 MLOAD RETURNDATASIZE PUSH1 0x20 DUP2 LT ISZERO PUSH2 0x1177 JUMPI PUSH1 0x0 DUP1 REVERT JUMPDEST POP MLOAD SWAP1 POP PUSH1 0x1 PUSH1 0x1 PUSH1 0xA0 SHL SUB DUP3 AND PUSH4 0xA9059CBB PUSH2 0x1192 PUSH2 0x1CAC JUMP JUMPDEST DUP4 PUSH1 0x40 MLOAD DUP4 PUSH4 0xFFFFFFFF AND PUSH1 0xE0 SHL DUP2 MSTORE PUSH1 0x4 ADD DUP1 DUP4 PUSH1 0x1 PUSH1 0x1 PUSH1 0xA0 SHL SUB AND DUP2 MSTORE PUSH1 0x20 ADD DUP3 DUP2 MSTORE PUSH1 0x20 ADD SWAP3 POP POP POP PUSH1 0x20 PUSH1 0x40 MLOAD DUP1 DUP4 SUB DUP2 PUSH1 0x0 DUP8 DUP1 EXTCODESIZE ISZERO DUP1 ISZERO PUSH2 0x11D9 JUMPI PUSH1 0x0 DUP1 REVERT JUMPDEST POP GAS CALL ISZERO DUP1 ISZERO PUSH2 0x11ED JUMPI RETURNDATASIZE PUSH1 0x0 DUP1 RETURNDATACOPY RETURNDATASIZE PUSH1 0x0 REVERT JUMPDEST POP POP POP POP PUSH1 0x40 MLOAD RETURNDATASIZE PUSH1 0x20 DUP2 LT ISZERO PUSH2 0x1203 JUMPI PUSH1 0x0 DUP1 REVERT JUMPDEST POP POP PUSH1 0x0 PUSH1 0x16 DUP2 SWAP1 SSTORE PUSH1 0x22 SSTORE POP POP JUMP JUMPDEST PUSH1 0x1 PUSH1 0x1 PUSH1 0xA0 SHL SUB AND PUSH1 0x0 SWAP1 DUP2 MSTORE PUSH1 0x3 PUSH1 0x20 MSTORE PUSH1 0x40 SWAP1 KECCAK256 SLOAD SWAP1 JUMP JUMPDEST PUSH2 0x1236 PUSH2 0x247D JUMP JUMPDEST PUSH1 0x0 SLOAD PUSH1 0x1 PUSH1 0x1 PUSH1 0xA0 SHL SUB SWAP1 DUP2 AND SWAP2 AND EQ PUSH2 0x1286 JUMPI PUSH1 0x40 DUP1 MLOAD PUSH3 0x461BCD PUSH1 0xE5 SHL DUP2 MSTORE PUSH1 0x20 PUSH1 0x4 DUP3 ADD DUP2 SWAP1 MSTORE PUSH1 0x24 DUP3 ADD MSTORE PUSH1 0x0 DUP1 MLOAD PUSH1 0x20 PUSH2 0x388D DUP4 CODECOPY DUP2 MLOAD SWAP2 MSTORE PUSH1 0x44 DUP3 ADD MSTORE SWAP1 MLOAD SWAP1 DUP2 SWAP1 SUB PUSH1 0x64 ADD SWAP1 REVERT JUMPDEST PUSH1 0x0 DUP1 SLOAD PUSH1 0x40 MLOAD PUSH1 0x1 PUSH1 0x1 PUSH1 0xA0 SHL SUB SWAP1 SWAP2 AND SWAP1 PUSH32 0x8BE0079C531659141344CD1FD0A4F28419497F9722A3DAAFE3B4186F6B6457E0 SWAP1 DUP4 SWAP1 LOG3 PUSH1 0x0 DUP1 SLOAD PUSH1 0x1 PUSH1 0x1 PUSH1 0xA0 SHL SUB NOT AND SWAP1 SSTORE JUMP JUMPDEST PUSH1 0x1B SLOAD DUP2 JUMP JUMPDEST PUSH1 0x0 PUSH2 0x12E0 PUSH2 0x3753 JUMP JUMPDEST PUSH2 0x12E8 PUSH2 0x3772 JUMP JUMPDEST PUSH1 0x1 PUSH1 0x1 PUSH1 0xA0 SHL SUB DUP5 AND PUSH1 0x0 SWAP1 DUP2 MSTORE PUSH1 0x1F PUSH1 0x20 MSTORE PUSH1 0x40 DUP2 KECCAK256 SLOAD PUSH1 0x1E SLOAD DUP1 DUP6 MSTORE TIMESTAMP GT SWAP5 POP PUSH1 0x1 SWAP1 DUP1 PUSH2 0x131B JUMPI PUSH1 0x1A SLOAD PUSH2 0x131E JUMP JUMPDEST PUSH1 0x0 JUMPDEST PUSH1 0x1 DUP4 ADD SWAP3 DUP7 SWAP1 PUSH1 0xF DUP2 LT PUSH2 0x132F JUMPI INVALID JUMPDEST PUSH1 0x20 MUL ADD MSTORE PUSH1 0x1B SLOAD PUSH1 0x1 DUP4 ADD SWAP3 SWAP1 DUP3 SWAP1 SUB SWAP1 DUP7 SWAP1 PUSH1 0xF DUP2 LT PUSH2 0x134D JUMPI INVALID JUMPDEST PUSH1 0x20 MUL ADD MSTORE PUSH1 0x1D SLOAD PUSH1 0x1 DUP4 ADD SWAP3 DUP7 SWAP1 PUSH1 0xF DUP2 LT PUSH2 0x1366 JUMPI INVALID JUMPDEST PUSH1 0x20 MUL ADD MSTORE PUSH2 0x1374 DUP8 PUSH2 0x210A JUMP JUMPDEST PUSH1 0x1 DUP4 ADD SWAP3 DUP7 SWAP1 PUSH1 0xF DUP2 LT PUSH2 0x1385 JUMPI INVALID JUMPDEST PUSH1 0x20 SWAP1 DUP2 MUL SWAP2 SWAP1 SWAP2 ADD SWAP2 SWAP1 SWAP2 MSTORE PUSH1 0x1 PUSH1 0x1 PUSH1 0xA0 SHL SUB DUP9 AND PUSH1 0x0 SWAP1 DUP2 MSTORE PUSH1 0x3 SWAP1 SWAP2 MSTORE PUSH1 0x40 SWAP1 KECCAK256 SLOAD PUSH1 0x1 DUP4 ADD SWAP3 DUP7 SWAP1 PUSH1 0xF DUP2 LT PUSH2 0x13BC JUMPI INVALID JUMPDEST PUSH1 0x20 MUL ADD MSTORE PUSH1 0x1 PUSH1 0x1 PUSH1 0xA0 SHL SUB DUP8 AND ISZERO PUSH2 0x144E JUMPI PUSH1 0x13 SLOAD PUSH1 0x40 DUP1 MLOAD PUSH4 0x70A08231 PUSH1 0xE0 SHL DUP2 MSTORE PUSH1 0x1 PUSH1 0x1 PUSH1 0xA0 SHL SUB DUP11 DUP2 AND PUSH1 0x4 DUP4 ADD MSTORE SWAP2 MLOAD SWAP2 SWAP1 SWAP3 AND SWAP2 PUSH4 0x70A08231 SWAP2 PUSH1 0x24 DUP1 DUP4 ADD SWAP3 PUSH1 0x20 SWAP3 SWAP2 SWAP1 DUP3 SWAP1 SUB ADD DUP2 DUP7 DUP1 EXTCODESIZE ISZERO DUP1 ISZERO PUSH2 0x141D JUMPI PUSH1 0x0 DUP1 REVERT JUMPDEST POP GAS STATICCALL ISZERO DUP1 ISZERO PUSH2 0x1431 JUMPI RETURNDATASIZE PUSH1 0x0 DUP1 RETURNDATACOPY RETURNDATASIZE PUSH1 0x0 REVERT JUMPDEST POP POP POP POP PUSH1 0x40 MLOAD RETURNDATASIZE PUSH1 0x20 DUP2 LT ISZERO PUSH2 0x1447 JUMPI PUSH1 0x0 DUP1 REVERT JUMPDEST POP MLOAD PUSH2 0x1451 JUMP JUMPDEST PUSH1 0x0 JUMPDEST PUSH1 0x1 DUP4 ADD SWAP3 DUP7 SWAP1 PUSH1 0xF DUP2 LT PUSH2 0x1462 JUMPI INVALID JUMPDEST PUSH1 0x20 MUL ADD MSTORE PUSH2 0x1470 DUP8 PUSH2 0xC70 JUMP JUMPDEST PUSH1 0x1 DUP4 ADD SWAP3 DUP7 SWAP1 PUSH1 0xF DUP2 LT PUSH2 0x1481 JUMPI INVALID JUMPDEST PUSH1 0x20 MUL ADD MSTORE PUSH1 0x16 SLOAD PUSH1 0x1 DUP4 ADD SWAP3 DUP7 SWAP1 PUSH1 0xF DUP2 LT PUSH2 0x149A JUMPI INVALID JUMPDEST PUSH1 0x20 MUL ADD MSTORE PUSH1 0x17 SLOAD PUSH1 0x1 DUP4 ADD SWAP3 DUP7 SWAP1 PUSH1 0xF DUP2 LT PUSH2 0x14B3 JUMPI INVALID JUMPDEST PUSH1 0x20 MUL ADD MSTORE PUSH1 0x22 SLOAD PUSH1 0x1 DUP4 ADD SWAP3 DUP7 SWAP1 PUSH1 0xF DUP2 LT PUSH2 0x14CC JUMPI INVALID JUMPDEST PUSH1 0x20 MUL ADD MSTORE PUSH1 0x23 SLOAD PUSH1 0x1 DUP4 ADD SWAP3 DUP7 SWAP1 PUSH1 0xF DUP2 LT PUSH2 0x14E5 JUMPI INVALID JUMPDEST PUSH1 0x20 SWAP1 DUP2 MUL SWAP2 SWAP1 SWAP2 ADD SWAP2 SWAP1 SWAP2 MSTORE PUSH1 0x13 SLOAD PUSH1 0x12 SLOAD PUSH1 0x40 DUP1 MLOAD PUSH4 0x70A08231 PUSH1 0xE0 SHL DUP2 MSTORE PUSH1 0x1 PUSH1 0x1 PUSH1 0xA0 SHL SUB SWAP3 DUP4 AND PUSH1 0x4 DUP3 ADD MSTORE SWAP1 MLOAD SWAP2 SWAP1 SWAP3 AND SWAP3 PUSH4 0x70A08231 SWAP3 PUSH1 0x24 DUP1 DUP3 ADD SWAP4 SWAP2 DUP3 SWAP1 SUB ADD DUP2 DUP7 DUP1 EXTCODESIZE ISZERO DUP1 ISZERO PUSH2 0x153E JUMPI PUSH1 0x0 DUP1 REVERT JUMPDEST POP GAS STATICCALL ISZERO DUP1 ISZERO PUSH2 0x1552 JUMPI RETURNDATASIZE PUSH1 0x0 DUP1 RETURNDATACOPY RETURNDATASIZE PUSH1 0x0 REVERT JUMPDEST POP POP POP POP PUSH1 0x40 MLOAD RETURNDATASIZE PUSH1 0x20 DUP2 LT ISZERO PUSH2 0x1568 JUMPI PUSH1 0x0 DUP1 REVERT JUMPDEST POP MLOAD PUSH1 0x1 DUP4 ADD SWAP3 DUP7 SWAP1 PUSH1 0xF DUP2 LT PUSH2 0x157B JUMPI INVALID JUMPDEST PUSH1 0x20 SWAP1 DUP2 MUL SWAP2 SWAP1 SWAP2 ADD SWAP2 SWAP1 SWAP2 MSTORE PUSH1 0x12 SLOAD PUSH1 0x1 PUSH1 0x1 PUSH1 0xA0 SHL SUB AND PUSH1 0x0 SWAP1 DUP2 MSTORE PUSH1 0x3 SWAP1 SWAP2 MSTORE PUSH1 0x40 SWAP1 KECCAK256 SLOAD PUSH1 0x1 DUP4 ADD SWAP3 DUP7 SWAP1 PUSH1 0xF DUP2 LT PUSH2 0x15B4 JUMPI INVALID JUMPDEST PUSH1 0x20 SWAP1 DUP2 MUL SWAP2 SWAP1 SWAP2 ADD SWAP2 SWAP1 SWAP2 MSTORE ADDRESS PUSH1 0x0 SWAP1 DUP2 MSTORE PUSH1 0x3 SWAP1 SWAP2 MSTORE PUSH1 0x40 SWAP1 KECCAK256 SLOAD PUSH1 0x1 DUP4 ADD SWAP3 DUP7 SWAP1 PUSH1 0xF DUP2 LT PUSH2 0x15E2 JUMPI INVALID JUMPDEST PUSH1 0x20 MUL ADD MSTORE PUSH1 0x0 SWAP2 POP DUP2 JUMPDEST PUSH1 0x2 SLOAD DUP2 LT ISZERO PUSH2 0x1800 JUMPI PUSH1 0x0 DUP1 PUSH1 0x0 PUSH1 0x2 DUP5 DUP2 SLOAD DUP2 LT PUSH2 0x1609 JUMPI INVALID JUMPDEST PUSH1 0x0 SWAP2 DUP3 MSTORE PUSH1 0x20 SWAP1 SWAP2 KECCAK256 ADD SLOAD PUSH1 0x40 DUP1 MLOAD PUSH4 0xC3453153 PUSH1 0xE0 SHL DUP2 MSTORE PUSH1 0x1 PUSH1 0x1 PUSH1 0xA0 SHL SUB DUP15 DUP2 AND PUSH1 0x4 DUP4 ADD MSTORE SWAP2 MLOAD SWAP2 SWAP1 SWAP3 AND SWAP2 PUSH4 0xC3453153 SWAP2 PUSH1 0x24 DUP1 DUP4 ADD SWAP3 PUSH1 0x80 SWAP3 SWAP2 SWAP1 DUP3 SWAP1 SUB ADD DUP2 DUP7 DUP1 EXTCODESIZE ISZERO DUP1 ISZERO PUSH2 0x165F JUMPI PUSH1 0x0 DUP1 REVERT JUMPDEST POP GAS STATICCALL ISZERO DUP1 ISZERO PUSH2 0x1673 JUMPI RETURNDATASIZE PUSH1 0x0 DUP1 RETURNDATACOPY RETURNDATASIZE PUSH1 0x0 REVERT JUMPDEST POP POP POP POP PUSH1 0x40 MLOAD RETURNDATASIZE PUSH1 0x80 DUP2 LT ISZERO PUSH2 0x1689 JUMPI PUSH1 0x0 DUP1 REVERT JUMPDEST POP DUP1 MLOAD PUSH1 0x20 DUP3 ADD MLOAD PUSH1 0x40 SWAP1 SWAP3 ADD MLOAD PUSH1 0x1 DUP10 ADD SWAP9 SWAP2 SWAP6 POP SWAP2 SWAP4 POP SWAP1 SWAP2 POP DUP4 SWAP1 DUP10 SWAP1 PUSH1 0x24 DUP2 LT PUSH2 0x16B3 JUMPI INVALID JUMPDEST PUSH1 0x20 MUL ADD MSTORE PUSH1 0x1 DUP7 ADD SWAP6 DUP3 SWAP1 DUP10 SWAP1 PUSH1 0x24 DUP2 LT PUSH2 0x16CB JUMPI INVALID JUMPDEST PUSH1 0x20 MUL ADD MSTORE PUSH1 0x1 DUP7 ADD SWAP6 DUP2 SWAP1 DUP10 SWAP1 PUSH1 0x24 DUP2 LT PUSH2 0x16E3 JUMPI INVALID JUMPDEST PUSH1 0x20 MUL ADD MSTORE PUSH1 0x2 DUP1 SLOAD DUP6 SWAP1 DUP2 LT PUSH2 0x16F6 JUMPI INVALID JUMPDEST PUSH1 0x0 SWAP2 DUP3 MSTORE PUSH1 0x20 SWAP2 DUP3 SWAP1 KECCAK256 ADD SLOAD PUSH1 0x40 DUP1 MLOAD PUSH4 0x106395F PUSH1 0xE0 SHL DUP2 MSTORE SWAP1 MLOAD PUSH1 0x1 PUSH1 0x1 PUSH1 0xA0 SHL SUB SWAP1 SWAP3 AND SWAP3 PUSH4 0x106395F SWAP3 PUSH1 0x4 DUP1 DUP5 ADD SWAP4 DUP3 SWAP1 SUB ADD DUP2 DUP7 DUP1 EXTCODESIZE ISZERO DUP1 ISZERO PUSH2 0x173F JUMPI PUSH1 0x0 DUP1 REVERT JUMPDEST POP GAS STATICCALL ISZERO DUP1 ISZERO PUSH2 0x1753 JUMPI RETURNDATASIZE PUSH1 0x0 DUP1 RETURNDATACOPY RETURNDATASIZE PUSH1 0x0 REVERT JUMPDEST POP POP POP POP PUSH1 0x40 MLOAD RETURNDATASIZE PUSH1 0x20 DUP2 LT ISZERO PUSH2 0x1769 JUMPI PUSH1 0x0 DUP1 REVERT JUMPDEST POP MLOAD PUSH1 0x40 DUP1 MLOAD PUSH4 0x313CE567 PUSH1 0xE0 SHL DUP2 MSTORE SWAP1 MLOAD PUSH1 0x1 PUSH1 0x1 PUSH1 0xA0 SHL SUB SWAP1 SWAP3 AND SWAP2 PUSH4 0x313CE567 SWAP2 PUSH1 0x4 DUP1 DUP3 ADD SWAP3 PUSH1 0x20 SWAP3 SWAP1 SWAP2 SWAP1 DUP3 SWAP1 SUB ADD DUP2 DUP7 DUP1 EXTCODESIZE ISZERO DUP1 ISZERO PUSH2 0x17AD JUMPI PUSH1 0x0 DUP1 REVERT JUMPDEST POP GAS STATICCALL ISZERO DUP1 ISZERO PUSH2 0x17C1 JUMPI RETURNDATASIZE PUSH1 0x0 DUP1 RETURNDATACOPY RETURNDATASIZE PUSH1 0x0 REVERT JUMPDEST POP POP POP POP PUSH1 0x40 MLOAD RETURNDATASIZE PUSH1 0x20 DUP2 LT ISZERO PUSH2 0x17D7 JUMPI PUSH1 0x0 DUP1 REVERT JUMPDEST POP MLOAD PUSH1 0x1 DUP8 ADD SWAP7 PUSH1 0xFF SWAP1 SWAP2 AND SWAP1 DUP10 SWAP1 PUSH1 0x24 DUP2 LT PUSH2 0x17F0 JUMPI INVALID JUMPDEST PUSH1 0x20 MUL ADD MSTORE POP POP POP PUSH1 0x1 ADD PUSH2 0x15ED JUMP JUMPDEST POP PUSH1 0x12 SLOAD PUSH1 0x40 DUP1 MLOAD PUSH4 0xDFE1681 PUSH1 0xE0 SHL DUP2 MSTORE SWAP1 MLOAD ADDRESS SWAP3 PUSH1 0x1 PUSH1 0x1 PUSH1 0xA0 SHL SUB AND SWAP2 PUSH4 0xDFE1681 SWAP2 PUSH1 0x4 DUP1 DUP4 ADD SWAP3 PUSH1 0x20 SWAP3 SWAP2 SWAP1 DUP3 SWAP1 SUB ADD DUP2 DUP7 DUP1 EXTCODESIZE ISZERO DUP1 ISZERO PUSH2 0x1845 JUMPI PUSH1 0x0 DUP1 REVERT JUMPDEST POP GAS STATICCALL ISZERO DUP1 ISZERO PUSH2 0x1859 JUMPI RETURNDATASIZE PUSH1 0x0 DUP1 RETURNDATACOPY RETURNDATASIZE PUSH1 0x0 REVERT JUMPDEST POP POP POP POP PUSH1 0x40 MLOAD RETURNDATASIZE PUSH1 0x20 DUP2 LT ISZERO PUSH2 0x186F JUMPI PUSH1 0x0 DUP1 REVERT JUMPDEST POP MLOAD SWAP7 SWAP9 SWAP6 SWAP8 POP SWAP4 SWAP6 PUSH1 0x1 PUSH1 0x1 PUSH1 0xA0 SHL SUB AND SWAP1 SWAP4 EQ SWAP4 SWAP3 POP POP POP JUMP JUMPDEST PUSH1 0x16 SLOAD DUP2 JUMP JUMPDEST PUSH1 0xD SLOAD PUSH1 0xB SLOAD PUSH1 0xC SLOAD PUSH1 0xA SLOAD ADD ADD ADD SWAP1 JUMP JUMPDEST PUSH1 0x19 SLOAD CALLER SWAP1 PUSH1 0x0 SWAP1 PUSH8 0xDE0B6B3A7640000 DUP6 MUL DUP2 PUSH2 0x18BD JUMPI INVALID JUMPDEST DIV SWAP1 POP PUSH1 0x1 PUSH1 0x1 PUSH1 0xA0 SHL SUB DUP3 AND PUSH2 0x191B JUMPI PUSH1 0x40 DUP1 MLOAD PUSH3 0x461BCD PUSH1 0xE5 SHL DUP2 MSTORE PUSH1 0x20 PUSH1 0x4 DUP3 ADD MSTORE PUSH1 0x1D PUSH1 0x24 DUP3 ADD MSTORE PUSH32 0x5F73656E6465722063616E2774206265207A65726F2061646472657373000000 PUSH1 0x44 DUP3 ADD MSTORE SWAP1 MLOAD SWAP1 DUP2 SWAP1 SUB PUSH1 0x64 ADD SWAP1 REVERT JUMPDEST DUP1 PUSH1 0x1D SLOAD GT DUP1 ISZERO PUSH2 0x192D JUMPI POP PUSH1 0x1E SLOAD TIMESTAMP LT JUMPDEST PUSH2 0x196E JUMPI PUSH1 0x40 DUP1 MLOAD PUSH3 0x461BCD PUSH1 0xE5 SHL DUP2 MSTORE PUSH1 0x20 PUSH1 0x4 DUP3 ADD MSTORE PUSH1 0xD PUSH1 0x24 DUP3 ADD MSTORE PUSH13 0x1C1C995CD85B1948195B991959 PUSH1 0x9A SHL PUSH1 0x44 DUP3 ADD MSTORE SWAP1 MLOAD SWAP1 DUP2 SWAP1 SUB PUSH1 0x64 ADD SWAP1 REVERT JUMPDEST PUSH1 0x1 PUSH1 0x1 PUSH1 0xA0 SHL SUB DUP3 AND PUSH1 0x0 SWAP1 DUP2 MSTORE PUSH1 0x1F PUSH1 0x20 MSTORE PUSH1 0x40 SWAP1 KECCAK256 SLOAD PUSH1 0x1A SLOAD SWAP1 DUP3 ADD LT ISZERO PUSH2 0x19CA JUMPI PUSH1 0x40 MLOAD PUSH3 0x461BCD PUSH1 0xE5 SHL DUP2 MSTORE PUSH1 0x4 ADD DUP1 DUP1 PUSH1 0x20 ADD DUP3 DUP2 SUB DUP3 MSTORE PUSH1 0x2D DUP2 MSTORE PUSH1 0x20 ADD DUP1 PUSH2 0x38D3 PUSH1 0x2D SWAP2 CODECOPY PUSH1 0x40 ADD SWAP2 POP POP PUSH1 0x40 MLOAD DUP1 SWAP2 SUB SWAP1 REVERT JUMPDEST PUSH1 0x1 PUSH1 0x1 PUSH1 0xA0 SHL SUB DUP3 AND PUSH1 0x0 SWAP1 DUP2 MSTORE PUSH1 0x1F PUSH1 0x20 MSTORE PUSH1 0x40 SWAP1 KECCAK256 SLOAD PUSH1 0x1B SLOAD SWAP1 DUP3 ADD GT ISZERO PUSH2 0x1A26 JUMPI PUSH1 0x40 MLOAD PUSH3 0x461BCD PUSH1 0xE5 SHL DUP2 MSTORE PUSH1 0x4 ADD DUP1 DUP1 PUSH1 0x20 ADD DUP3 DUP2 SUB DUP3 MSTORE PUSH1 0x30 DUP2 MSTORE PUSH1 0x20 ADD DUP1 PUSH2 0x39AB PUSH1 0x30 SWAP2 CODECOPY PUSH1 0x40 ADD SWAP2 POP POP PUSH1 0x40 MLOAD DUP1 SWAP2 SUB SWAP1 REVERT JUMPDEST PUSH1 0x13 SLOAD PUSH1 0xF SLOAD PUSH1 0x40 DUP1 MLOAD PUSH4 0x23B872DD PUSH1 0xE0 SHL DUP2 MSTORE PUSH1 0x1 PUSH1 0x1 PUSH1 0xA0 SHL SUB DUP7 DUP2 AND PUSH1 0x4 DUP4 ADD MSTORE SWAP3 DUP4 AND PUSH1 0x24 DUP3 ADD MSTORE PUSH1 0x44 DUP2 ADD DUP9 SWAP1 MSTORE SWAP1 MLOAD SWAP2 SWAP1 SWAP3 AND SWAP2 PUSH4 0x23B872DD SWAP2 PUSH1 0x64 DUP1 DUP4 ADD SWAP3 PUSH1 0x20 SWAP3 SWAP2 SWAP1 DUP3 SWAP1 SUB ADD DUP2 PUSH1 0x0 DUP8 DUP1 EXTCODESIZE ISZERO DUP1 ISZERO PUSH2 0x1A87 JUMPI PUSH1 0x0 DUP1 REVERT JUMPDEST POP GAS CALL ISZERO DUP1 ISZERO PUSH2 0x1A9B JUMPI RETURNDATASIZE PUSH1 0x0 DUP1 RETURNDATACOPY RETURNDATASIZE PUSH1 0x0 REVERT JUMPDEST POP POP POP POP PUSH1 0x40 MLOAD RETURNDATASIZE PUSH1 0x20 DUP2 LT ISZERO PUSH2 0x1AB1 JUMPI PUSH1 0x0 DUP1 REVERT JUMPDEST POP PUSH2 0x1ABE SWAP1 POP DUP3 DUP3 PUSH2 0x2986 JUMP JUMPDEST PUSH1 0x1 PUSH1 0x1 PUSH1 0xA0 SHL SUB DUP4 AND ISZERO PUSH2 0x1BE7 JUMPI PUSH2 0x1AF6 DUP4 PUSH2 0x1AF1 PUSH1 0x64 PUSH2 0x1AEB PUSH1 0x21 SLOAD DUP7 PUSH2 0x2AA6 SWAP1 SWAP2 SWAP1 PUSH4 0xFFFFFFFF AND JUMP JUMPDEST SWAP1 PUSH2 0x2AFF JUMP JUMPDEST PUSH2 0x2986 JUMP JUMPDEST PUSH2 0x1B10 PUSH1 0x64 PUSH2 0x1AEB PUSH1 0x21 SLOAD DUP5 PUSH2 0x2AA6 SWAP1 SWAP2 SWAP1 PUSH4 0xFFFFFFFF AND JUMP JUMPDEST PUSH1 0x1 PUSH1 0x1 PUSH1 0xA0 SHL SUB DUP5 AND PUSH1 0x0 SWAP1 DUP2 MSTORE PUSH1 0x1F PUSH1 0x20 MSTORE PUSH1 0x40 SWAP1 KECCAK256 DUP1 SLOAD SWAP1 SWAP2 ADD SWAP1 SSTORE PUSH1 0x21 SLOAD PUSH2 0x1B44 SWAP1 PUSH1 0x64 SWAP1 PUSH2 0x1AEB SWAP1 DUP5 SWAP1 PUSH2 0x2AA6 JUMP JUMPDEST PUSH1 0x1D DUP1 SLOAD SWAP2 SWAP1 SWAP2 SUB SWAP1 SSTORE PUSH1 0x21 SLOAD PUSH2 0x1B63 SWAP1 PUSH1 0x64 SWAP1 PUSH2 0x1AEB SWAP1 DUP5 SWAP1 PUSH2 0x2AA6 JUMP JUMPDEST PUSH1 0x1C DUP1 SLOAD SWAP1 SWAP2 ADD SWAP1 SSTORE PUSH1 0x21 SLOAD PUSH32 0xF0ABE27DE28FCB91718E6302B9813C494EF6D8A617B38C71B44D6F70BE3A5F2A SWAP1 DUP5 SWAP1 PUSH2 0x1BA5 SWAP1 PUSH1 0x64 SWAP1 PUSH2 0x1AEB SWAP1 DUP10 SWAP1 PUSH2 0x2AA6 JUMP JUMPDEST PUSH2 0x1BBF PUSH1 0x64 PUSH2 0x1AEB PUSH1 0x21 SLOAD DUP8 PUSH2 0x2AA6 SWAP1 SWAP2 SWAP1 PUSH4 0xFFFFFFFF AND JUMP JUMPDEST PUSH1 0x40 DUP1 MLOAD PUSH1 0x1 PUSH1 0x1 PUSH1 0xA0 SHL SUB SWAP1 SWAP5 AND DUP5 MSTORE PUSH1 0x20 DUP5 ADD SWAP3 SWAP1 SWAP3 MSTORE DUP3 DUP3 ADD MSTORE MLOAD SWAP1 DUP2 SWAP1 SUB PUSH1 0x60 ADD SWAP1 LOG1 JUMPDEST PUSH1 0x1 PUSH1 0x1 PUSH1 0xA0 SHL SUB DUP3 AND PUSH1 0x0 DUP2 DUP2 MSTORE PUSH1 0x1F PUSH1 0x20 SWAP1 DUP2 MSTORE PUSH1 0x40 SWAP2 DUP3 SWAP1 KECCAK256 DUP1 SLOAD DUP6 ADD SWAP1 SSTORE PUSH1 0x1D DUP1 SLOAD DUP6 SWAP1 SUB SWAP1 SSTORE PUSH1 0x1C DUP1 SLOAD DUP6 ADD SWAP1 SSTORE DUP2 MLOAD SWAP3 DUP4 MSTORE DUP3 ADD DUP7 SWAP1 MSTORE DUP2 DUP2 ADD DUP4 SWAP1 MSTORE MLOAD PUSH32 0xF0ABE27DE28FCB91718E6302B9813C494EF6D8A617B38C71B44D6F70BE3A5F2A SWAP2 DUP2 SWAP1 SUB PUSH1 0x60 ADD SWAP1 LOG1 POP POP POP POP JUMP JUMPDEST PUSH1 0x2 DUP2 DUP2 SLOAD DUP2 LT PUSH2 0x1C68 JUMPI INVALID JUMPDEST PUSH1 0x0 SWAP2 DUP3 MSTORE PUSH1 0x20 SWAP1 SWAP2 KECCAK256 ADD SLOAD PUSH1 0x1 PUSH1 0x1 PUSH1 0xA0 SHL SUB AND SWAP1 POP DUP2 JUMP JUMPDEST PUSH1 0xE SLOAD PUSH1 0x1 PUSH1 0x1 PUSH1 0xA0 SHL SUB AND DUP2 JUMP JUMPDEST PUSH1 0x0 PUSH2 0x1C9B PUSH2 0x1CAC JUMP JUMPDEST SWAP1 POP SWAP1 JUMP JUMPDEST PUSH1 0xD SLOAD DUP2 JUMP JUMPDEST PUSH1 0xB SLOAD DUP2 JUMP JUMPDEST PUSH1 0x0 SLOAD PUSH1 0x1 PUSH1 0x1 PUSH1 0xA0 SHL SUB AND SWAP1 JUMP JUMPDEST PUSH1 0x23 SLOAD DUP2 JUMP JUMPDEST PUSH1 0x6 DUP1 SLOAD PUSH1 0x40 DUP1 MLOAD PUSH1 0x20 PUSH1 0x1F PUSH1 0x2 PUSH1 0x0 NOT PUSH2 0x100 PUSH1 0x1 DUP9 AND ISZERO MUL ADD SWAP1 SWAP6 AND SWAP5 SWAP1 SWAP5 DIV SWAP4 DUP5 ADD DUP2 SWAP1 DIV DUP2 MUL DUP3 ADD DUP2 ADD SWAP1 SWAP3 MSTORE DUP3 DUP2 MSTORE PUSH1 0x60 SWAP4 SWAP1 SWAP3 SWAP1 SWAP2 DUP4 ADD DUP3 DUP3 DUP1 ISZERO PUSH2 0xB07 JUMPI DUP1 PUSH1 0x1F LT PUSH2 0xADC JUMPI PUSH2 0x100 DUP1 DUP4 SLOAD DIV MUL DUP4 MSTORE SWAP2 PUSH1 0x20 ADD SWAP2 PUSH2 0xB07 JUMP JUMPDEST PUSH1 0xC SLOAD DUP2 JUMP JUMPDEST PUSH1 0xA SLOAD DUP2 JUMP JUMPDEST PUSH1 0x12 SLOAD PUSH1 0x1 PUSH1 0x1 PUSH1 0xA0 SHL SUB AND DUP2 JUMP JUMPDEST PUSH1 0x21 SLOAD DUP2 JUMP JUMPDEST CALLER PUSH1 0x0 SWAP1 DUP2 MSTORE PUSH1 0x1 PUSH1 0x20 DUP2 SWAP1 MSTORE PUSH1 0x40 DUP3 KECCAK256 SLOAD PUSH1 0xFF AND ISZERO ISZERO EQ DUP1 PUSH2 0x1D7E JUMPI POP PUSH2 0x1D69 PUSH2 0x1CAC JUMP JUMPDEST PUSH1 0x1 PUSH1 0x1 PUSH1 0xA0 SHL SUB AND CALLER PUSH1 0x1 PUSH1 0x1 PUSH1 0xA0 SHL SUB AND EQ JUMPDEST PUSH2 0x1DB9 JUMPI PUSH1 0x40 MLOAD PUSH3 0x461BCD PUSH1 0xE5 SHL DUP2 MSTORE PUSH1 0x4 ADD DUP1 DUP1 PUSH1 0x20 ADD DUP3 DUP2 SUB DUP3 MSTORE PUSH1 0x22 DUP2 MSTORE PUSH1 0x20 ADD DUP1 PUSH2 0x3943 PUSH1 0x22 SWAP2 CODECOPY PUSH1 0x40 ADD SWAP2 POP POP PUSH1 0x40 MLOAD DUP1 SWAP2 SUB SWAP1 REVERT JUMPDEST PUSH2 0x1DCA PUSH2 0x1DC4 PUSH2 0x247D JUMP JUMPDEST DUP4 PUSH2 0x2986 JUMP JUMPDEST POP PUSH1 0x1 SWAP2 SWAP1 POP JUMP JUMPDEST PUSH1 0x0 PUSH2 0xB25 PUSH2 0x1DDF PUSH2 0x247D JUMP JUMPDEST DUP5 PUSH2 0xC5B DUP6 PUSH1 0x40 MLOAD DUP1 PUSH1 0x60 ADD PUSH1 0x40 MSTORE DUP1 PUSH1 0x25 DUP2 MSTORE PUSH1 0x20 ADD PUSH2 0x3965 PUSH1 0x25 SWAP2 CODECOPY PUSH1 0x4 PUSH1 0x0 PUSH2 0x1E09 PUSH2 0x247D JUMP JUMPDEST PUSH1 0x1 PUSH1 0x1 PUSH1 0xA0 SHL SUB SWAP1 DUP2 AND DUP3 MSTORE PUSH1 0x20 DUP1 DUP4 ADD SWAP4 SWAP1 SWAP4 MSTORE PUSH1 0x40 SWAP2 DUP3 ADD PUSH1 0x0 SWAP1 DUP2 KECCAK256 SWAP2 DUP14 AND DUP2 MSTORE SWAP3 MSTORE SWAP1 KECCAK256 SLOAD SWAP2 SWAP1 PUSH2 0x288E JUMP JUMPDEST CALLER PUSH1 0x0 PUSH2 0x1E46 DUP3 PUSH2 0xC70 JUMP JUMPDEST SWAP1 POP PUSH1 0x1 PUSH1 0x1 PUSH1 0xA0 SHL SUB DUP3 AND PUSH2 0x1E9A JUMPI PUSH1 0x40 DUP1 MLOAD PUSH3 0x461BCD PUSH1 0xE5 SHL DUP2 MSTORE PUSH1 0x20 PUSH1 0x4 DUP3 ADD MSTORE PUSH1 0x14 PUSH1 0x24 DUP3 ADD MSTORE PUSH20 0x73656E6465722063616E2774206265207A65726F PUSH1 0x60 SHL PUSH1 0x44 DUP3 ADD MSTORE SWAP1 MLOAD SWAP1 DUP2 SWAP1 SUB PUSH1 0x64 ADD SWAP1 REVERT JUMPDEST PUSH1 0x0 DUP2 GT PUSH2 0x1EE7 JUMPI PUSH1 0x40 DUP1 MLOAD PUSH3 0x461BCD PUSH1 0xE5 SHL DUP2 MSTORE PUSH1 0x20 PUSH1 0x4 DUP3 ADD MSTORE PUSH1 0x15 PUSH1 0x24 DUP3 ADD MSTORE PUSH21 0x5F756E6C6F636B416D6F756E74206973207A65726F PUSH1 0x58 SHL PUSH1 0x44 DUP3 ADD MSTORE SWAP1 MLOAD SWAP1 DUP2 SWAP1 SUB PUSH1 0x64 ADD SWAP1 REVERT JUMPDEST PUSH1 0x1 PUSH1 0x1 PUSH1 0xA0 SHL SUB DUP3 AND PUSH1 0x0 DUP2 DUP2 MSTORE PUSH1 0x1F PUSH1 0x20 SWAP1 DUP2 MSTORE PUSH1 0x40 SWAP2 DUP3 SWAP1 KECCAK256 PUSH1 0x1 ADD DUP1 SLOAD DUP6 ADD SWAP1 SSTORE DUP2 MLOAD SWAP3 DUP4 MSTORE DUP3 ADD DUP4 SWAP1 MSTORE TIMESTAMP DUP3 DUP3 ADD MSTORE MLOAD PUSH32 0x3F2F29FA02CC34566AC167B446BE0BE9E0254CAC18EDA93B2DFE6A7A7C8AFFB9 SWAP2 DUP2 SWAP1 SUB PUSH1 0x60 ADD SWAP1 LOG1 POP POP JUMP JUMPDEST PUSH1 0x0 PUSH2 0xB25 PUSH2 0x1F57 PUSH2 0x247D JUMP JUMPDEST DUP5 DUP5 PUSH2 0x256D JUMP JUMPDEST PUSH1 0x1 PUSH1 0x20 MSTORE PUSH1 0x0 SWAP1 DUP2 MSTORE PUSH1 0x40 SWAP1 KECCAK256 SLOAD PUSH1 0xFF AND DUP2 JUMP JUMPDEST CALLER PUSH1 0x0 PUSH2 0x1F7F DUP3 PUSH2 0x210A JUMP JUMPDEST SWAP1 POP PUSH1 0x1 PUSH1 0x1 PUSH1 0xA0 SHL SUB DUP3 AND PUSH2 0x1FD3 JUMPI PUSH1 0x40 DUP1 MLOAD PUSH3 0x461BCD PUSH1 0xE5 SHL DUP2 MSTORE PUSH1 0x20 PUSH1 0x4 DUP3 ADD MSTORE PUSH1 0x14 PUSH1 0x24 DUP3 ADD MSTORE PUSH20 0x73656E6465722063616E2774206265207A65726F PUSH1 0x60 SHL PUSH1 0x44 DUP3 ADD MSTORE SWAP1 MLOAD SWAP1 DUP2 SWAP1 SUB PUSH1 0x64 ADD SWAP1 REVERT JUMPDEST PUSH1 0x0 DUP2 GT PUSH2 0x2012 JUMPI PUSH1 0x40 MLOAD PUSH3 0x461BCD PUSH1 0xE5 SHL DUP2 MSTORE PUSH1 0x4 ADD DUP1 DUP1 PUSH1 0x20 ADD DUP3 DUP2 SUB DUP3 MSTORE PUSH1 0x21 DUP2 MSTORE PUSH1 0x20 ADD DUP1 PUSH2 0x3829 PUSH1 0x21 SWAP2 CODECOPY PUSH1 0x40 ADD SWAP2 POP POP PUSH1 0x40 MLOAD DUP1 SWAP2 SUB SWAP1 REVERT JUMPDEST PUSH1 0x13 SLOAD PUSH1 0x40 DUP1 MLOAD PUSH4 0xA9059CBB PUSH1 0xE0 SHL DUP2 MSTORE PUSH1 0x1 PUSH1 0x1 PUSH1 0xA0 SHL SUB DUP6 DUP2 AND PUSH1 0x4 DUP4 ADD MSTORE PUSH1 0x24 DUP3 ADD DUP6 SWAP1 MSTORE SWAP2 MLOAD SWAP2 SWAP1 SWAP3 AND SWAP2 PUSH4 0xA9059CBB SWAP2 PUSH1 0x44 DUP1 DUP4 ADD SWAP3 PUSH1 0x20 SWAP3 SWAP2 SWAP1 DUP3 SWAP1 SUB ADD DUP2 PUSH1 0x0 DUP8 DUP1 EXTCODESIZE ISZERO DUP1 ISZERO PUSH2 0x2068 JUMPI PUSH1 0x0 DUP1 REVERT JUMPDEST POP GAS CALL ISZERO DUP1 ISZERO PUSH2 0x207C JUMPI RETURNDATASIZE PUSH1 0x0 DUP1 RETURNDATACOPY RETURNDATASIZE PUSH1 0x0 REVERT JUMPDEST POP POP POP POP PUSH1 0x40 MLOAD RETURNDATASIZE PUSH1 0x20 DUP2 LT ISZERO PUSH2 0x2092 JUMPI PUSH1 0x0 DUP1 REVERT JUMPDEST POP POP PUSH1 0x1 PUSH1 0x1 PUSH1 0xA0 SHL SUB DUP3 AND PUSH1 0x0 DUP2 DUP2 MSTORE PUSH1 0x1F PUSH1 0x20 SWAP1 DUP2 MSTORE PUSH1 0x40 SWAP2 DUP3 SWAP1 KECCAK256 PUSH1 0x2 ADD DUP1 SLOAD DUP6 ADD SWAP1 SSTORE PUSH1 0x16 DUP1 SLOAD DUP6 SWAP1 SUB SWAP1 SSTORE PUSH1 0x17 DUP1 SLOAD DUP6 ADD SWAP1 SSTORE DUP2 MLOAD SWAP3 DUP4 MSTORE DUP3 ADD DUP4 SWAP1 MSTORE DUP1 MLOAD PUSH32 0xBA8DE60C3403EC381D1D484652EA1980E3C3E56359195C92525BFF4CE47AD98E SWAP3 DUP2 SWAP1 SUB SWAP1 SWAP2 ADD SWAP1 LOG1 POP POP JUMP JUMPDEST PUSH1 0x17 SLOAD DUP2 JUMP JUMPDEST PUSH1 0x0 PUSH1 0x1C SLOAD PUSH1 0x0 EQ DUP1 PUSH2 0x2124 JUMPI POP PUSH1 0x1 PUSH1 0x1 PUSH1 0xA0 SHL SUB DUP3 AND ISZERO JUMPDEST ISZERO PUSH2 0x2131 JUMPI POP PUSH1 0x0 PUSH2 0xD67 JUMP JUMPDEST PUSH1 0x1C SLOAD PUSH1 0x1 PUSH1 0x1 PUSH1 0xA0 SHL SUB DUP4 AND PUSH1 0x0 SWAP1 DUP2 MSTORE PUSH1 0x1F PUSH1 0x20 MSTORE PUSH1 0x40 SWAP1 KECCAK256 SLOAD PUSH1 0x17 SLOAD PUSH1 0x16 SLOAD PUSH2 0x216D SWAP4 SWAP3 PUSH2 0x1AEB SWAP3 SWAP1 SWAP2 PUSH2 0x2167 SWAP2 PUSH2 0x2925 JUMP JUMPDEST SWAP1 PUSH2 0x2AA6 JUMP JUMPDEST PUSH1 0x1 PUSH1 0x1 PUSH1 0xA0 SHL SUB DUP4 AND PUSH1 0x0 SWAP1 DUP2 MSTORE PUSH1 0x1F PUSH1 0x20 MSTORE PUSH1 0x40 SWAP1 KECCAK256 PUSH1 0x2 ADD SLOAD SWAP1 SWAP2 POP DUP2 GT ISZERO PUSH2 0x21B6 JUMPI PUSH1 0x1 PUSH1 0x1 PUSH1 0xA0 SHL SUB DUP3 AND PUSH1 0x0 SWAP1 DUP2 MSTORE PUSH1 0x1F PUSH1 0x20 MSTORE PUSH1 0x40 SWAP1 KECCAK256 PUSH1 0x2 ADD SLOAD SWAP1 SUB PUSH2 0xD67 JUMP JUMPDEST POP PUSH1 0x0 SWAP2 SWAP1 POP JUMP JUMPDEST PUSH2 0x21C6 PUSH2 0x247D JUMP JUMPDEST PUSH1 0x0 SLOAD PUSH1 0x1 PUSH1 0x1 PUSH1 0xA0 SHL SUB SWAP1 DUP2 AND SWAP2 AND EQ PUSH2 0x2216 JUMPI PUSH1 0x40 DUP1 MLOAD PUSH3 0x461BCD PUSH1 0xE5 SHL DUP2 MSTORE PUSH1 0x20 PUSH1 0x4 DUP3 ADD DUP2 SWAP1 MSTORE PUSH1 0x24 DUP3 ADD MSTORE PUSH1 0x0 DUP1 MLOAD PUSH1 0x20 PUSH2 0x388D DUP4 CODECOPY DUP2 MLOAD SWAP2 MSTORE PUSH1 0x44 DUP3 ADD MSTORE SWAP1 MLOAD SWAP1 DUP2 SWAP1 SUB PUSH1 0x64 ADD SWAP1 REVERT JUMPDEST PUSH1 0xF DUP1 SLOAD SWAP2 ISZERO ISZERO PUSH1 0x1 PUSH1 0xA0 SHL MUL PUSH1 0xFF PUSH1 0xA0 SHL NOT SWAP1 SWAP3 AND SWAP2 SWAP1 SWAP2 OR SWAP1 SSTORE JUMP JUMPDEST PUSH1 0x1A SLOAD DUP2 JUMP JUMPDEST PUSH1 0x22 SLOAD DUP2 JUMP JUMPDEST PUSH2 0x2248 PUSH2 0x247D JUMP JUMPDEST PUSH1 0x0 SLOAD PUSH1 0x1 PUSH1 0x1 PUSH1 0xA0 SHL SUB SWAP1 DUP2 AND SWAP2 AND EQ PUSH2 0x2298 JUMPI PUSH1 0x40 DUP1 MLOAD PUSH3 0x461BCD PUSH1 0xE5 SHL DUP2 MSTORE PUSH1 0x20 PUSH1 0x4 DUP3 ADD DUP2 SWAP1 MSTORE PUSH1 0x24 DUP3 ADD MSTORE PUSH1 0x0 DUP1 MLOAD PUSH1 0x20 PUSH2 0x388D DUP4 CODECOPY DUP2 MLOAD SWAP2 MSTORE PUSH1 0x44 DUP3 ADD MSTORE SWAP1 MLOAD SWAP1 DUP2 SWAP1 SUB PUSH1 0x64 ADD SWAP1 REVERT JUMPDEST PUSH1 0x21 SSTORE JUMP JUMPDEST PUSH1 0x1C SLOAD DUP2 JUMP JUMPDEST PUSH1 0x11 SLOAD PUSH1 0x1 PUSH1 0x1 PUSH1 0xA0 SHL SUB AND DUP2 JUMP JUMPDEST PUSH1 0x1D SLOAD DUP2 JUMP JUMPDEST PUSH1 0x1 PUSH1 0x1 PUSH1 0xA0 SHL SUB SWAP2 DUP3 AND PUSH1 0x0 SWAP1 DUP2 MSTORE PUSH1 0x4 PUSH1 0x20 SWAP1 DUP2 MSTORE PUSH1 0x40 DUP1 DUP4 KECCAK256 SWAP4 SWAP1 SWAP5 AND DUP3 MSTORE SWAP2 SWAP1 SWAP2 MSTORE KECCAK256 SLOAD SWAP1 JUMP JUMPDEST PUSH1 0x1F PUSH1 0x20 MSTORE PUSH1 0x0 SWAP1 DUP2 MSTORE PUSH1 0x40 SWAP1 KECCAK256 DUP1 SLOAD PUSH1 0x1 DUP3 ADD SLOAD PUSH1 0x2 SWAP1 SWAP3 ADD SLOAD SWAP1 SWAP2 SWAP1 DUP4 JUMP JUMPDEST PUSH1 0x14 SLOAD PUSH1 0x1 PUSH1 0x1 PUSH1 0xA0 SHL SUB AND DUP2 JUMP JUMPDEST PUSH2 0x231B PUSH2 0x247D JUMP JUMPDEST PUSH1 0x0 SLOAD PUSH1 0x1 PUSH1 0x1 PUSH1 0xA0 SHL SUB SWAP1 DUP2 AND SWAP2 AND EQ PUSH2 0x236B JUMPI PUSH1 0x40 DUP1 MLOAD PUSH3 0x461BCD PUSH1 0xE5 SHL DUP2 MSTORE PUSH1 0x20 PUSH1 0x4 DUP3 ADD DUP2 SWAP1 MSTORE PUSH1 0x24 DUP3 ADD MSTORE PUSH1 0x0 DUP1 MLOAD PUSH1 0x20 PUSH2 0x388D DUP4 CODECOPY DUP2 MLOAD SWAP2 MSTORE PUSH1 0x44 DUP3 ADD MSTORE SWAP1 MLOAD SWAP1 DUP2 SWAP1 SUB PUSH1 0x64 ADD SWAP1 REVERT JUMPDEST PUSH2 0x2374 DUP2 PUSH2 0x2B41 JUMP JUMPDEST POP JUMP JUMPDEST PUSH2 0x237F PUSH2 0x247D JUMP JUMPDEST PUSH1 0x0 SLOAD PUSH1 0x1 PUSH1 0x1 PUSH1 0xA0 SHL SUB SWAP1 DUP2 AND SWAP2 AND EQ PUSH2 0x23CF JUMPI PUSH1 0x40 DUP1 MLOAD PUSH3 0x461BCD PUSH1 0xE5 SHL DUP2 MSTORE PUSH1 0x20 PUSH1 0x4 DUP3 ADD DUP2 SWAP1 MSTORE PUSH1 0x24 DUP3 ADD MSTORE PUSH1 0x0 DUP1 MLOAD PUSH1 0x20 PUSH2 0x388D DUP4 CODECOPY DUP2 MLOAD SWAP2 MSTORE PUSH1 0x44 DUP3 ADD MSTORE SWAP1 MLOAD SWAP1 DUP2 SWAP1 SUB PUSH1 0x64 ADD SWAP1 REVERT JUMPDEST PUSH1 0x1 PUSH1 0x1 PUSH1 0xA0 SHL SUB DUP2 AND PUSH1 0x0 DUP2 DUP2 MSTORE PUSH1 0x1 PUSH1 0x20 DUP2 DUP2 MSTORE PUSH1 0x40 DUP1 DUP5 KECCAK256 DUP1 SLOAD PUSH1 0xFF NOT AND DUP5 OR SWAP1 SSTORE PUSH1 0x2 DUP1 SLOAD DUP1 DUP6 ADD DUP3 SSTORE SWAP5 MSTORE PUSH32 0x405787FA12A823E0F2B7631CC41B3BA8828B3321CA811111FA75CD3AA3BB5ACE SWAP1 SWAP4 ADD DUP1 SLOAD PUSH1 0x1 PUSH1 0x1 PUSH1 0xA0 SHL SUB NOT AND DUP6 OR SWAP1 SSTORE DUP3 MLOAD SWAP2 DUP3 MSTORE SWAP2 MLOAD PUSH32 0x4579EC50A131EE14D9AB0DFEDDCEBA4BE2FB6907F7326C52237BE3FAB060BA7F SWAP3 SWAP2 DUP2 SWAP1 SUB SWAP1 SWAP2 ADD SWAP1 LOG2 POP JUMP JUMPDEST PUSH1 0x18 SLOAD DUP2 JUMP JUMPDEST PUSH1 0x13 SLOAD PUSH1 0x1 PUSH1 0x1 PUSH1 0xA0 SHL SUB AND DUP2 JUMP JUMPDEST CALLER SWAP1 JUMP JUMPDEST PUSH1 0x1 PUSH1 0x1 PUSH1 0xA0 SHL SUB DUP4 AND PUSH2 0x24C6 JUMPI PUSH1 0x40 MLOAD PUSH3 0x461BCD PUSH1 0xE5 SHL DUP2 MSTORE PUSH1 0x4 ADD DUP1 DUP1 PUSH1 0x20 ADD DUP3 DUP2 SUB DUP3 MSTORE PUSH1 0x24 DUP2 MSTORE PUSH1 0x20 ADD DUP1 PUSH2 0x37B7 PUSH1 0x24 SWAP2 CODECOPY PUSH1 0x40 ADD SWAP2 POP POP PUSH1 0x40 MLOAD DUP1 SWAP2 SUB SWAP1 REVERT JUMPDEST PUSH1 0x1 PUSH1 0x1 PUSH1 0xA0 SHL SUB DUP3 AND PUSH2 0x250B JUMPI PUSH1 0x40 MLOAD PUSH3 0x461BCD PUSH1 0xE5 SHL DUP2 MSTORE PUSH1 0x4 ADD DUP1 DUP1 PUSH1 0x20 ADD DUP3 DUP2 SUB DUP3 MSTORE PUSH1 0x22 DUP2 MSTORE PUSH1 0x20 ADD DUP1 PUSH2 0x39FD PUSH1 0x22 SWAP2 CODECOPY PUSH1 0x40 ADD SWAP2 POP POP PUSH1 0x40 MLOAD DUP1 SWAP2 SUB SWAP1 REVERT JUMPDEST PUSH1 0x1 PUSH1 0x1 PUSH1 0xA0 SHL SUB DUP1 DUP5 AND PUSH1 0x0 DUP2 DUP2 MSTORE PUSH1 0x4 PUSH1 0x20 SWAP1 DUP2 MSTORE PUSH1 0x40 DUP1 DUP4 KECCAK256 SWAP5 DUP8 AND DUP1 DUP5 MSTORE SWAP5 DUP3 MSTORE SWAP2 DUP3 SWAP1 KECCAK256 DUP6 SWAP1 SSTORE DUP2 MLOAD DUP6 DUP2 MSTORE SWAP2 MLOAD PUSH32 0x8C5BE1E5EBEC7D5BD14F71427D1E84F3DD0314C0F7B2291E5B200AC8C7C3B925 SWAP3 DUP2 SWAP1 SUB SWAP1 SWAP2 ADD SWAP1 LOG3 POP POP POP JUMP JUMPDEST PUSH1 0x1 PUSH1 0x1 PUSH1 0xA0 SHL SUB DUP4 AND PUSH2 0x25B2 JUMPI PUSH1 0x40 MLOAD PUSH3 0x461BCD PUSH1 0xE5 SHL DUP2 MSTORE PUSH1 0x4 ADD DUP1 DUP1 PUSH1 0x20 ADD DUP3 DUP2 SUB DUP3 MSTORE PUSH1 0x25 DUP2 MSTORE PUSH1 0x20 ADD DUP1 PUSH2 0x3792 PUSH1 0x25 SWAP2 CODECOPY PUSH1 0x40 ADD SWAP2 POP POP PUSH1 0x40 MLOAD DUP1 SWAP2 SUB SWAP1 REVERT JUMPDEST PUSH1 0x1 PUSH1 0x1 PUSH1 0xA0 SHL SUB DUP3 AND PUSH2 0x25F7 JUMPI PUSH1 0x40 MLOAD PUSH3 0x461BCD PUSH1 0xE5 SHL DUP2 MSTORE PUSH1 0x4 ADD DUP1 DUP1 PUSH1 0x20 ADD DUP3 DUP2 SUB DUP3 MSTORE PUSH1 0x23 DUP2 MSTORE PUSH1 0x20 ADD DUP1 PUSH2 0x3920 PUSH1 0x23 SWAP2 CODECOPY PUSH1 0x40 ADD SWAP2 POP POP PUSH1 0x40 MLOAD DUP1 SWAP2 SUB SWAP1 REVERT JUMPDEST PUSH1 0x1 PUSH1 0x1 PUSH1 0xA0 SHL SUB DUP4 AND PUSH1 0x0 SWAP1 DUP2 MSTORE PUSH1 0x1F PUSH1 0x20 SWAP1 DUP2 MSTORE PUSH1 0x40 DUP1 DUP4 KECCAK256 DUP1 SLOAD PUSH1 0x1 SWAP1 SWAP2 ADD SLOAD PUSH1 0x3 SWAP1 SWAP4 MSTORE SWAP3 KECCAK256 SLOAD DUP4 SWAP3 DUP4 SWAP3 PUSH2 0x2639 SWAP3 PUSH2 0x2633 SWAP2 PUSH2 0x2925 JUMP JUMPDEST SWAP1 PUSH2 0x2BE1 JUMP JUMPDEST LT ISZERO PUSH2 0x2676 JUMPI PUSH1 0x40 MLOAD PUSH3 0x461BCD PUSH1 0xE5 SHL DUP2 MSTORE PUSH1 0x4 ADD DUP1 DUP1 PUSH1 0x20 ADD DUP3 DUP2 SUB DUP3 MSTORE PUSH1 0x26 DUP2 MSTORE PUSH1 0x20 ADD DUP1 PUSH2 0x38AD PUSH1 0x26 SWAP2 CODECOPY PUSH1 0x40 ADD SWAP2 POP POP PUSH1 0x40 MLOAD DUP1 SWAP2 SUB SWAP1 REVERT JUMPDEST PUSH2 0x26B3 DUP3 PUSH1 0x40 MLOAD DUP1 PUSH1 0x60 ADD PUSH1 0x40 MSTORE DUP1 PUSH1 0x26 DUP2 MSTORE PUSH1 0x20 ADD PUSH2 0x38AD PUSH1 0x26 SWAP2 CODECOPY PUSH1 0x1 PUSH1 0x1 PUSH1 0xA0 SHL SUB DUP8 AND PUSH1 0x0 SWAP1 DUP2 MSTORE PUSH1 0x3 PUSH1 0x20 MSTORE PUSH1 0x40 SWAP1 KECCAK256 SLOAD SWAP2 SWAP1 PUSH2 0x288E JUMP JUMPDEST PUSH1 0x1 PUSH1 0x1 PUSH1 0xA0 SHL SUB DUP1 DUP7 AND PUSH1 0x0 DUP2 DUP2 MSTORE PUSH1 0x3 PUSH1 0x20 MSTORE PUSH1 0x40 SWAP1 KECCAK256 SWAP3 SWAP1 SWAP3 SSTORE PUSH1 0x12 SLOAD DUP2 AND SWAP2 DUP3 EQ SWAP2 SWAP1 DUP6 AND EQ DUP1 ISZERO PUSH2 0x2789 JUMPI PUSH2 0x26FD PUSH1 0x64 PUSH2 0x1AEB PUSH2 0x26F3 PUSH2 0x1891 JUMP JUMPDEST DUP8 SWAP1 PUSH1 0x64 SUB PUSH2 0x2AA6 JUMP JUMPDEST SWAP3 POP PUSH1 0x0 PUSH2 0x2727 PUSH1 0x64 PUSH2 0x1AEB PUSH1 0xD SLOAD PUSH1 0xC SLOAD PUSH1 0xB SLOAD PUSH1 0xA SLOAD ADD ADD ADD DUP9 PUSH2 0x2AA6 SWAP1 SWAP2 SWAP1 PUSH4 0xFFFFFFFF AND JUMP JUMPDEST ADDRESS PUSH1 0x0 SWAP1 DUP2 MSTORE PUSH1 0x3 PUSH1 0x20 MSTORE PUSH1 0x40 SWAP1 KECCAK256 SLOAD SWAP1 SWAP2 POP PUSH2 0x2744 SWAP1 DUP3 PUSH2 0x2925 JUMP JUMPDEST ADDRESS PUSH1 0x0 DUP2 DUP2 MSTORE PUSH1 0x3 PUSH1 0x20 SWAP1 DUP2 MSTORE PUSH1 0x40 SWAP2 DUP3 SWAP1 KECCAK256 SWAP4 SWAP1 SWAP4 SSTORE DUP1 MLOAD DUP5 DUP2 MSTORE SWAP1 MLOAD SWAP2 SWAP3 PUSH1 0x1 PUSH1 0x1 PUSH1 0xA0 SHL SUB DUP12 AND SWAP3 PUSH1 0x0 DUP1 MLOAD PUSH1 0x20 PUSH2 0x3900 DUP4 CODECOPY DUP2 MLOAD SWAP2 MSTORE SWAP3 DUP2 SWAP1 SUB SWAP1 SWAP2 ADD SWAP1 LOG3 POP JUMPDEST PUSH1 0x1 PUSH1 0x1 PUSH1 0xA0 SHL SUB DUP6 AND PUSH1 0x0 SWAP1 DUP2 MSTORE PUSH1 0x3 PUSH1 0x20 MSTORE PUSH1 0x40 SWAP1 KECCAK256 SLOAD PUSH2 0x27AC SWAP1 DUP5 PUSH2 0x2925 JUMP JUMPDEST PUSH1 0x1 PUSH1 0x1 PUSH1 0xA0 SHL SUB DUP7 AND PUSH1 0x0 SWAP1 DUP2 MSTORE PUSH1 0x3 PUSH1 0x20 MSTORE PUSH1 0x40 DUP2 KECCAK256 SWAP2 SWAP1 SWAP2 SSTORE PUSH2 0x27D1 ADDRESS PUSH2 0x1213 JUMP JUMPDEST PUSH1 0x14 SLOAD SWAP1 SWAP2 POP PUSH1 0x1 PUSH1 0xA0 SHL SWAP1 DIV PUSH1 0xFF AND ISZERO DUP1 ISZERO PUSH2 0x27F8 JUMPI POP PUSH1 0x14 SLOAD PUSH1 0x1 PUSH1 0xA8 SHL SWAP1 DIV PUSH1 0xFF AND ISZERO JUMPDEST DUP1 ISZERO PUSH2 0x2802 JUMPI POP DUP3 ISZERO JUMPDEST DUP1 ISZERO PUSH2 0x280C JUMPI POP DUP2 ISZERO JUMPDEST DUP1 ISZERO PUSH2 0x2821 JUMPI POP PUSH1 0xF SLOAD PUSH1 0x1 PUSH1 0xA0 SHL SWAP1 DIV PUSH1 0xFF AND JUMPDEST ISZERO PUSH2 0x284C JUMPI DUP1 PUSH1 0x10 SLOAD GT PUSH2 0x2837 JUMPI PUSH2 0x2837 PUSH2 0x2C23 JUMP JUMPDEST PUSH2 0x283F PUSH2 0x2F28 JUMP JUMPDEST ISZERO PUSH2 0x284C JUMPI PUSH2 0x284C PUSH2 0x2F3F JUMP JUMPDEST DUP6 PUSH1 0x1 PUSH1 0x1 PUSH1 0xA0 SHL SUB AND DUP8 PUSH1 0x1 PUSH1 0x1 PUSH1 0xA0 SHL SUB AND PUSH1 0x0 DUP1 MLOAD PUSH1 0x20 PUSH2 0x3900 DUP4 CODECOPY DUP2 MLOAD SWAP2 MSTORE DUP7 PUSH1 0x40 MLOAD DUP1 DUP3 DUP2 MSTORE PUSH1 0x20 ADD SWAP2 POP POP PUSH1 0x40 MLOAD DUP1 SWAP2 SUB SWAP1 LOG3 POP POP POP POP POP POP POP JUMP JUMPDEST PUSH1 0x0 DUP2 DUP5 DUP5 GT ISZERO PUSH2 0x291D JUMPI PUSH1 0x40 MLOAD PUSH3 0x461BCD PUSH1 0xE5 SHL DUP2 MSTORE PUSH1 0x4 ADD DUP1 DUP1 PUSH1 0x20 ADD DUP3 DUP2 SUB DUP3 MSTORE DUP4 DUP2 DUP2 MLOAD DUP2 MSTORE PUSH1 0x20 ADD SWAP2 POP DUP1 MLOAD SWAP1 PUSH1 0x20 ADD SWAP1 DUP1 DUP4 DUP4 PUSH1 0x0 JUMPDEST DUP4 DUP2 LT ISZERO PUSH2 0x28E2 JUMPI DUP2 DUP2 ADD MLOAD DUP4 DUP3 ADD MSTORE PUSH1 0x20 ADD PUSH2 0x28CA JUMP JUMPDEST POP POP POP POP SWAP1 POP SWAP1 DUP2 ADD SWAP1 PUSH1 0x1F AND DUP1 ISZERO PUSH2 0x290F JUMPI DUP1 DUP3 SUB DUP1 MLOAD PUSH1 0x1 DUP4 PUSH1 0x20 SUB PUSH2 0x100 EXP SUB NOT AND DUP2 MSTORE PUSH1 0x20 ADD SWAP2 POP JUMPDEST POP SWAP3 POP POP POP PUSH1 0x40 MLOAD DUP1 SWAP2 SUB SWAP1 REVERT JUMPDEST POP POP POP SWAP1 SUB SWAP1 JUMP JUMPDEST PUSH1 0x0 DUP3 DUP3 ADD DUP4 DUP2 LT ISZERO PUSH2 0x297F JUMPI PUSH1 0x40 DUP1 MLOAD PUSH3 0x461BCD PUSH1 0xE5 SHL DUP2 MSTORE PUSH1 0x20 PUSH1 0x4 DUP3 ADD MSTORE PUSH1 0x1B PUSH1 0x24 DUP3 ADD MSTORE PUSH32 0x536166654D6174683A206164646974696F6E206F766572666C6F770000000000 PUSH1 0x44 DUP3 ADD MSTORE SWAP1 MLOAD SWAP1 DUP2 SWAP1 SUB PUSH1 0x64 ADD SWAP1 REVERT JUMPDEST SWAP4 SWAP3 POP POP POP JUMP JUMPDEST PUSH1 0x1 PUSH1 0x1 PUSH1 0xA0 SHL SUB DUP3 AND PUSH2 0x29E1 JUMPI PUSH1 0x40 DUP1 MLOAD PUSH3 0x461BCD PUSH1 0xE5 SHL DUP2 MSTORE PUSH1 0x20 PUSH1 0x4 DUP3 ADD MSTORE PUSH1 0x1F PUSH1 0x24 DUP3 ADD MSTORE PUSH32 0x42455032303A206D696E7420746F20746865207A65726F206164647265737300 PUSH1 0x44 DUP3 ADD MSTORE SWAP1 MLOAD SWAP1 DUP2 SWAP1 SUB PUSH1 0x64 ADD SWAP1 REVERT JUMPDEST PUSH1 0x8 SLOAD PUSH1 0x9 SLOAD LT PUSH2 0x2A2D JUMPI PUSH1 0x40 DUP1 MLOAD PUSH3 0x461BCD PUSH1 0xE5 SHL DUP2 MSTORE PUSH1 0x20 PUSH1 0x4 DUP3 ADD MSTORE PUSH1 0x11 PUSH1 0x24 DUP3 ADD MSTORE PUSH17 0x657863656564206D617820737570706C79 PUSH1 0x78 SHL PUSH1 0x44 DUP3 ADD MSTORE SWAP1 MLOAD SWAP1 DUP2 SWAP1 SUB PUSH1 0x64 ADD SWAP1 REVERT JUMPDEST PUSH1 0x9 SLOAD PUSH2 0x2A3A SWAP1 DUP3 PUSH2 0x2925 JUMP JUMPDEST PUSH1 0x9 SSTORE PUSH1 0x1 PUSH1 0x1 PUSH1 0xA0 SHL SUB DUP3 AND PUSH1 0x0 SWAP1 DUP2 MSTORE PUSH1 0x3 PUSH1 0x20 MSTORE PUSH1 0x40 SWAP1 KECCAK256 SLOAD PUSH2 0x2A60 SWAP1 DUP3 PUSH2 0x2925 JUMP JUMPDEST PUSH1 0x1 PUSH1 0x1 PUSH1 0xA0 SHL SUB DUP4 AND PUSH1 0x0 DUP2 DUP2 MSTORE PUSH1 0x3 PUSH1 0x20 SWAP1 DUP2 MSTORE PUSH1 0x40 DUP1 DUP4 KECCAK256 SWAP5 SWAP1 SWAP5 SSTORE DUP4 MLOAD DUP6 DUP2 MSTORE SWAP4 MLOAD SWAP3 SWAP4 SWAP2 SWAP3 PUSH1 0x0 DUP1 MLOAD PUSH1 0x20 PUSH2 0x3900 DUP4 CODECOPY DUP2 MLOAD SWAP2 MSTORE SWAP3 DUP2 SWAP1 SUB SWAP1 SWAP2 ADD SWAP1 LOG3 POP POP JUMP JUMPDEST PUSH1 0x0 DUP3 PUSH2 0x2AB5 JUMPI POP PUSH1 0x0 PUSH2 0xB29 JUMP JUMPDEST DUP3 DUP3 MUL DUP3 DUP5 DUP3 DUP2 PUSH2 0x2AC2 JUMPI INVALID JUMPDEST DIV EQ PUSH2 0x297F JUMPI PUSH1 0x40 MLOAD PUSH3 0x461BCD PUSH1 0xE5 SHL DUP2 MSTORE PUSH1 0x4 ADD DUP1 DUP1 PUSH1 0x20 ADD DUP3 DUP2 SUB DUP3 MSTORE PUSH1 0x21 DUP2 MSTORE PUSH1 0x20 ADD DUP1 PUSH2 0x386C PUSH1 0x21 SWAP2 CODECOPY PUSH1 0x40 ADD SWAP2 POP POP PUSH1 0x40 MLOAD DUP1 SWAP2 SUB SWAP1 REVERT JUMPDEST PUSH1 0x0 PUSH2 0x297F DUP4 DUP4 PUSH1 0x40 MLOAD DUP1 PUSH1 0x40 ADD PUSH1 0x40 MSTORE DUP1 PUSH1 0x1A DUP2 MSTORE PUSH1 0x20 ADD PUSH32 0x536166654D6174683A206469766973696F6E206279207A65726F000000000000 DUP2 MSTORE POP PUSH2 0x32B4 JUMP JUMPDEST PUSH1 0x1 PUSH1 0x1 PUSH1 0xA0 SHL SUB DUP2 AND PUSH2 0x2B86 JUMPI PUSH1 0x40 MLOAD PUSH3 0x461BCD PUSH1 0xE5 SHL DUP2 MSTORE PUSH1 0x4 ADD DUP1 DUP1 PUSH1 0x20 ADD DUP3 DUP2 SUB DUP3 MSTORE PUSH1 0x26 DUP2 MSTORE PUSH1 0x20 ADD DUP1 PUSH2 0x37DB PUSH1 0x26 SWAP2 CODECOPY PUSH1 0x40 ADD SWAP2 POP POP PUSH1 0x40 MLOAD DUP1 SWAP2 SUB SWAP1 REVERT JUMPDEST PUSH1 0x0 DUP1 SLOAD PUSH1 0x40 MLOAD PUSH1 0x1 PUSH1 0x1 PUSH1 0xA0 SHL SUB DUP1 DUP6 AND SWAP4 SWAP3 AND SWAP2 PUSH32 0x8BE0079C531659141344CD1FD0A4F28419497F9722A3DAAFE3B4186F6B6457E0 SWAP2 LOG3 PUSH1 0x0 DUP1 SLOAD PUSH1 0x1 PUSH1 0x1 PUSH1 0xA0 SHL SUB NOT AND PUSH1 0x1 PUSH1 0x1 PUSH1 0xA0 SHL SUB SWAP3 SWAP1 SWAP3 AND SWAP2 SWAP1 SWAP2 OR SWAP1 SSTORE JUMP JUMPDEST PUSH1 0x0 PUSH2 0x297F DUP4 DUP4 PUSH1 0x40 MLOAD DUP1 PUSH1 0x40 ADD PUSH1 0x40 MSTORE DUP1 PUSH1 0x1E DUP2 MSTORE PUSH1 0x20 ADD PUSH32 0x536166654D6174683A207375627472616374696F6E206F766572666C6F770000 DUP2 MSTORE POP PUSH2 0x288E JUMP JUMPDEST PUSH1 0x14 DUP1 SLOAD PUSH1 0xFF PUSH1 0xA0 SHL NOT AND PUSH1 0x1 PUSH1 0xA0 SHL OR SWAP1 SSTORE ADDRESS PUSH1 0x0 SWAP1 DUP2 MSTORE PUSH1 0x3 PUSH1 0x20 MSTORE PUSH1 0x40 DUP2 KECCAK256 SLOAD SWAP1 PUSH2 0x2C65 PUSH1 0x2 PUSH2 0x1AEB PUSH2 0x2C57 PUSH2 0x1891 JUMP JUMPDEST PUSH1 0xA SLOAD PUSH2 0x1AEB SWAP1 DUP8 SWAP1 PUSH2 0x2AA6 JUMP JUMPDEST SWAP1 POP PUSH1 0x0 PUSH2 0x2C73 DUP4 DUP4 PUSH2 0x2BE1 JUMP JUMPDEST PUSH1 0x13 SLOAD PUSH1 0x40 DUP1 MLOAD PUSH4 0x70A08231 PUSH1 0xE0 SHL DUP2 MSTORE ADDRESS PUSH1 0x4 DUP3 ADD MSTORE SWAP1 MLOAD SWAP3 SWAP4 POP PUSH1 0x0 SWAP3 PUSH1 0x1 PUSH1 0x1 PUSH1 0xA0 SHL SUB SWAP1 SWAP3 AND SWAP2 PUSH4 0x70A08231 SWAP2 PUSH1 0x24 DUP1 DUP3 ADD SWAP3 PUSH1 0x20 SWAP3 SWAP1 SWAP2 SWAP1 DUP3 SWAP1 SUB ADD DUP2 DUP7 DUP1 EXTCODESIZE ISZERO DUP1 ISZERO PUSH2 0x2CC4 JUMPI PUSH1 0x0 DUP1 REVERT JUMPDEST POP GAS STATICCALL ISZERO DUP1 ISZERO PUSH2 0x2CD8 JUMPI RETURNDATASIZE PUSH1 0x0 DUP1 RETURNDATACOPY RETURNDATASIZE PUSH1 0x0 REVERT JUMPDEST POP POP POP POP PUSH1 0x40 MLOAD RETURNDATASIZE PUSH1 0x20 DUP2 LT ISZERO PUSH2 0x2CEE JUMPI PUSH1 0x0 DUP1 REVERT JUMPDEST POP MLOAD SWAP1 POP PUSH2 0x2CFB DUP3 PUSH2 0x3319 JUMP JUMPDEST PUSH1 0x13 SLOAD PUSH1 0x40 DUP1 MLOAD PUSH4 0x70A08231 PUSH1 0xE0 SHL DUP2 MSTORE ADDRESS PUSH1 0x4 DUP3 ADD MSTORE SWAP1 MLOAD PUSH1 0x0 SWAP3 PUSH2 0x2D81 SWAP3 DUP6 SWAP3 PUSH1 0x1 PUSH1 0x1 PUSH1 0xA0 SHL SUB SWAP1 SWAP3 AND SWAP2 PUSH4 0x70A08231 SWAP2 PUSH1 0x24 DUP1 DUP3 ADD SWAP3 PUSH1 0x20 SWAP3 SWAP1 SWAP2 SWAP1 DUP3 SWAP1 SUB ADD DUP2 DUP7 DUP1 EXTCODESIZE ISZERO DUP1 ISZERO PUSH2 0x2D4F JUMPI PUSH1 0x0 DUP1 REVERT JUMPDEST POP GAS STATICCALL ISZERO DUP1 ISZERO PUSH2 0x2D63 JUMPI RETURNDATASIZE PUSH1 0x0 DUP1 RETURNDATACOPY RETURNDATASIZE PUSH1 0x0 REVERT JUMPDEST POP POP POP POP PUSH1 0x40 MLOAD RETURNDATASIZE PUSH1 0x20 DUP2 LT ISZERO PUSH2 0x2D79 JUMPI PUSH1 0x0 DUP1 REVERT JUMPDEST POP MLOAD SWAP1 PUSH2 0x2BE1 JUMP JUMPDEST SWAP1 POP PUSH2 0x2DC1 PUSH2 0x2DB8 PUSH2 0x2DAA PUSH2 0x2DA2 PUSH1 0x2 PUSH1 0xA SLOAD PUSH2 0x2AFF SWAP1 SWAP2 SWAP1 PUSH4 0xFFFFFFFF AND JUMP JUMPDEST PUSH2 0x2633 PUSH2 0x1891 JUMP JUMPDEST PUSH1 0xB SLOAD PUSH2 0x1AEB SWAP1 DUP6 SWAP1 PUSH2 0x2AA6 JUMP JUMPDEST PUSH1 0x16 SLOAD SWAP1 PUSH2 0x2925 JUMP JUMPDEST PUSH1 0x16 SSTORE PUSH1 0xA SLOAD PUSH2 0x2DF5 SWAP1 PUSH2 0x2DEC SWAP1 PUSH2 0x2DDE SWAP1 PUSH2 0x2DA2 SWAP1 PUSH1 0x2 PUSH2 0x2AFF JUMP JUMPDEST PUSH1 0xC SLOAD PUSH2 0x1AEB SWAP1 DUP6 SWAP1 PUSH2 0x2AA6 JUMP JUMPDEST PUSH1 0x22 SLOAD SWAP1 PUSH2 0x2925 JUMP JUMPDEST PUSH1 0x22 SSTORE PUSH1 0x13 SLOAD PUSH1 0xE SLOAD PUSH1 0xA SLOAD PUSH1 0x1 PUSH1 0x1 PUSH1 0xA0 SHL SUB SWAP3 DUP4 AND SWAP3 PUSH4 0xA9059CBB SWAP3 AND SWAP1 PUSH2 0x2E36 SWAP1 PUSH2 0x2E28 SWAP1 PUSH2 0x2DA2 SWAP1 PUSH1 0x2 PUSH2 0x2AFF JUMP JUMPDEST PUSH1 0xD SLOAD PUSH2 0x1AEB SWAP1 DUP8 SWAP1 PUSH2 0x2AA6 JUMP JUMPDEST PUSH1 0x40 MLOAD DUP4 PUSH4 0xFFFFFFFF AND PUSH1 0xE0 SHL DUP2 MSTORE PUSH1 0x4 ADD DUP1 DUP4 PUSH1 0x1 PUSH1 0x1 PUSH1 0xA0 SHL SUB AND DUP2 MSTORE PUSH1 0x20 ADD DUP3 DUP2 MSTORE PUSH1 0x20 ADD SWAP3 POP POP POP PUSH1 0x20 PUSH1 0x40 MLOAD DUP1 DUP4 SUB DUP2 PUSH1 0x0 DUP8 DUP1 EXTCODESIZE ISZERO DUP1 ISZERO PUSH2 0x2E7C JUMPI PUSH1 0x0 DUP1 REVERT JUMPDEST POP GAS CALL ISZERO DUP1 ISZERO PUSH2 0x2E90 JUMPI RETURNDATASIZE PUSH1 0x0 DUP1 RETURNDATACOPY RETURNDATASIZE PUSH1 0x0 REVERT JUMPDEST POP POP POP POP PUSH1 0x40 MLOAD RETURNDATASIZE PUSH1 0x20 DUP2 LT ISZERO PUSH2 0x2EA6 JUMPI PUSH1 0x0 DUP1 REVERT JUMPDEST POP POP PUSH1 0x22 SLOAD PUSH1 0x16 SLOAD PUSH1 0x13 SLOAD PUSH1 0x40 DUP1 MLOAD PUSH4 0x70A08231 PUSH1 0xE0 SHL DUP2 MSTORE ADDRESS PUSH1 0x4 DUP3 ADD MSTORE SWAP1 MLOAD PUSH1 0x0 SWAP5 PUSH2 0x2F07 SWAP5 SWAP1 SWAP4 PUSH2 0x2633 SWAP4 SWAP2 SWAP3 PUSH1 0x1 PUSH1 0x1 PUSH1 0xA0 SHL SUB SWAP1 SWAP2 AND SWAP2 PUSH4 0x70A08231 SWAP2 PUSH1 0x24 DUP1 DUP4 ADD SWAP3 PUSH1 0x20 SWAP3 SWAP2 SWAP1 DUP3 SWAP1 SUB ADD DUP2 DUP7 DUP1 EXTCODESIZE ISZERO DUP1 ISZERO PUSH2 0x2D4F JUMPI PUSH1 0x0 DUP1 REVERT JUMPDEST SWAP1 POP PUSH2 0x2F13 DUP6 DUP3 PUSH2 0x34D3 JUMP JUMPDEST POP POP PUSH1 0x14 DUP1 SLOAD PUSH1 0xFF PUSH1 0xA0 SHL NOT AND SWAP1 SSTORE POP POP POP POP JUMP JUMPDEST PUSH1 0x0 PUSH1 0x18 SLOAD PUSH1 0xA EXP PUSH3 0x186A0 MUL PUSH1 0x22 SLOAD LT ISZERO SWAP1 POP SWAP1 JUMP JUMPDEST PUSH1 0x14 DUP1 SLOAD PUSH1 0xFF PUSH1 0xA8 SHL NOT AND PUSH1 0x1 PUSH1 0xA8 SHL OR SWAP1 SSTORE PUSH2 0x2F5A PUSH2 0x2F28 JUMP JUMPDEST PUSH2 0x2F95 JUMPI PUSH1 0x40 MLOAD PUSH3 0x461BCD PUSH1 0xE5 SHL DUP2 MSTORE PUSH1 0x4 ADD DUP1 DUP1 PUSH1 0x20 ADD DUP3 DUP2 SUB DUP3 MSTORE PUSH1 0x22 DUP2 MSTORE PUSH1 0x20 ADD DUP1 PUSH2 0x384A PUSH1 0x22 SWAP2 CODECOPY PUSH1 0x40 ADD SWAP2 POP POP PUSH1 0x40 MLOAD DUP1 SWAP2 SUB SWAP1 REVERT JUMPDEST PUSH1 0x22 SLOAD PUSH1 0x0 SWAP1 PUSH2 0x2FA6 SWAP1 PUSH1 0x2 PUSH2 0x2AFF JUMP JUMPDEST PUSH1 0x40 DUP1 MLOAD PUSH1 0x2 DUP1 DUP3 MSTORE PUSH1 0x60 DUP1 DUP4 ADD DUP5 MSTORE SWAP4 SWAP5 POP SWAP1 SWAP2 PUSH1 0x20 DUP4 ADD SWAP1 DUP1 CALLDATASIZE DUP4 CALLDATACOPY POP POP PUSH1 0x13 SLOAD DUP3 MLOAD SWAP3 SWAP4 POP PUSH1 0x1 PUSH1 0x1 PUSH1 0xA0 SHL SUB AND SWAP2 DUP4 SWAP2 POP PUSH1 0x0 SWAP1 PUSH2 0x2FE4 JUMPI INVALID JUMPDEST PUSH1 0x20 MUL PUSH1 0x20 ADD ADD SWAP1 PUSH1 0x1 PUSH1 0x1 PUSH1 0xA0 SHL SUB AND SWAP1 DUP2 PUSH1 0x1 PUSH1 0x1 PUSH1 0xA0 SHL SUB AND DUP2 MSTORE POP POP ADDRESS DUP2 PUSH1 0x1 DUP2 MLOAD DUP2 LT PUSH2 0x3012 JUMPI INVALID JUMPDEST PUSH1 0x1 PUSH1 0x1 PUSH1 0xA0 SHL SUB SWAP3 DUP4 AND PUSH1 0x20 SWAP2 DUP3 MUL SWAP3 SWAP1 SWAP3 ADD DUP2 ADD SWAP2 SWAP1 SWAP2 MSTORE PUSH1 0x13 SLOAD PUSH1 0x11 SLOAD PUSH1 0x40 DUP1 MLOAD PUSH4 0x95EA7B3 PUSH1 0xE0 SHL DUP2 MSTORE SWAP2 DUP6 AND PUSH1 0x4 DUP4 ADD MSTORE PUSH1 0x24 DUP3 ADD DUP8 SWAP1 MSTORE MLOAD SWAP2 SWAP1 SWAP4 AND SWAP3 PUSH4 0x95EA7B3 SWAP3 PUSH1 0x44 DUP1 DUP4 ADD SWAP4 SWAP2 SWAP3 DUP3 SWAP1 SUB ADD DUP2 PUSH1 0x0 DUP8 DUP1 EXTCODESIZE ISZERO DUP1 ISZERO PUSH2 0x3079 JUMPI PUSH1 0x0 DUP1 REVERT JUMPDEST POP GAS CALL ISZERO DUP1 ISZERO PUSH2 0x308D JUMPI RETURNDATASIZE PUSH1 0x0 DUP1 RETURNDATACOPY RETURNDATASIZE PUSH1 0x0 REVERT JUMPDEST POP POP POP POP PUSH1 0x40 MLOAD RETURNDATASIZE PUSH1 0x20 DUP2 LT ISZERO PUSH2 0x30A3 JUMPI PUSH1 0x0 DUP1 REVERT JUMPDEST POP POP ADDRESS PUSH1 0x0 SWAP1 DUP2 MSTORE PUSH1 0x3 PUSH1 0x20 SWAP1 DUP2 MSTORE PUSH1 0x40 DUP1 DUP4 KECCAK256 SLOAD PUSH1 0x11 SLOAD PUSH1 0x14 SLOAD SWAP3 MLOAD PUSH4 0x38ED1739 PUSH1 0xE0 SHL DUP2 MSTORE PUSH1 0x4 DUP2 ADD DUP9 DUP2 MSTORE PUSH1 0x24 DUP3 ADD DUP8 SWAP1 MSTORE PUSH1 0x1 PUSH1 0x1 PUSH1 0xA0 SHL SUB SWAP5 DUP6 AND PUSH1 0x64 DUP4 ADD DUP2 SWAP1 MSTORE TIMESTAMP PUSH1 0x84 DUP5 ADD DUP2 SWAP1 MSTORE PUSH1 0xA0 PUSH1 0x44 DUP6 ADD SWAP1 DUP2 MSTORE DUP11 MLOAD PUSH1 0xA4 DUP7 ADD MSTORE DUP11 MLOAD SWAP7 SWAP10 SWAP6 SWAP1 SWAP8 AND SWAP8 PUSH4 0x38ED1739 SWAP8 DUP13 SWAP8 DUP13 SWAP7 SWAP5 SWAP6 SWAP4 SWAP5 SWAP2 SWAP3 PUSH1 0xC4 SWAP1 SWAP3 ADD SWAP2 DUP8 DUP2 ADD SWAP2 MUL DUP1 DUP4 DUP4 DUP12 JUMPDEST DUP4 DUP2 LT ISZERO PUSH2 0x3143 JUMPI DUP2 DUP2 ADD MLOAD DUP4 DUP3 ADD MSTORE PUSH1 0x20 ADD PUSH2 0x312B JUMP JUMPDEST POP POP POP POP SWAP1 POP ADD SWAP7 POP POP POP POP POP POP POP PUSH1 0x0 PUSH1 0x40 MLOAD DUP1 DUP4 SUB DUP2 PUSH1 0x0 DUP8 DUP1 EXTCODESIZE ISZERO DUP1 ISZERO PUSH2 0x316C JUMPI PUSH1 0x0 DUP1 REVERT JUMPDEST POP GAS CALL ISZERO DUP1 ISZERO PUSH2 0x3180 JUMPI RETURNDATASIZE PUSH1 0x0 DUP1 RETURNDATACOPY RETURNDATASIZE PUSH1 0x0 REVERT JUMPDEST POP POP POP POP PUSH1 0x40 MLOAD RETURNDATASIZE PUSH1 0x0 DUP3 RETURNDATACOPY PUSH1 0x1F RETURNDATASIZE SWAP1 DUP2 ADD PUSH1 0x1F NOT AND DUP3 ADD PUSH1 0x40 MSTORE PUSH1 0x20 DUP2 LT ISZERO PUSH2 0x31A9 JUMPI PUSH1 0x0 DUP1 REVERT JUMPDEST DUP2 ADD SWAP1 DUP1 DUP1 MLOAD PUSH1 0x40 MLOAD SWAP4 SWAP3 SWAP2 SWAP1 DUP5 PUSH5 0x100000000 DUP3 GT ISZERO PUSH2 0x31C9 JUMPI PUSH1 0x0 DUP1 REVERT JUMPDEST SWAP1 DUP4 ADD SWAP1 PUSH1 0x20 DUP3 ADD DUP6 DUP2 GT ISZERO PUSH2 0x31DE JUMPI PUSH1 0x0 DUP1 REVERT JUMPDEST DUP3 MLOAD DUP7 PUSH1 0x20 DUP3 MUL DUP4 ADD GT PUSH5 0x100000000 DUP3 GT OR ISZERO PUSH2 0x31FB JUMPI PUSH1 0x0 DUP1 REVERT JUMPDEST DUP3 MSTORE POP DUP2 MLOAD PUSH1 0x20 SWAP2 DUP3 ADD SWAP3 DUP3 ADD SWAP2 MUL DUP1 DUP4 DUP4 PUSH1 0x0 JUMPDEST DUP4 DUP2 LT ISZERO PUSH2 0x3228 JUMPI DUP2 DUP2 ADD MLOAD DUP4 DUP3 ADD MSTORE PUSH1 0x20 ADD PUSH2 0x3210 JUMP JUMPDEST POP POP POP POP SWAP2 SWAP1 SWAP2 ADD PUSH1 0x40 SWAP1 DUP2 MSTORE PUSH1 0x14 DUP1 SLOAD PUSH1 0x1 PUSH1 0x1 PUSH1 0xA0 SHL SUB SWAP1 DUP2 AND PUSH1 0x0 SWAP1 DUP2 MSTORE PUSH1 0x3 PUSH1 0x20 MSTORE DUP4 DUP2 KECCAK256 SLOAD ADDRESS DUP1 DUP4 MSTORE DUP6 DUP4 KECCAK256 DUP1 SLOAD SWAP1 SWAP3 ADD DUP3 SSTORE SWAP4 SLOAD SWAP1 SWAP3 AND DUP2 MSTORE SWAP3 DUP4 KECCAK256 DUP4 SWAP1 SSTORE PUSH1 0x22 DUP1 SLOAD DUP13 SWAP1 SUB SWAP1 SSTORE SWAP1 DUP3 MSTORE SLOAD SWAP1 SWAP6 POP PUSH2 0x328D SWAP5 POP SWAP3 POP DUP6 SWAP2 POP POP PUSH2 0x2BE1 JUMP JUMPDEST PUSH1 0x23 DUP1 SLOAD DUP3 ADD SWAP1 SSTORE SWAP1 POP PUSH2 0x32A1 ADDRESS DUP3 PUSH2 0x364B JUMP JUMPDEST POP POP PUSH1 0x14 DUP1 SLOAD PUSH1 0xFF PUSH1 0xA8 SHL NOT AND SWAP1 SSTORE POP POP JUMP JUMPDEST PUSH1 0x0 DUP2 DUP4 PUSH2 0x3303 JUMPI PUSH1 0x40 MLOAD PUSH3 0x461BCD PUSH1 0xE5 SHL DUP2 MSTORE PUSH1 0x20 PUSH1 0x4 DUP3 ADD DUP2 DUP2 MSTORE DUP4 MLOAD PUSH1 0x24 DUP5 ADD MSTORE DUP4 MLOAD SWAP1 SWAP3 DUP4 SWAP3 PUSH1 0x44 SWAP1 SWAP2 ADD SWAP2 SWAP1 DUP6 ADD SWAP1 DUP1 DUP4 DUP4 PUSH1 0x0 DUP4 ISZERO PUSH2 0x28E2 JUMPI DUP2 DUP2 ADD MLOAD DUP4 DUP3 ADD MSTORE PUSH1 0x20 ADD PUSH2 0x28CA JUMP JUMPDEST POP PUSH1 0x0 DUP4 DUP6 DUP2 PUSH2 0x330F JUMPI INVALID JUMPDEST DIV SWAP6 SWAP5 POP POP POP POP POP JUMP JUMPDEST PUSH1 0x40 DUP1 MLOAD PUSH1 0x2 DUP1 DUP3 MSTORE PUSH1 0x60 DUP1 DUP4 ADD DUP5 MSTORE SWAP3 PUSH1 0x20 DUP4 ADD SWAP1 DUP1 CALLDATASIZE DUP4 CALLDATACOPY ADD SWAP1 POP POP SWAP1 POP ADDRESS DUP2 PUSH1 0x0 DUP2 MLOAD DUP2 LT PUSH2 0x3347 JUMPI INVALID JUMPDEST PUSH1 0x1 PUSH1 0x1 PUSH1 0xA0 SHL SUB SWAP3 DUP4 AND PUSH1 0x20 SWAP2 DUP3 MUL SWAP3 SWAP1 SWAP3 ADD ADD MSTORE PUSH1 0x13 SLOAD DUP3 MLOAD SWAP2 AND SWAP1 DUP3 SWAP1 PUSH1 0x1 SWAP1 DUP2 LT PUSH2 0x3372 JUMPI INVALID JUMPDEST PUSH1 0x1 PUSH1 0x1 PUSH1 0xA0 SHL SUB SWAP3 DUP4 AND PUSH1 0x20 SWAP2 DUP3 MUL SWAP3 SWAP1 SWAP3 ADD ADD MSTORE PUSH1 0x11 SLOAD PUSH2 0x3398 SWAP2 ADDRESS SWAP2 AND DUP5 PUSH2 0x2481 JUMP JUMPDEST PUSH1 0x11 SLOAD PUSH1 0x14 SLOAD PUSH1 0x40 MLOAD PUSH4 0x5C11D795 PUSH1 0xE0 SHL DUP2 MSTORE PUSH1 0x4 DUP2 ADD DUP6 DUP2 MSTORE PUSH1 0x0 PUSH1 0x24 DUP4 ADD DUP2 SWAP1 MSTORE PUSH1 0x1 PUSH1 0x1 PUSH1 0xA0 SHL SUB SWAP4 DUP5 AND PUSH1 0x64 DUP5 ADD DUP2 SWAP1 MSTORE TIMESTAMP PUSH1 0x84 DUP6 ADD DUP2 SWAP1 MSTORE PUSH1 0xA0 PUSH1 0x44 DUP7 ADD SWAP1 DUP2 MSTORE DUP9 MLOAD PUSH1 0xA4 DUP8 ADD MSTORE DUP9 MLOAD SWAP7 SWAP1 SWAP8 AND SWAP7 PUSH4 0x5C11D795 SWAP7 DUP11 SWAP7 SWAP5 SWAP6 DUP11 SWAP6 SWAP1 SWAP3 SWAP2 PUSH1 0xC4 SWAP1 SWAP2 ADD SWAP1 PUSH1 0x20 DUP1 DUP9 ADD SWAP2 MUL DUP1 DUP4 DUP4 DUP12 JUMPDEST DUP4 DUP2 LT ISZERO PUSH2 0x3425 JUMPI DUP2 DUP2 ADD MLOAD DUP4 DUP3 ADD MSTORE PUSH1 0x20 ADD PUSH2 0x340D JUMP JUMPDEST POP POP POP POP SWAP1 POP ADD SWAP7 POP POP POP POP POP POP POP PUSH1 0x0 PUSH1 0x40 MLOAD DUP1 DUP4 SUB DUP2 PUSH1 0x0 DUP8 DUP1 EXTCODESIZE ISZERO DUP1 ISZERO PUSH2 0x344E JUMPI PUSH1 0x0 DUP1 REVERT JUMPDEST POP GAS CALL ISZERO DUP1 ISZERO PUSH2 0x3462 JUMPI RETURNDATASIZE PUSH1 0x0 DUP1 RETURNDATACOPY RETURNDATASIZE PUSH1 0x0 REVERT JUMPDEST POP POP PUSH1 0x14 SLOAD PUSH1 0x13 SLOAD PUSH1 0x40 DUP1 MLOAD PUSH4 0xA67D2C7 PUSH1 0xE0 SHL DUP2 MSTORE PUSH1 0x1 PUSH1 0x1 PUSH1 0xA0 SHL SUB SWAP3 DUP4 AND PUSH1 0x4 DUP3 ADD MSTORE SWAP1 MLOAD SWAP2 SWAP1 SWAP3 AND SWAP4 POP PUSH4 0xA67D2C7 SWAP3 POP PUSH1 0x24 DUP1 DUP4 ADD SWAP3 PUSH1 0x0 SWAP3 SWAP2 SWAP1 DUP3 SWAP1 SUB ADD DUP2 DUP4 DUP8 DUP1 EXTCODESIZE ISZERO DUP1 ISZERO PUSH2 0x34B7 JUMPI PUSH1 0x0 DUP1 REVERT JUMPDEST POP GAS CALL ISZERO DUP1 ISZERO PUSH2 0x34CB JUMPI RETURNDATASIZE PUSH1 0x0 DUP1 RETURNDATACOPY RETURNDATASIZE PUSH1 0x0 REVERT JUMPDEST POP POP POP POP POP POP JUMP JUMPDEST PUSH1 0x11 SLOAD PUSH2 0x34EB SWAP1 ADDRESS SWAP1 PUSH1 0x1 PUSH1 0x1 PUSH1 0xA0 SHL SUB AND DUP5 PUSH2 0x2481 JUMP JUMPDEST PUSH1 0x13 SLOAD PUSH1 0x11 SLOAD PUSH1 0x40 DUP1 MLOAD PUSH4 0x95EA7B3 PUSH1 0xE0 SHL DUP2 MSTORE PUSH1 0x1 PUSH1 0x1 PUSH1 0xA0 SHL SUB SWAP3 DUP4 AND PUSH1 0x4 DUP3 ADD MSTORE PUSH1 0x24 DUP2 ADD DUP6 SWAP1 MSTORE SWAP1 MLOAD SWAP2 SWAP1 SWAP3 AND SWAP2 PUSH4 0x95EA7B3 SWAP2 PUSH1 0x44 DUP1 DUP4 ADD SWAP3 PUSH1 0x20 SWAP3 SWAP2 SWAP1 DUP3 SWAP1 SUB ADD DUP2 PUSH1 0x0 DUP8 DUP1 EXTCODESIZE ISZERO DUP1 ISZERO PUSH2 0x3544 JUMPI PUSH1 0x0 DUP1 REVERT JUMPDEST POP GAS CALL ISZERO DUP1 ISZERO PUSH2 0x3558 JUMPI RETURNDATASIZE PUSH1 0x0 DUP1 RETURNDATACOPY RETURNDATASIZE PUSH1 0x0 REVERT JUMPDEST POP POP POP POP PUSH1 0x40 MLOAD RETURNDATASIZE PUSH1 0x20 DUP2 LT ISZERO PUSH2 0x356E JUMPI PUSH1 0x0 DUP1 REVERT JUMPDEST POP POP PUSH1 0x11 SLOAD PUSH1 0x13 SLOAD PUSH1 0x1 PUSH1 0x1 PUSH1 0xA0 SHL SUB SWAP2 DUP3 AND SWAP2 PUSH4 0xE8E33700 SWAP2 ADDRESS SWAP2 AND DUP6 DUP6 PUSH1 0x0 DUP1 PUSH2 0x3598 PUSH2 0x1CAC JUMP JUMPDEST TIMESTAMP PUSH1 0x40 MLOAD DUP10 PUSH4 0xFFFFFFFF AND PUSH1 0xE0 SHL DUP2 MSTORE PUSH1 0x4 ADD DUP1 DUP10 PUSH1 0x1 PUSH1 0x1 PUSH1 0xA0 SHL SUB AND DUP2 MSTORE PUSH1 0x20 ADD DUP9 PUSH1 0x1 PUSH1 0x1 PUSH1 0xA0 SHL SUB AND DUP2 MSTORE PUSH1 0x20 ADD DUP8 DUP2 MSTORE PUSH1 0x20 ADD DUP7 DUP2 MSTORE PUSH1 0x20 ADD DUP6 DUP2 MSTORE PUSH1 0x20 ADD DUP5 DUP2 MSTORE PUSH1 0x20 ADD DUP4 PUSH1 0x1 PUSH1 0x1 PUSH1 0xA0 SHL SUB AND DUP2 MSTORE PUSH1 0x20 ADD DUP3 DUP2 MSTORE PUSH1 0x20 ADD SWAP9 POP POP POP POP POP POP POP POP POP PUSH1 0x60 PUSH1 0x40 MLOAD DUP1 DUP4 SUB DUP2 PUSH1 0x0 DUP8 DUP1 EXTCODESIZE ISZERO DUP1 ISZERO PUSH2 0x361B JUMPI PUSH1 0x0 DUP1 REVERT JUMPDEST POP GAS CALL ISZERO DUP1 ISZERO PUSH2 0x362F JUMPI RETURNDATASIZE PUSH1 0x0 DUP1 RETURNDATACOPY RETURNDATASIZE PUSH1 0x0 REVERT JUMPDEST POP POP POP POP PUSH1 0x40 MLOAD RETURNDATASIZE PUSH1 0x60 DUP2 LT ISZERO PUSH2 0x3645 JUMPI PUSH1 0x0 DUP1 REVERT JUMPDEST POP POP POP POP JUMP JUMPDEST PUSH1 0x1 PUSH1 0x1 PUSH1 0xA0 SHL SUB DUP3 AND PUSH2 0x3690 JUMPI PUSH1 0x40 MLOAD PUSH3 0x461BCD PUSH1 0xE5 SHL DUP2 MSTORE PUSH1 0x4 ADD DUP1 DUP1 PUSH1 0x20 ADD DUP3 DUP2 SUB DUP3 MSTORE PUSH1 0x21 DUP2 MSTORE PUSH1 0x20 ADD DUP1 PUSH2 0x398A PUSH1 0x21 SWAP2 CODECOPY PUSH1 0x40 ADD SWAP2 POP POP PUSH1 0x40 MLOAD DUP1 SWAP2 SUB SWAP1 REVERT JUMPDEST PUSH2 0x36CD DUP2 PUSH1 0x40 MLOAD DUP1 PUSH1 0x60 ADD PUSH1 0x40 MSTORE DUP1 PUSH1 0x22 DUP2 MSTORE PUSH1 0x20 ADD PUSH2 0x39DB PUSH1 0x22 SWAP2 CODECOPY PUSH1 0x1 PUSH1 0x1 PUSH1 0xA0 SHL SUB DUP6 AND PUSH1 0x0 SWAP1 DUP2 MSTORE PUSH1 0x3 PUSH1 0x20 MSTORE PUSH1 0x40 SWAP1 KECCAK256 SLOAD SWAP2 SWAP1 PUSH2 0x288E JUMP JUMPDEST PUSH1 0x3 PUSH1 0x0 DUP5 PUSH1 0x1 PUSH1 0x1 PUSH1 0xA0 SHL SUB AND PUSH1 0x1 PUSH1 0x1 PUSH1 0xA0 SHL SUB AND DUP2 MSTORE PUSH1 0x20 ADD SWAP1 DUP2 MSTORE PUSH1 0x20 ADD PUSH1 0x0 KECCAK256 DUP2 SWAP1 SSTORE POP PUSH2 0x371D DUP2 PUSH1 0x40 MLOAD DUP1 PUSH1 0x60 ADD PUSH1 0x40 MSTORE DUP1 PUSH1 0x22 DUP2 MSTORE PUSH1 0x20 ADD PUSH2 0x39DB PUSH1 0x22 SWAP2 CODECOPY PUSH1 0x9 SLOAD SWAP2 SWAP1 PUSH2 0x288E JUMP JUMPDEST PUSH1 0x9 SSTORE PUSH1 0x40 DUP1 MLOAD DUP3 DUP2 MSTORE SWAP1 MLOAD PUSH1 0x0 SWAP2 PUSH1 0x1 PUSH1 0x1 PUSH1 0xA0 SHL SUB DUP6 AND SWAP2 PUSH1 0x0 DUP1 MLOAD PUSH1 0x20 PUSH2 0x3900 DUP4 CODECOPY DUP2 MLOAD SWAP2 MSTORE SWAP2 DUP2 SWAP1 SUB PUSH1 0x20 ADD SWAP1 LOG3 POP POP JUMP JUMPDEST PUSH1 0x40 MLOAD DUP1 PUSH2 0x1E0 ADD PUSH1 0x40 MSTORE DUP1 PUSH1 0xF SWAP1 PUSH1 0x20 DUP3 MUL DUP1 CALLDATASIZE DUP4 CALLDATACOPY POP SWAP2 SWAP3 SWAP2 POP POP JUMP JUMPDEST PUSH1 0x40 MLOAD DUP1 PUSH2 0x480 ADD PUSH1 0x40 MSTORE DUP1 PUSH1 0x24 SWAP1 PUSH1 0x20 DUP3 MUL DUP1 CALLDATASIZE DUP4 CALLDATACOPY POP SWAP2 SWAP3 SWAP2 POP POP JUMP INVALID TIMESTAMP GASLIMIT POP ORIGIN ADDRESS GASPRICE KECCAK256 PUSH21 0x72616E736665722066726F6D20746865207A65726F KECCAK256 PUSH2 0x6464 PUSH19 0x65737342455032303A20617070726F76652066 PUSH19 0x6F6D20746865207A65726F2061646472657373 0x4F PUSH24 0x6E61626C653A206E6577206F776E65722069732074686520 PUSH27 0x65726F206164647265737342455032303A207472616E7366657220 PUSH2 0x6D6F PUSH22 0x6E74206578636565647320616C6C6F77616E6365436C PUSH2 0x696D KECCAK256 GASPRICE KECCAK256 SLOAD PUSH9 0x657265206973206E6F KECCAK256 PUSH19 0x657761726420616D6F756E746E6F7420656E6F PUSH22 0x67687420696E737572616E636520706F6F6C2062616C PUSH2 0x6E63 PUSH6 0x536166654D61 PUSH21 0x683A206D756C7469706C69636174696F6E206F7665 PUSH19 0x666C6F774F776E61626C653A2063616C6C6572 KECCAK256 PUSH10 0x73206E6F742074686520 PUSH16 0x776E657242455032303A207472616E73 PUSH7 0x657220616D6F75 PUSH15 0x7420657863656564732062616C616E PUSH4 0x655F7365 PUSH15 0x646572206D75737420626520677265 PUSH2 0x7465 PUSH19 0x206F7220657175616C73207468616E206C696D PUSH10 0x7431DDF252AD1BE2C89B PUSH10 0xC2B068FC378DAA952BA7 CALL PUSH4 0xC4A11628 CREATE2 GAS 0x4D CREATE2 0x23 0xB3 0xEF TIMESTAMP GASLIMIT POP ORIGIN ADDRESS GASPRICE KECCAK256 PUSH21 0x72616E7366657220746F20746865207A65726F2061 PUSH5 0x6472657373 0x4D PUSH10 0x6E7461626C653A206361 PUSH13 0x6C6572206973206E6F74207468 PUSH6 0x206D696E7465 PUSH19 0x42455032303A2064656372656173656420616C PUSH13 0x6F77616E63652062656C6F7720 PUSH27 0x65726F42455032303A206275726E2066726F6D20746865207A6572 PUSH16 0x206164647265737370726573616C6520 PUSH21 0x6F74616C206D757374206265206C657373206F7220 PUSH6 0x7175616C7320 PUSH21 0x68616E206C696D69743242455032303A206275726E KECCAK256 PUSH2 0x6D6F PUSH22 0x6E7420657863656564732062616C616E636542455032 ADDRESS GASPRICE KECCAK256 PUSH2 0x7070 PUSH19 0x6F766520746F20746865207A65726F20616464 PUSH19 0x657373A2646970667358221220753E4B169568 0xAC PUSH13 0xFB8A0579CE50CA61A19892B820 DUP14 0xBD 0x27 0xCD 0xDA 0x21 0xBC 0xC7 POP 0x29 XOR PUSH5 0x736F6C6343 STOP MOD 0xC STOP CALLER "
        },
        "gasEstimates": {
          "creation": {
            "codeDepositCost": "2986400",
            "executionCost": "infinite",
            "totalCost": "infinite"
          },
          "external": {
            "USDTAddress()": "1169",
            "USDTDecimals()": "1108",
            "allowance(address,address)": "1339",
            "approve(address,uint256)": "infinite",
            "balanceOf(address)": "1210",
            "claimReward()": "infinite",
            "communityAddress()": "1104",
            "communityFee()": "1109",
            "decimals()": "1104",
            "decreaseAllowance(address,uint256)": "infinite",
            "disableMinter(address)": "infinite",
            "emergencyWithdraw(address)": "infinite",
            "feeAddress()": "1105",
            "getOwner()": "1161",
            "getReward(address)": "infinite",
            "getStakerInfo(address)": "infinite",
            "getTotalFee()": "3506",
            "getUnlockAmount(address)": "infinite",
            "increaseAllowance(address,uint256)": "infinite",
            "insuranceFee()": "1066",
            "insurancePoolBalance()": "1065",
            "insurancePoolBurnt()": "1089",
            "isMinters(address)": "1225",
            "liquidityFee()": "1088",
            "minLiquidityAmount()": "1132",
            "mint(uint256)": "infinite",
            "minters(uint256)": "2104",
            "name()": "infinite",
            "owner()": "1106",
            "pancakeswapMDUSDTPair()": "1149",
            "pancakeswapRouter()": "1170",
            "presale(uint256,address)": "infinite",
            "presaleEndTime()": "1133",
            "presaleLimit1()": "1110",
            "presaleLimit2()": "1110",
            "presalePrice()": "1068",
            "presaleTotal()": "1065",
            "presaledTotal()": "1109",
            "presales(address)": "2907",
            "referralRate()": "1132",
            "renounceOwnership()": "infinite",
            "rewardFee()": "1131",
            "rewardPoolBalance()": "1066",
            "rewardedTotalBalance()": "1131",
            "setFees(uint256[4])": "infinite",
            "setInitialAddresses(address,address,address,address,address)": "infinite",
            "setMinter(address)": "infinite",
            "setMinters(address[])": "infinite",
            "setReferralRate(uint256)": "infinite",
            "setSwapAndLiquifyEnabled(bool)": "infinite",
            "storeAddress()": "1170",
            "swapAndLiquifyEnabled()": "1139",
            "symbol()": "infinite",
            "totalSupply()": "1067",
            "transfer(address,uint256)": "infinite",
            "transferFrom(address,address,uint256)": "infinite",
            "transferOwnership(address)": "infinite",
            "unlock()": "infinite"
          },
          "internal": {
            "_approve(address,address,uint256)": "infinite",
            "_burn(address,uint256)": "infinite",
            "_burnFrom(address,uint256)": "infinite",
            "_mint(address,uint256)": "infinite",
            "_transfer(address,address,uint256)": "infinite",
            "addLiquidity(uint256,uint256)": "infinite",
            "redeem()": "infinite",
            "redeemable()": "3253",
            "swapAndLiquify()": "infinite",
            "swapTokensForUSDT(uint256)": "infinite"
          }
        },
        "methodIdentifiers": {
          "USDTAddress()": "ff920c74",
          "USDTDecimals()": "fd64e078",
          "allowance(address,address)": "dd62ed3e",
          "approve(address,uint256)": "095ea7b3",
          "balanceOf(address)": "70a08231",
          "claimReward()": "b88a802f",
          "communityAddress()": "86e476dd",
          "communityFee()": "8961be6b",
          "decimals()": "313ce567",
          "decreaseAllowance(address,uint256)": "a457c2d7",
          "disableMinter(address)": "21a5ceee",
          "emergencyWithdraw(address)": "6ff1c9bc",
          "feeAddress()": "41275358",
          "getOwner()": "893d20e8",
          "getReward(address)": "c00007b0",
          "getStakerInfo(address)": "733bdef0",
          "getTotalFee()": "7ae316d0",
          "getUnlockAmount(address)": "3033bed8",
          "increaseAllowance(address,uint256)": "39509351",
          "insuranceFee()": "97c4fac7",
          "insurancePoolBalance()": "c9559786",
          "insurancePoolBurnt()": "8e33f3ed",
          "isMinters(address)": "ada3da15",
          "liquidityFee()": "98118cb4",
          "minLiquidityAmount()": "4d9e9e09",
          "mint(uint256)": "a0712d68",
          "minters(uint256)": "8623ec7b",
          "name()": "06fdde03",
          "owner()": "8da5cb5b",
          "pancakeswapMDUSDTPair()": "9a258a79",
          "pancakeswapRouter()": "db6754ed",
          "presale(uint256,address)": "7c2003e3",
          "presaleEndTime()": "249b7c19",
          "presaleLimit1()": "c8f0c577",
          "presaleLimit2()": "71e8ec68",
          "presalePrice()": "000e7fa8",
          "presaleTotal()": "dc1d85f6",
          "presaledTotal()": "da7a3687",
          "presales(address)": "efcd708f",
          "referralRate()": "a053ce1f",
          "renounceOwnership()": "715018a6",
          "rewardFee()": "8b424267",
          "rewardPoolBalance()": "7a5c08ae",
          "rewardedTotalBalance()": "baedc8d6",
          "setFees(uint256[4])": "6b74b211",
          "setInitialAddresses(address,address,address,address,address)": "49371b19",
          "setMinter(address)": "fca3b5aa",
          "setMinters(address[])": "547d0096",
          "setReferralRate(uint256)": "ca4863fd",
          "setSwapAndLiquifyEnabled(bool)": "c49b9a80",
          "storeAddress()": "f2c4da93",
          "swapAndLiquifyEnabled()": "4a74bb02",
          "symbol()": "95d89b41",
          "totalSupply()": "18160ddd",
          "transfer(address,uint256)": "a9059cbb",
          "transferFrom(address,address,uint256)": "23b872dd",
          "transferOwnership(address)": "f2fde38b",
          "unlock()": "a69df4b5"
        }
      },
      "storageLayout": {
        "storage": [
          {
            "astId": 314,
            "contract": "contracts/DMToken.sol:DMToken",
            "label": "_owner",
            "offset": 0,
            "slot": "0",
            "type": "t_address"
          },
          {
            "astId": 426,
            "contract": "contracts/DMToken.sol:DMToken",
            "label": "isMinters",
            "offset": 0,
            "slot": "1",
            "type": "t_mapping(t_address,t_bool)"
          },
          {
            "astId": 429,
            "contract": "contracts/DMToken.sol:DMToken",
            "label": "minters",
            "offset": 0,
            "slot": "2",
            "type": "t_array(t_address)dyn_storage"
          },
          {
            "astId": 1265,
            "contract": "contracts/DMToken.sol:DMToken",
            "label": "_balances",
            "offset": 0,
            "slot": "3",
            "type": "t_mapping(t_address,t_uint256)"
          },
          {
            "astId": 1271,
            "contract": "contracts/DMToken.sol:DMToken",
            "label": "_allowances",
            "offset": 0,
            "slot": "4",
            "type": "t_mapping(t_address,t_mapping(t_address,t_uint256))"
          },
          {
            "astId": 1282,
            "contract": "contracts/DMToken.sol:DMToken",
            "label": "_decimals",
            "offset": 0,
            "slot": "5",
            "type": "t_uint8"
          },
          {
            "astId": 1285,
            "contract": "contracts/DMToken.sol:DMToken",
            "label": "_symbol",
            "offset": 0,
            "slot": "6",
            "type": "t_string_storage"
          },
          {
            "astId": 1288,
            "contract": "contracts/DMToken.sol:DMToken",
            "label": "_name",
            "offset": 0,
            "slot": "7",
            "type": "t_string_storage"
          },
          {
            "astId": 1295,
            "contract": "contracts/DMToken.sol:DMToken",
            "label": "_maxSupply",
            "offset": 0,
            "slot": "8",
            "type": "t_uint256"
          },
          {
            "astId": 1304,
            "contract": "contracts/DMToken.sol:DMToken",
            "label": "_totalSupply",
            "offset": 0,
            "slot": "9",
            "type": "t_uint256"
          },
          {
            "astId": 1307,
            "contract": "contracts/DMToken.sol:DMToken",
            "label": "liquidityFee",
            "offset": 0,
            "slot": "10",
            "type": "t_uint256"
          },
          {
            "astId": 1310,
            "contract": "contracts/DMToken.sol:DMToken",
            "label": "rewardFee",
            "offset": 0,
            "slot": "11",
            "type": "t_uint256"
          },
          {
            "astId": 1313,
            "contract": "contracts/DMToken.sol:DMToken",
            "label": "insuranceFee",
            "offset": 0,
            "slot": "12",
            "type": "t_uint256"
          },
          {
            "astId": 1316,
            "contract": "contracts/DMToken.sol:DMToken",
            "label": "communityFee",
            "offset": 0,
            "slot": "13",
            "type": "t_uint256"
          },
          {
            "astId": 1318,
            "contract": "contracts/DMToken.sol:DMToken",
            "label": "communityAddress",
            "offset": 0,
            "slot": "14",
            "type": "t_address"
          },
          {
            "astId": 1320,
            "contract": "contracts/DMToken.sol:DMToken",
            "label": "feeAddress",
            "offset": 0,
            "slot": "15",
            "type": "t_address"
          },
          {
            "astId": 1323,
            "contract": "contracts/DMToken.sol:DMToken",
            "label": "swapAndLiquifyEnabled",
            "offset": 20,
            "slot": "15",
            "type": "t_bool"
          },
          {
            "astId": 1328,
            "contract": "contracts/DMToken.sol:DMToken",
            "label": "minLiquidityAmount",
            "offset": 0,
            "slot": "16",
            "type": "t_uint256"
          },
          {
            "astId": 1330,
            "contract": "contracts/DMToken.sol:DMToken",
            "label": "pancakeswapRouter",
            "offset": 0,
            "slot": "17",
            "type": "t_contract(IPancakeswapRouter)1217"
          },
          {
            "astId": 1332,
            "contract": "contracts/DMToken.sol:DMToken",
            "label": "pancakeswapMDUSDTPair",
            "offset": 0,
            "slot": "18",
            "type": "t_address"
          },
          {
            "astId": 1334,
            "contract": "contracts/DMToken.sol:DMToken",
            "label": "USDTAddress",
            "offset": 0,
            "slot": "19",
            "type": "t_address"
          },
          {
            "astId": 1336,
            "contract": "contracts/DMToken.sol:DMToken",
            "label": "storeAddress",
            "offset": 0,
            "slot": "20",
            "type": "t_address"
          },
          {
            "astId": 1338,
            "contract": "contracts/DMToken.sol:DMToken",
            "label": "inSwapAndLiquify",
            "offset": 20,
            "slot": "20",
            "type": "t_bool"
          },
          {
            "astId": 1352,
            "contract": "contracts/DMToken.sol:DMToken",
            "label": "inRedeem",
            "offset": 21,
            "slot": "20",
            "type": "t_bool"
          },
          {
            "astId": 1366,
            "contract": "contracts/DMToken.sol:DMToken",
            "label": "startTime",
            "offset": 0,
            "slot": "21",
            "type": "t_uint256"
          },
          {
            "astId": 2362,
            "contract": "contracts/DMToken.sol:DMToken",
            "label": "rewardPoolBalance",
            "offset": 0,
            "slot": "22",
            "type": "t_uint256"
          },
          {
            "astId": 2364,
            "contract": "contracts/DMToken.sol:DMToken",
            "label": "rewardedTotalBalance",
            "offset": 0,
            "slot": "23",
            "type": "t_uint256"
          },
          {
            "astId": 2367,
            "contract": "contracts/DMToken.sol:DMToken",
            "label": "USDTDecimals",
            "offset": 0,
            "slot": "24",
            "type": "t_uint256"
          },
          {
            "astId": 2377,
            "contract": "contracts/DMToken.sol:DMToken",
            "label": "presalePrice",
            "offset": 0,
            "slot": "25",
            "type": "t_uint256"
          },
          {
            "astId": 2393,
            "contract": "contracts/DMToken.sol:DMToken",
            "label": "presaleLimit1",
            "offset": 0,
            "slot": "26",
            "type": "t_uint256"
          },
          {
            "astId": 2409,
            "contract": "contracts/DMToken.sol:DMToken",
            "label": "presaleLimit2",
            "offset": 0,
            "slot": "27",
            "type": "t_uint256"
          },
          {
            "astId": 2411,
            "contract": "contracts/DMToken.sol:DMToken",
            "label": "presaledTotal",
            "offset": 0,
            "slot": "28",
            "type": "t_uint256"
          },
          {
            "astId": 2423,
            "contract": "contracts/DMToken.sol:DMToken",
            "label": "presaleTotal",
            "offset": 0,
            "slot": "29",
            "type": "t_uint256"
          },
          {
            "astId": 2426,
            "contract": "contracts/DMToken.sol:DMToken",
            "label": "presaleEndTime",
            "offset": 0,
            "slot": "30",
            "type": "t_uint256"
          },
          {
            "astId": 2437,
            "contract": "contracts/DMToken.sol:DMToken",
            "label": "presales",
            "offset": 0,
            "slot": "31",
            "type": "t_mapping(t_address,t_struct(Presale)2433_storage)"
          },
          {
            "astId": 2505,
            "contract": "contracts/DMToken.sol:DMToken",
            "label": "unlockSteps",
            "offset": 0,
            "slot": "32",
            "type": "t_array(t_array(t_uint256)dyn_storage)dyn_storage"
          },
          {
            "astId": 2508,
            "contract": "contracts/DMToken.sol:DMToken",
            "label": "referralRate",
            "offset": 0,
            "slot": "33",
            "type": "t_uint256"
          },
          {
            "astId": 3218,
            "contract": "contracts/DMToken.sol:DMToken",
            "label": "insurancePoolBalance",
            "offset": 0,
            "slot": "34",
            "type": "t_uint256"
          },
          {
            "astId": 3220,
            "contract": "contracts/DMToken.sol:DMToken",
            "label": "insurancePoolBurnt",
            "offset": 0,
            "slot": "35",
            "type": "t_uint256"
          }
        ],
        "types": {
          "t_address": {
            "encoding": "inplace",
            "label": "address",
            "numberOfBytes": "20"
          },
          "t_array(t_address)dyn_storage": {
            "base": "t_address",
            "encoding": "dynamic_array",
            "label": "address[]",
            "numberOfBytes": "32"
          },
          "t_array(t_array(t_uint256)dyn_storage)dyn_storage": {
            "base": "t_array(t_uint256)dyn_storage",
            "encoding": "dynamic_array",
            "label": "uint256[][]",
            "numberOfBytes": "32"
          },
          "t_array(t_uint256)dyn_storage": {
            "base": "t_uint256",
            "encoding": "dynamic_array",
            "label": "uint256[]",
            "numberOfBytes": "32"
          },
          "t_bool": {
            "encoding": "inplace",
            "label": "bool",
            "numberOfBytes": "1"
          },
          "t_contract(IPancakeswapRouter)1217": {
            "encoding": "inplace",
            "label": "contract IPancakeswapRouter",
            "numberOfBytes": "20"
          },
          "t_mapping(t_address,t_bool)": {
            "encoding": "mapping",
            "key": "t_address",
            "label": "mapping(address => bool)",
            "numberOfBytes": "32",
            "value": "t_bool"
          },
          "t_mapping(t_address,t_mapping(t_address,t_uint256))": {
            "encoding": "mapping",
            "key": "t_address",
            "label": "mapping(address => mapping(address => uint256))",
            "numberOfBytes": "32",
            "value": "t_mapping(t_address,t_uint256)"
          },
          "t_mapping(t_address,t_struct(Presale)2433_storage)": {
            "encoding": "mapping",
            "key": "t_address",
            "label": "mapping(address => struct DMToken.Presale)",
            "numberOfBytes": "32",
            "value": "t_struct(Presale)2433_storage"
          },
          "t_mapping(t_address,t_uint256)": {
            "encoding": "mapping",
            "key": "t_address",
            "label": "mapping(address => uint256)",
            "numberOfBytes": "32",
            "value": "t_uint256"
          },
          "t_string_storage": {
            "encoding": "bytes",
            "label": "string",
            "numberOfBytes": "32"
          },
          "t_struct(Presale)2433_storage": {
            "encoding": "inplace",
            "label": "struct DMToken.Presale",
            "members": [
              {
                "astId": 2428,
                "contract": "contracts/DMToken.sol:DMToken",
                "label": "amount",
                "offset": 0,
                "slot": "0",
                "type": "t_uint256"
              },
              {
                "astId": 2430,
                "contract": "contracts/DMToken.sol:DMToken",
                "label": "unlocked",
                "offset": 0,
                "slot": "1",
                "type": "t_uint256"
              },
              {
                "astId": 2432,
                "contract": "contracts/DMToken.sol:DMToken",
                "label": "rewards",
                "offset": 0,
                "slot": "2",
                "type": "t_uint256"
              }
            ],
            "numberOfBytes": "96"
          },
          "t_uint256": {
            "encoding": "inplace",
            "label": "uint256",
            "numberOfBytes": "32"
          },
          "t_uint8": {
            "encoding": "inplace",
            "label": "uint8",
            "numberOfBytes": "1"
          }
        }
      },
      "userdoc": {
        "kind": "user",
        "methods": {},
        "version": 1
      }
    }
  }
}