{
  "_format": "hh-sol-artifact-1",
  "contractName": "DMToken",
  "sourceName": "contracts/DMToken.sol",
  "abi": [
    {
      "inputs": [],
      "stateMutability": "nonpayable",
      "type": "constructor"
    },
    {
      "anonymous": false,
      "inputs": [
        {
          "indexed": true,
          "internalType": "address",
          "name": "owner",
          "type": "address"
        },
        {
          "indexed": true,
          "internalType": "address",
          "name": "spender",
          "type": "address"
        },
        {
          "indexed": false,
          "internalType": "uint256",
          "name": "value",
          "type": "uint256"
        }
      ],
      "name": "Approval",
      "type": "event"
    },
    {
      "anonymous": false,
      "inputs": [
        {
          "indexed": false,
          "internalType": "address",
          "name": "user",
          "type": "address"
        },
        {
          "indexed": false,
          "internalType": "uint256",
          "name": "amount",
          "type": "uint256"
        }
      ],
      "name": "ClaimReward",
      "type": "event"
    },
    {
      "anonymous": false,
      "inputs": [
        {
          "indexed": true,
          "internalType": "address",
          "name": "previousOwner",
          "type": "address"
        },
        {
          "indexed": true,
          "internalType": "address",
          "name": "newOwner",
          "type": "address"
        }
      ],
      "name": "OwnershipTransferred",
      "type": "event"
    },
    {
      "anonymous": false,
      "inputs": [
        {
          "indexed": false,
          "internalType": "address",
          "name": "user",
          "type": "address"
        },
        {
          "indexed": false,
          "internalType": "uint256",
          "name": "usdtAmount",
          "type": "uint256"
        },
        {
          "indexed": false,
          "internalType": "uint256",
          "name": "dMtokenAmount",
          "type": "uint256"
        }
      ],
      "name": "Presaled",
      "type": "event"
    },
    {
      "anonymous": false,
      "inputs": [
        {
          "indexed": true,
          "internalType": "address",
          "name": "newMinter",
          "type": "address"
        },
        {
          "indexed": false,
          "internalType": "bool",
          "name": "isMinter",
          "type": "bool"
        }
      ],
      "name": "SetMinters",
      "type": "event"
    },
    {
      "anonymous": false,
      "inputs": [
        {
          "indexed": true,
          "internalType": "address",
          "name": "from",
          "type": "address"
        },
        {
          "indexed": true,
          "internalType": "address",
          "name": "to",
          "type": "address"
        },
        {
          "indexed": false,
          "internalType": "uint256",
          "name": "value",
          "type": "uint256"
        }
      ],
      "name": "Transfer",
      "type": "event"
    },
    {
      "anonymous": false,
      "inputs": [
        {
          "indexed": false,
          "internalType": "address",
          "name": "user",
          "type": "address"
        },
        {
          "indexed": false,
          "internalType": "uint256",
          "name": "amount",
          "type": "uint256"
        },
        {
          "indexed": false,
          "internalType": "uint256",
          "name": "timeStamp",
          "type": "uint256"
        }
      ],
      "name": "Unlocked",
      "type": "event"
    },
    {
      "inputs": [],
      "name": "USDTAddress",
      "outputs": [
        {
          "internalType": "address",
          "name": "",
          "type": "address"
        }
      ],
      "stateMutability": "view",
      "type": "function"
    },
    {
      "inputs": [],
      "name": "USDTDecimals",
      "outputs": [
        {
          "internalType": "uint256",
          "name": "",
          "type": "uint256"
        }
      ],
      "stateMutability": "view",
      "type": "function"
    },
    {
      "inputs": [
        {
          "internalType": "address",
          "name": "owner",
          "type": "address"
        },
        {
          "internalType": "address",
          "name": "spender",
          "type": "address"
        }
      ],
      "name": "allowance",
      "outputs": [
        {
          "internalType": "uint256",
          "name": "",
          "type": "uint256"
        }
      ],
      "stateMutability": "view",
      "type": "function"
    },
    {
      "inputs": [
        {
          "internalType": "address",
          "name": "spender",
          "type": "address"
        },
        {
          "internalType": "uint256",
          "name": "amount",
          "type": "uint256"
        }
      ],
      "name": "approve",
      "outputs": [
        {
          "internalType": "bool",
          "name": "",
          "type": "bool"
        }
      ],
      "stateMutability": "nonpayable",
      "type": "function"
    },
    {
      "inputs": [
        {
          "internalType": "address",
          "name": "account",
          "type": "address"
        }
      ],
      "name": "balanceOf",
      "outputs": [
        {
          "internalType": "uint256",
          "name": "",
          "type": "uint256"
        }
      ],
      "stateMutability": "view",
      "type": "function"
    },
    {
      "inputs": [],
      "name": "claimReward",
      "outputs": [],
      "stateMutability": "nonpayable",
      "type": "function"
    },
    {
      "inputs": [],
      "name": "communityAddress",
      "outputs": [
        {
          "internalType": "address",
          "name": "",
          "type": "address"
        }
      ],
      "stateMutability": "view",
      "type": "function"
    },
    {
      "inputs": [],
      "name": "communityFee",
      "outputs": [
        {
          "internalType": "uint256",
          "name": "",
          "type": "uint256"
        }
      ],
      "stateMutability": "view",
      "type": "function"
    },
    {
      "inputs": [],
      "name": "decimals",
      "outputs": [
        {
          "internalType": "uint8",
          "name": "",
          "type": "uint8"
        }
      ],
      "stateMutability": "view",
      "type": "function"
    },
    {
      "inputs": [
        {
          "internalType": "address",
          "name": "spender",
          "type": "address"
        },
        {
          "internalType": "uint256",
          "name": "subtractedValue",
          "type": "uint256"
        }
      ],
      "name": "decreaseAllowance",
      "outputs": [
        {
          "internalType": "bool",
          "name": "",
          "type": "bool"
        }
      ],
      "stateMutability": "nonpayable",
      "type": "function"
    },
    {
      "inputs": [
        {
          "internalType": "address",
          "name": "_minter",
          "type": "address"
        }
      ],
      "name": "disableMinter",
      "outputs": [],
      "stateMutability": "nonpayable",
      "type": "function"
    },
    {
      "inputs": [
        {
          "internalType": "address",
          "name": "token",
          "type": "address"
        }
      ],
      "name": "emergencyWithdraw",
      "outputs": [],
      "stateMutability": "nonpayable",
      "type": "function"
    },
    {
      "inputs": [],
      "name": "feeAddress",
      "outputs": [
        {
          "internalType": "address",
          "name": "",
          "type": "address"
        }
      ],
      "stateMutability": "view",
      "type": "function"
    },
    {
      "inputs": [],
      "name": "getOwner",
      "outputs": [
        {
          "internalType": "address",
          "name": "",
          "type": "address"
        }
      ],
      "stateMutability": "view",
      "type": "function"
    },
    {
      "inputs": [
        {
          "internalType": "address",
          "name": "account",
          "type": "address"
        }
      ],
      "name": "getReward",
      "outputs": [
        {
          "internalType": "uint256",
          "name": "rewardBalance",
          "type": "uint256"
        }
      ],
      "stateMutability": "view",
      "type": "function"
    },
    {
      "inputs": [
        {
          "internalType": "address",
          "name": "account",
          "type": "address"
        }
      ],
      "name": "getStakerInfo",
      "outputs": [
        {
          "internalType": "bool",
          "name": "isEnd",
          "type": "bool"
        },
        {
          "internalType": "uint256[15]",
          "name": "params",
          "type": "uint256[15]"
        },
        {
          "internalType": "uint256[36]",
          "name": "pools",
          "type": "uint256[36]"
        },
        {
          "internalType": "bool",
          "name": "isFirst",
          "type": "bool"
        }
      ],
      "stateMutability": "view",
      "type": "function"
    },
    {
      "inputs": [],
      "name": "getTotalFee",
      "outputs": [
        {
          "internalType": "uint256",
          "name": "",
          "type": "uint256"
        }
      ],
      "stateMutability": "view",
      "type": "function"
    },
    {
      "inputs": [
        {
          "internalType": "address",
          "name": "account",
          "type": "address"
        }
      ],
      "name": "getUnlockAmount",
      "outputs": [
        {
          "internalType": "uint256",
          "name": "",
          "type": "uint256"
        }
      ],
      "stateMutability": "view",
      "type": "function"
    },
    {
      "inputs": [
        {
          "internalType": "address",
          "name": "spender",
          "type": "address"
        },
        {
          "internalType": "uint256",
          "name": "addedValue",
          "type": "uint256"
        }
      ],
      "name": "increaseAllowance",
      "outputs": [
        {
          "internalType": "bool",
          "name": "",
          "type": "bool"
        }
      ],
      "stateMutability": "nonpayable",
      "type": "function"
    },
    {
      "inputs": [],
      "name": "insuranceFee",
      "outputs": [
        {
          "internalType": "uint256",
          "name": "",
          "type": "uint256"
        }
      ],
      "stateMutability": "view",
      "type": "function"
    },
    {
      "inputs": [],
      "name": "insurancePoolBalance",
      "outputs": [
        {
          "internalType": "uint256",
          "name": "",
          "type": "uint256"
        }
      ],
      "stateMutability": "view",
      "type": "function"
    },
    {
      "inputs": [],
      "name": "insurancePoolBurnt",
      "outputs": [
        {
          "internalType": "uint256",
          "name": "",
          "type": "uint256"
        }
      ],
      "stateMutability": "view",
      "type": "function"
    },
    {
      "inputs": [
        {
          "internalType": "address",
          "name": "",
          "type": "address"
        }
      ],
      "name": "isMinters",
      "outputs": [
        {
          "internalType": "bool",
          "name": "",
          "type": "bool"
        }
      ],
      "stateMutability": "view",
      "type": "function"
    },
    {
      "inputs": [],
      "name": "liquidityFee",
      "outputs": [
        {
          "internalType": "uint256",
          "name": "",
          "type": "uint256"
        }
      ],
      "stateMutability": "view",
      "type": "function"
    },
    {
      "inputs": [],
      "name": "minLiquidityAmount",
      "outputs": [
        {
          "internalType": "uint256",
          "name": "",
          "type": "uint256"
        }
      ],
      "stateMutability": "view",
      "type": "function"
    },
    {
      "inputs": [
        {
          "internalType": "uint256",
          "name": "amount",
          "type": "uint256"
        }
      ],
      "name": "mint",
      "outputs": [
        {
          "internalType": "bool",
          "name": "",
          "type": "bool"
        }
      ],
      "stateMutability": "nonpayable",
      "type": "function"
    },
    {
      "inputs": [
        {
          "internalType": "uint256",
          "name": "",
          "type": "uint256"
        }
      ],
      "name": "minters",
      "outputs": [
        {
          "internalType": "address",
          "name": "",
          "type": "address"
        }
      ],
      "stateMutability": "view",
      "type": "function"
    },
    {
      "inputs": [],
      "name": "name",
      "outputs": [
        {
          "internalType": "string",
          "name": "",
          "type": "string"
        }
      ],
      "stateMutability": "view",
      "type": "function"
    },
    {
      "inputs": [],
      "name": "owner",
      "outputs": [
        {
          "internalType": "address",
          "name": "",
          "type": "address"
        }
      ],
      "stateMutability": "view",
      "type": "function"
    },
    {
      "inputs": [],
      "name": "pancakeswapMDUSDTPair",
      "outputs": [
        {
          "internalType": "address",
          "name": "",
          "type": "address"
        }
      ],
      "stateMutability": "view",
      "type": "function"
    },
    {
      "inputs": [],
      "name": "pancakeswapRouter",
      "outputs": [
        {
          "internalType": "contract IPancakeswapRouter",
          "name": "",
          "type": "address"
        }
      ],
      "stateMutability": "view",
      "type": "function"
    },
    {
      "inputs": [
        {
          "internalType": "uint256",
          "name": "_usdt",
          "type": "uint256"
        },
        {
          "internalType": "address",
          "name": "referral",
          "type": "address"
        }
      ],
      "name": "presale",
      "outputs": [],
      "stateMutability": "nonpayable",
      "type": "function"
    },
    {
      "inputs": [],
      "name": "presaleEndTime",
      "outputs": [
        {
          "internalType": "uint256",
          "name": "",
          "type": "uint256"
        }
      ],
      "stateMutability": "view",
      "type": "function"
    },
    {
      "inputs": [],
      "name": "presaleLimit1",
      "outputs": [
        {
          "internalType": "uint256",
          "name": "",
          "type": "uint256"
        }
      ],
      "stateMutability": "view",
      "type": "function"
    },
    {
      "inputs": [],
      "name": "presaleLimit2",
      "outputs": [
        {
          "internalType": "uint256",
          "name": "",
          "type": "uint256"
        }
      ],
      "stateMutability": "view",
      "type": "function"
    },
    {
      "inputs": [],
      "name": "presalePrice",
      "outputs": [
        {
          "internalType": "uint256",
          "name": "",
          "type": "uint256"
        }
      ],
      "stateMutability": "view",
      "type": "function"
    },
    {
      "inputs": [],
      "name": "presaleTotal",
      "outputs": [
        {
          "internalType": "uint256",
          "name": "",
          "type": "uint256"
        }
      ],
      "stateMutability": "view",
      "type": "function"
    },
    {
      "inputs": [],
      "name": "presaledTotal",
      "outputs": [
        {
          "internalType": "uint256",
          "name": "",
          "type": "uint256"
        }
      ],
      "stateMutability": "view",
      "type": "function"
    },
    {
      "inputs": [
        {
          "internalType": "address",
          "name": "",
          "type": "address"
        }
      ],
      "name": "presales",
      "outputs": [
        {
          "internalType": "uint256",
          "name": "amount",
          "type": "uint256"
        },
        {
          "internalType": "uint256",
          "name": "unlocked",
          "type": "uint256"
        },
        {
          "internalType": "uint256",
          "name": "rewards",
          "type": "uint256"
        }
      ],
      "stateMutability": "view",
      "type": "function"
    },
    {
      "inputs": [],
      "name": "referralRate",
      "outputs": [
        {
          "internalType": "uint256",
          "name": "",
          "type": "uint256"
        }
      ],
      "stateMutability": "view",
      "type": "function"
    },
    {
      "inputs": [],
      "name": "renounceOwnership",
      "outputs": [],
      "stateMutability": "nonpayable",
      "type": "function"
    },
    {
      "inputs": [],
      "name": "rewardFee",
      "outputs": [
        {
          "internalType": "uint256",
          "name": "",
          "type": "uint256"
        }
      ],
      "stateMutability": "view",
      "type": "function"
    },
    {
      "inputs": [],
      "name": "rewardPoolBalance",
      "outputs": [
        {
          "internalType": "uint256",
          "name": "",
          "type": "uint256"
        }
      ],
      "stateMutability": "view",
      "type": "function"
    },
    {
      "inputs": [],
      "name": "rewardedTotalBalance",
      "outputs": [
        {
          "internalType": "uint256",
          "name": "",
          "type": "uint256"
        }
      ],
      "stateMutability": "view",
      "type": "function"
    },
    {
      "inputs": [
        {
          "internalType": "uint256[4]",
          "name": "fees",
          "type": "uint256[4]"
        }
      ],
      "name": "setFees",
      "outputs": [],
      "stateMutability": "nonpayable",
      "type": "function"
    },
    {
      "inputs": [
        {
          "internalType": "address",
          "name": "_feeAddress",
          "type": "address"
        },
        {
          "internalType": "address",
          "name": "_communityAddress",
          "type": "address"
        },
        {
          "internalType": "address",
          "name": "_RouterAddress",
          "type": "address"
        },
        {
          "internalType": "address",
          "name": "_USDTAddress",
          "type": "address"
        },
        {
          "internalType": "address",
          "name": "_storeAddress",
          "type": "address"
        }
      ],
      "name": "setInitialAddresses",
      "outputs": [],
      "stateMutability": "nonpayable",
      "type": "function"
    },
    {
      "inputs": [
        {
          "internalType": "address",
          "name": "_newMinter",
          "type": "address"
        }
      ],
      "name": "setMinter",
      "outputs": [],
      "stateMutability": "nonpayable",
      "type": "function"
    },
    {
      "inputs": [
        {
          "internalType": "address[]",
          "name": "_minters",
          "type": "address[]"
        }
      ],
      "name": "setMinters",
      "outputs": [],
      "stateMutability": "nonpayable",
      "type": "function"
    },
    {
      "inputs": [
        {
          "internalType": "uint256",
          "name": "_referralRate",
          "type": "uint256"
        }
      ],
      "name": "setReferralRate",
      "outputs": [],
      "stateMutability": "nonpayable",
      "type": "function"
    },
    {
      "inputs": [
        {
          "internalType": "bool",
          "name": "enable",
          "type": "bool"
        }
      ],
      "name": "setSwapAndLiquifyEnabled",
      "outputs": [],
      "stateMutability": "nonpayable",
      "type": "function"
    },
    {
      "inputs": [],
      "name": "storeAddress",
      "outputs": [
        {
          "internalType": "address",
          "name": "",
          "type": "address"
        }
      ],
      "stateMutability": "view",
      "type": "function"
    },
    {
      "inputs": [],
      "name": "swapAndLiquifyEnabled",
      "outputs": [
        {
          "internalType": "bool",
          "name": "",
          "type": "bool"
        }
      ],
      "stateMutability": "view",
      "type": "function"
    },
    {
      "inputs": [],
      "name": "symbol",
      "outputs": [
        {
          "internalType": "string",
          "name": "",
          "type": "string"
        }
      ],
      "stateMutability": "view",
      "type": "function"
    },
    {
      "inputs": [],
      "name": "totalSupply",
      "outputs": [
        {
          "internalType": "uint256",
          "name": "",
          "type": "uint256"
        }
      ],
      "stateMutability": "view",
      "type": "function"
    },
    {
      "inputs": [
        {
          "internalType": "address",
          "name": "recipient",
          "type": "address"
        },
        {
          "internalType": "uint256",
          "name": "amount",
          "type": "uint256"
        }
      ],
      "name": "transfer",
      "outputs": [
        {
          "internalType": "bool",
          "name": "",
          "type": "bool"
        }
      ],
      "stateMutability": "nonpayable",
      "type": "function"
    },
    {
      "inputs": [
        {
          "internalType": "address",
          "name": "sender",
          "type": "address"
        },
        {
          "internalType": "address",
          "name": "recipient",
          "type": "address"
        },
        {
          "internalType": "uint256",
          "name": "amount",
          "type": "uint256"
        }
      ],
      "name": "transferFrom",
      "outputs": [
        {
          "internalType": "bool",
          "name": "",
          "type": "bool"
        }
      ],
      "stateMutability": "nonpayable",
      "type": "function"
    },
    {
      "inputs": [
        {
          "internalType": "address",
          "name": "newOwner",
          "type": "address"
        }
      ],
      "name": "transferOwnership",
      "outputs": [],
      "stateMutability": "nonpayable",
      "type": "function"
    },
    {
      "inputs": [],
      "name": "unlock",
      "outputs": [],
      "stateMutability": "nonpayable",
      "type": "function"
    }
  ],
  "bytecode": "0x6005805460ff1916601217905560c06040526002608081905261444d60f01b60a090815262000032916006919062000255565b50604080518082019091526007808252662226aa37b5b2b760c91b602090920191825262000061918162000255565b506b033b2e3c9fd0803ce80000006008556acecb8f27f4200f3a0000006009556005600a818155600b8290556002600c556003600d55600f8054600160a01b60ff60a01b19909116179055683635c9adc5dea0000060105560126018556611c37937e080006019819055915460ff16900a680ad78ebc5ac62000008102829004601a5568a2a15d09519be000000204601b5560055460ff16600a0a630ee6b28002601d5563619a6d00601e9081556040805161012081018252600860e082019081526234bc00610100830152815281518083018352601281526276a700602080830191909152808301919091528251808401845293845262c5c100848201528183019390935281518083018352602d8152630114db0081850152606082015281518083018352603e8152630163f50081850152608082015281518083018352605081526301b30f008185015260a08201528151808301909252606482526301da9c008284015260c0810191909152620001dd91906007620002da565b50600c602155348015620001f057600080fd5b506000620001fd62000251565b600080546001600160a01b0319166001600160a01b0383169081178255604051929350917f8be0079c531659141344cd1fd0a4f28419497f9722a3daafe3b4186f6b6457e0908290a35042601555620003cc565b3390565b828054600181600116156101000203166002900490600052602060002090601f016020900481019282601f106200029857805160ff1916838001178555620002c8565b82800160010185558215620002c8579182015b82811115620002c8578251825591602001919060010190620002ab565b50620002d692915062000334565b5090565b82805482825590600052602060002090810192821562000326579160200282015b82811115620003265782516200031590839060026200034b565b5091602001919060010190620002fb565b50620002d692915062000388565b5b80821115620002d6576000815560010162000335565b828054828255906000526020600020908101928215620002c85791602002820182811115620002c8578251825591602001919060010190620002ab565b80821115620002d65760006200039f8282620003a9565b5060010162000388565b5080546000825590600052602060002090810190620003c9919062000334565b50565b613a5480620003dc6000396000f3fe608060405234801561001057600080fd5b506004361061038d5760003560e01c80638da5cb5b116101de578063c00007b01161010f578063dc1d85f6116100ad578063f2fde38b1161007c578063f2fde38b14610a19578063fca3b5aa14610a3f578063fd64e07814610a65578063ff920c7414610a6d5761038d565b8063dc1d85f614610997578063dd62ed3e1461099f578063efcd708f146109cd578063f2c4da9314610a115761038d565b8063c9559786116100e9578063c955978614610962578063ca4863fd1461096a578063da7a368714610987578063db6754ed1461098f5761038d565b8063c00007b014610915578063c49b9a801461093b578063c8f0c5771461095a5761038d565b8063a0712d681161017c578063a9059cbb11610156578063a9059cbb146108b3578063ada3da15146108df578063b88a802f14610905578063baedc8d61461090d5761038d565b8063a0712d6814610862578063a457c2d71461087f578063a69df4b5146108ab5761038d565b806397c4fac7116101b857806397c4fac71461084257806398118cb41461084a5780639a258a7914610852578063a053ce1f1461085a5761038d565b80638da5cb5b1461082a5780638e33f3ed1461083257806395d89b411461083a5761038d565b8063547d0096116102c35780637a5c08ae1161026157806386e476dd1161023057806386e476dd1461080a578063893d20e8146108125780638961be6b1461081a5780638b424267146108225761038d565b80637a5c08ae146107b15780637ae316d0146107b95780637c2003e3146107c15780638623ec7b146107ed5761038d565b806370a082311161029d57806370a08231146106de578063715018a61461070457806371e8ec681461070c578063733bdef0146107145761038d565b8063547d0096146105c35780636b74b211146106665780636ff1c9bc146106b85761038d565b80633033bed811610330578063412753581161030a578063412753581461054757806349371b191461056b5780634a74bb02146105b35780634d9e9e09146105bb5761038d565b80633033bed8146104d7578063313ce567146104fd578063395093511461051b5761038d565b806318160ddd1161036c57806318160ddd1461046957806321a5ceee1461047157806323b872dd14610499578063249b7c19146104cf5761038d565b80620e7fa81461039257806306fdde03146103ac578063095ea7b314610429575b600080fd5b61039a610a75565b60408051918252519081900360200190f35b6103b4610a7b565b6040805160208082528351818301528351919283929083019185019080838360005b838110156103ee5781810151838201526020016103d6565b50505050905090810190601f16801561041b5780820380516001836020036101000a031916815260200191505b509250505060405180910390f35b6104556004803603604081101561043f57600080fd5b506001600160a01b038135169060200135610b11565b604080519115158252519081900360200190f35b61039a610b2f565b6104976004803603602081101561048757600080fd5b50356001600160a01b0316610b35565b005b610455600480360360608110156104af57600080fd5b506001600160a01b03813581169160208101359091169060400135610be3565b61039a610c6a565b61039a600480360360208110156104ed57600080fd5b50356001600160a01b0316610c70565b610505610d6c565b6040805160ff9092168252519081900360200190f35b6104556004803603604081101561053157600080fd5b506001600160a01b038135169060200135610d75565b61054f610dc3565b604080516001600160a01b039092168252519081900360200190f35b610497600480360360a081101561058157600080fd5b506001600160a01b03813581169160208101358216916040820135811691606081013582169160809091013516610dd2565b610455610f8e565b61039a610f9e565b610497600480360360208110156105d957600080fd5b8101906020810181356401000000008111156105f457600080fd5b82018360208201111561060657600080fd5b8035906020019184602083028401116401000000008311171561062857600080fd5b919080806020026020016040519081016040528093929190818152602001838360200280828437600092019190915250929550610fa4945050505050565b6104976004803603608081101561067c57600080fd5b81019080806080019060048060200260405190810160405280929190826004602002808284376000920191909152509194506110309350505050565b610497600480360360208110156106ce57600080fd5b50356001600160a01b03166110a6565b61039a600480360360208110156106f457600080fd5b50356001600160a01b0316611213565b61049761122e565b61039a6112d0565b61073a6004803603602081101561072a57600080fd5b50356001600160a01b03166112d6565b604051841515815260208101846101e080838360005b83811015610768578181015183820152602001610750565b5050505090500183602460200280838360005b8381101561079357818101518382015260200161077b565b50505050905001821515815260200194505050505060405180910390f35b61039a61188b565b61039a611891565b610497600480360360408110156107d757600080fd5b50803590602001356001600160a01b03166118a3565b61054f6004803603602081101561080357600080fd5b5035611c5b565b61054f611c82565b61054f611c91565b61039a611ca0565b61039a611ca6565b61054f611cac565b61039a611cbb565b6103b4611cc1565b61039a611d22565b61039a611d28565b61054f611d2e565b61039a611d3d565b6104556004803603602081101561087857600080fd5b5035611d43565b6104556004803603604081101561089557600080fd5b506001600160a01b038135169060200135611dd2565b610497611e3a565b610455600480360360408110156108c957600080fd5b506001600160a01b038135169060200135611f4a565b610455600480360360208110156108f557600080fd5b50356001600160a01b0316611f5e565b610497611f73565b61039a612104565b61039a6004803603602081101561092b57600080fd5b50356001600160a01b031661210a565b6104976004803603602081101561095157600080fd5b503515156121be565b61039a612234565b61039a61223a565b6104976004803603602081101561098057600080fd5b5035612240565b61039a61229d565b61054f6122a3565b61039a6122b2565b61039a600480360360408110156109b557600080fd5b506001600160a01b03813581169160200135166122b8565b6109f3600480360360208110156109e357600080fd5b50356001600160a01b03166122e3565b60408051938452602084019290925282820152519081900360600190f35b61054f612304565b61049760048036036020811015610a2f57600080fd5b50356001600160a01b0316612313565b61049760048036036020811015610a5557600080fd5b50356001600160a01b0316612377565b61039a612468565b61054f61246e565b60195481565b60078054604080516020601f6002600019610100600188161502019095169490940493840181900481028201810190925282815260609390929091830182828015610b075780601f10610adc57610100808354040283529160200191610b07565b820191906000526020600020905b815481529060010190602001808311610aea57829003601f168201915b5050505050905090565b6000610b25610b1e61247d565b8484612481565b5060015b92915050565b60095490565b610b3d61247d565b6000546001600160a01b03908116911614610b8d576040805162461bcd60e51b8152602060048201819052602482015260008051602061388d833981519152604482015290519081900360640190fd5b6001600160a01b0381166000818152600160209081526040808320805460ff191690558051928352517f4579ec50a131ee14d9ab0dfeddceba4be2fb6907f7326c52237be3fab060ba7f9281900390910190a250565b6000610bf084848461256d565b610c6084610bfc61247d565b610c5b85604051806060016040528060288152602001613801602891396001600160a01b038a16600090815260046020526040812090610c3a61247d565b6001600160a01b03168152602081019190915260400160002054919061288e565b612481565b5060019392505050565b601e5481565b60006001600160a01b038216610c8857506000610d67565b6020544290600019015b8015610d605760208181548110610ca557fe5b90600052602060002001600181548110610cbb57fe5b906000526020600020015460155401821115610d5757601f6000856001600160a01b03166001600160a01b0316815260200190815260200160002060010154606460208381548110610d0957fe5b90600052602060002001600081548110610d1f57fe5b60009182526020808320909101546001600160a01b0389168352601f9091526040909120540281610d4c57fe5b040392505050610d67565b60001901610c92565b5060009150505b919050565b60055460ff1690565b6000610b25610d8261247d565b84610c5b8560046000610d9361247d565b6001600160a01b03908116825260208083019390935260409182016000908120918c168152925290205490612925565b600f546001600160a01b031681565b610dda61247d565b6000546001600160a01b03908116911614610e2a576040805162461bcd60e51b8152602060048201819052602482015260008051602061388d833981519152604482015290519081900360640190fd5b600f80546001600160a01b038088166001600160a01b031992831617909255600e8054878416908316179055601380548584169083161790556011805492861692909116821790556040805163c45a015560e01b8152905185929163c45a0155916004808301926020929190829003018186803b158015610eaa57600080fd5b505afa158015610ebe573d6000803e3d6000fd5b505050506040513d6020811015610ed457600080fd5b5051601354604080516364e329cb60e11b81523060048201526001600160a01b0392831660248201529051919092169163c9c653969160448083019260209291908290030181600087803b158015610f2b57600080fd5b505af1158015610f3f573d6000803e3d6000fd5b505050506040513d6020811015610f5557600080fd5b5051601280546001600160a01b039283166001600160a01b03199182161790915560148054949092169316929092179091555050505050565b600f54600160a01b900460ff1681565b60105481565b610fac61247d565b6000546001600160a01b03908116911614610ffc576040805162461bcd60e51b8152602060048201819052602482015260008051602061388d833981519152604482015290519081900360640190fd5b60005b815181101561102c5761102482828151811061101757fe5b6020026020010151612377565b600101610fff565b5050565b61103861247d565b6000546001600160a01b03908116911614611088576040805162461bcd60e51b8152602060048201819052602482015260008051602061388d833981519152604482015290519081900360640190fd5b8051600a556020810151600b556040810151600c5560600151600d55565b6110ae61247d565b6000546001600160a01b039081169116146110fe576040805162461bcd60e51b8152602060048201819052602482015260008051602061388d833981519152604482015290519081900360640190fd5b6000816001600160a01b03166370a08231306040518263ffffffff1660e01b815260040180826001600160a01b0316815260200191505060206040518083038186803b15801561114d57600080fd5b505afa158015611161573d6000803e3d6000fd5b505050506040513d602081101561117757600080fd5b505190506001600160a01b03821663a9059cbb611192611cac565b836040518363ffffffff1660e01b815260040180836001600160a01b0316815260200182815260200192505050602060405180830381600087803b1580156111d957600080fd5b505af11580156111ed573d6000803e3d6000fd5b505050506040513d602081101561120357600080fd5b5050600060168190556022555050565b6001600160a01b031660009081526003602052604090205490565b61123661247d565b6000546001600160a01b03908116911614611286576040805162461bcd60e51b8152602060048201819052602482015260008051602061388d833981519152604482015290519081900360640190fd5b600080546040516001600160a01b03909116907f8be0079c531659141344cd1fd0a4f28419497f9722a3daafe3b4186f6b6457e0908390a3600080546001600160a01b0319169055565b601b5481565b60006112e0613753565b6112e8613772565b6001600160a01b0384166000908152601f6020526040812054601e54808552421194506001908061131b57601a5461131e565b60005b60018301928690600f811061132f57fe5b6020020152601b54600183019290829003908690600f811061134d57fe5b6020020152601d5460018301928690600f811061136657fe5b60200201526113748761210a565b60018301928690600f811061138557fe5b602090810291909101919091526001600160a01b03881660009081526003909152604090205460018301928690600f81106113bc57fe5b60200201526001600160a01b0387161561144e57601354604080516370a0823160e01b81526001600160a01b038a81166004830152915191909216916370a08231916024808301926020929190829003018186803b15801561141d57600080fd5b505afa158015611431573d6000803e3d6000fd5b505050506040513d602081101561144757600080fd5b5051611451565b60005b60018301928690600f811061146257fe5b602002015261147087610c70565b60018301928690600f811061148157fe5b602002015260165460018301928690600f811061149a57fe5b602002015260175460018301928690600f81106114b357fe5b602002015260225460018301928690600f81106114cc57fe5b602002015260235460018301928690600f81106114e557fe5b60209081029190910191909152601354601254604080516370a0823160e01b81526001600160a01b039283166004820152905191909216926370a082319260248082019391829003018186803b15801561153e57600080fd5b505afa158015611552573d6000803e3d6000fd5b505050506040513d602081101561156857600080fd5b505160018301928690600f811061157b57fe5b602090810291909101919091526012546001600160a01b031660009081526003909152604090205460018301928690600f81106115b457fe5b602090810291909101919091523060009081526003909152604090205460018301928690600f81106115e257fe5b602002015260009150815b6002548110156118005760008060006002848154811061160957fe5b6000918252602090912001546040805163c345315360e01b81526001600160a01b038e811660048301529151919092169163c3453153916024808301926080929190829003018186803b15801561165f57600080fd5b505afa158015611673573d6000803e3d6000fd5b505050506040513d608081101561168957600080fd5b5080516020820151604090920151600189019891955091935090915083908990602481106116b357fe5b6020020152600186019582908990602481106116cb57fe5b6020020152600186019581908990602481106116e357fe5b602002015260028054859081106116f657fe5b6000918252602091829020015460408051630106395f60e01b815290516001600160a01b0390921692630106395f92600480840193829003018186803b15801561173f57600080fd5b505afa158015611753573d6000803e3d6000fd5b505050506040513d602081101561176957600080fd5b50516040805163313ce56760e01b815290516001600160a01b039092169163313ce56791600480820192602092909190829003018186803b1580156117ad57600080fd5b505afa1580156117c1573d6000803e3d6000fd5b505050506040513d60208110156117d757600080fd5b5051600187019660ff909116908990602481106117f057fe5b60200201525050506001016115ed565b5060125460408051630dfe168160e01b8152905130926001600160a01b031691630dfe1681916004808301926020929190829003018186803b15801561184557600080fd5b505afa158015611859573d6000803e3d6000fd5b505050506040513d602081101561186f57600080fd5b5051969895975093956001600160a01b03169093149392505050565b60165481565b600d54600b54600c54600a5401010190565b6019543390600090670de0b6b3a76400008502816118bd57fe5b0490506001600160a01b03821661191b576040805162461bcd60e51b815260206004820152601d60248201527f5f73656e6465722063616e2774206265207a65726f2061646472657373000000604482015290519081900360640190fd5b80601d5411801561192d5750601e5442105b61196e576040805162461bcd60e51b815260206004820152600d60248201526c1c1c995cd85b1948195b991959609a1b604482015290519081900360640190fd5b6001600160a01b0382166000908152601f6020526040902054601a5490820110156119ca5760405162461bcd60e51b815260040180806020018281038252602d8152602001806138d3602d913960400191505060405180910390fd5b6001600160a01b0382166000908152601f6020526040902054601b549082011115611a265760405162461bcd60e51b81526004018080602001828103825260308152602001806139ab6030913960400191505060405180910390fd5b601354600f54604080516323b872dd60e01b81526001600160a01b038681166004830152928316602482015260448101889052905191909216916323b872dd9160648083019260209291908290030181600087803b158015611a8757600080fd5b505af1158015611a9b573d6000803e3d6000fd5b505050506040513d6020811015611ab157600080fd5b50611abe90508282612986565b6001600160a01b03831615611be757611af683611af16064611aeb60215486612aa690919063ffffffff16565b90612aff565b612986565b611b106064611aeb60215484612aa690919063ffffffff16565b6001600160a01b0384166000908152601f6020526040902080549091019055602154611b4490606490611aeb908490612aa6565b601d8054919091039055602154611b6390606490611aeb908490612aa6565b601c805490910190556021547ff0abe27de28fcb91718e6302b9813c494ef6d8a617b38c71b44d6f70be3a5f2a908490611ba590606490611aeb908990612aa6565b611bbf6064611aeb60215487612aa690919063ffffffff16565b604080516001600160a01b039094168452602084019290925282820152519081900360600190a15b6001600160a01b0382166000818152601f6020908152604091829020805485019055601d80548590039055601c80548501905581519283528201869052818101839052517ff0abe27de28fcb91718e6302b9813c494ef6d8a617b38c71b44d6f70be3a5f2a9181900360600190a150505050565b60028181548110611c6857fe5b6000918252602090912001546001600160a01b0316905081565b600e546001600160a01b031681565b6000611c9b611cac565b905090565b600d5481565b600b5481565b6000546001600160a01b031690565b60235481565b60068054604080516020601f6002600019610100600188161502019095169490940493840181900481028201810190925282815260609390929091830182828015610b075780601f10610adc57610100808354040283529160200191610b07565b600c5481565b600a5481565b6012546001600160a01b031681565b60215481565b33600090815260016020819052604082205460ff1615151480611d7e5750611d69611cac565b6001600160a01b0316336001600160a01b0316145b611db95760405162461bcd60e51b81526004018080602001828103825260228152602001806139436022913960400191505060405180910390fd5b611dca611dc461247d565b83612986565b506001919050565b6000610b25611ddf61247d565b84610c5b856040518060600160405280602581526020016139656025913960046000611e0961247d565b6001600160a01b03908116825260208083019390935260409182016000908120918d1681529252902054919061288e565b336000611e4682610c70565b90506001600160a01b038216611e9a576040805162461bcd60e51b815260206004820152601460248201527373656e6465722063616e2774206265207a65726f60601b604482015290519081900360640190fd5b60008111611ee7576040805162461bcd60e51b81526020600482015260156024820152745f756e6c6f636b416d6f756e74206973207a65726f60581b604482015290519081900360640190fd5b6001600160a01b0382166000818152601f6020908152604091829020600101805485019055815192835282018390524282820152517f3f2f29fa02cc34566ac167b446be0be9e0254cac18eda93b2dfe6a7a7c8affb99181900360600190a15050565b6000610b25611f5761247d565b848461256d565b60016020526000908152604090205460ff1681565b336000611f7f8261210a565b90506001600160a01b038216611fd3576040805162461bcd60e51b815260206004820152601460248201527373656e6465722063616e2774206265207a65726f60601b604482015290519081900360640190fd5b600081116120125760405162461bcd60e51b81526004018080602001828103825260218152602001806138296021913960400191505060405180910390fd5b6013546040805163a9059cbb60e01b81526001600160a01b038581166004830152602482018590529151919092169163a9059cbb9160448083019260209291908290030181600087803b15801561206857600080fd5b505af115801561207c573d6000803e3d6000fd5b505050506040513d602081101561209257600080fd5b50506001600160a01b0382166000818152601f602090815260409182902060020180548501905560168054859003905560178054850190558151928352820183905280517fba8de60c3403ec381d1d484652ea1980e3c3e56359195c92525bff4ce47ad98e9281900390910190a15050565b60175481565b6000601c546000148061212457506001600160a01b038216155b1561213157506000610d67565b601c546001600160a01b0383166000908152601f602052604090205460175460165461216d9392611aeb92909161216791612925565b90612aa6565b6001600160a01b0383166000908152601f60205260409020600201549091508111156121b6576001600160a01b0382166000908152601f60205260409020600201549003610d67565b506000919050565b6121c661247d565b6000546001600160a01b03908116911614612216576040805162461bcd60e51b8152602060048201819052602482015260008051602061388d833981519152604482015290519081900360640190fd5b600f8054911515600160a01b0260ff60a01b19909216919091179055565b601a5481565b60225481565b61224861247d565b6000546001600160a01b03908116911614612298576040805162461bcd60e51b8152602060048201819052602482015260008051602061388d833981519152604482015290519081900360640190fd5b602155565b601c5481565b6011546001600160a01b031681565b601d5481565b6001600160a01b03918216600090815260046020908152604080832093909416825291909152205490565b601f6020526000908152604090208054600182015460029092015490919083565b6014546001600160a01b031681565b61231b61247d565b6000546001600160a01b0390811691161461236b576040805162461bcd60e51b8152602060048201819052602482015260008051602061388d833981519152604482015290519081900360640190fd5b61237481612b41565b50565b61237f61247d565b6000546001600160a01b039081169116146123cf576040805162461bcd60e51b8152602060048201819052602482015260008051602061388d833981519152604482015290519081900360640190fd5b6001600160a01b0381166000818152600160208181526040808420805460ff19168417905560028054808501825594527f405787fa12a823e0f2b7631cc41b3ba8828b3321ca811111fa75cd3aa3bb5ace90930180546001600160a01b03191685179055825191825291517f4579ec50a131ee14d9ab0dfeddceba4be2fb6907f7326c52237be3fab060ba7f929181900390910190a250565b60185481565b6013546001600160a01b031681565b3390565b6001600160a01b0383166124c65760405162461bcd60e51b81526004018080602001828103825260248152602001806137b76024913960400191505060405180910390fd5b6001600160a01b03821661250b5760405162461bcd60e51b81526004018080602001828103825260228152602001806139fd6022913960400191505060405180910390fd5b6001600160a01b03808416600081815260046020908152604080832094871680845294825291829020859055815185815291517f8c5be1e5ebec7d5bd14f71427d1e84f3dd0314c0f7b2291e5b200ac8c7c3b9259281900390910190a3505050565b6001600160a01b0383166125b25760405162461bcd60e51b81526004018080602001828103825260258152602001806137926025913960400191505060405180910390fd5b6001600160a01b0382166125f75760405162461bcd60e51b81526004018080602001828103825260238152602001806139206023913960400191505060405180910390fd5b6001600160a01b0383166000908152601f6020908152604080832080546001909101546003909352922054839283926126399261263391612925565b90612be1565b10156126765760405162461bcd60e51b81526004018080602001828103825260268152602001806138ad6026913960400191505060405180910390fd5b6126b3826040518060600160405280602681526020016138ad602691396001600160a01b038716600090815260036020526040902054919061288e565b6001600160a01b03808616600081815260036020526040902092909255601254811691821491908516148015612789576126fd6064611aeb6126f3611891565b8790606403612aa6565b925060006127276064611aeb600d54600c54600b54600a5401010188612aa690919063ffffffff16565b306000908152600360205260409020549091506127449082612925565b30600081815260036020908152604091829020939093558051848152905191926001600160a01b038b16926000805160206139008339815191529281900390910190a3505b6001600160a01b0385166000908152600360205260409020546127ac9084612925565b6001600160a01b0386166000908152600360205260408120919091556127d130611213565b601454909150600160a01b900460ff161580156127f85750601454600160a81b900460ff16155b8015612802575082155b801561280c575081155b80156128215750600f54600160a01b900460ff165b1561284c57806010541161283757612837612c23565b61283f612f28565b1561284c5761284c612f3f565b856001600160a01b0316876001600160a01b0316600080516020613900833981519152866040518082815260200191505060405180910390a350505050505050565b6000818484111561291d5760405162461bcd60e51b81526004018080602001828103825283818151815260200191508051906020019080838360005b838110156128e25781810151838201526020016128ca565b50505050905090810190601f16801561290f5780820380516001836020036101000a031916815260200191505b509250505060405180910390fd5b505050900390565b60008282018381101561297f576040805162461bcd60e51b815260206004820152601b60248201527f536166654d6174683a206164646974696f6e206f766572666c6f770000000000604482015290519081900360640190fd5b9392505050565b6001600160a01b0382166129e1576040805162461bcd60e51b815260206004820152601f60248201527f42455032303a206d696e7420746f20746865207a65726f206164647265737300604482015290519081900360640190fd5b60085460095410612a2d576040805162461bcd60e51b8152602060048201526011602482015270657863656564206d617820737570706c7960781b604482015290519081900360640190fd5b600954612a3a9082612925565b6009556001600160a01b038216600090815260036020526040902054612a609082612925565b6001600160a01b03831660008181526003602090815260408083209490945583518581529351929391926000805160206139008339815191529281900390910190a35050565b600082612ab557506000610b29565b82820282848281612ac257fe5b041461297f5760405162461bcd60e51b815260040180806020018281038252602181526020018061386c6021913960400191505060405180910390fd5b600061297f83836040518060400160405280601a81526020017f536166654d6174683a206469766973696f6e206279207a65726f0000000000008152506132b4565b6001600160a01b038116612b865760405162461bcd60e51b81526004018080602001828103825260268152602001806137db6026913960400191505060405180910390fd5b600080546040516001600160a01b03808516939216917f8be0079c531659141344cd1fd0a4f28419497f9722a3daafe3b4186f6b6457e091a3600080546001600160a01b0319166001600160a01b0392909216919091179055565b600061297f83836040518060400160405280601e81526020017f536166654d6174683a207375627472616374696f6e206f766572666c6f77000081525061288e565b6014805460ff60a01b1916600160a01b1790553060009081526003602052604081205490612c656002611aeb612c57611891565b600a54611aeb908790612aa6565b90506000612c738383612be1565b601354604080516370a0823160e01b815230600482015290519293506000926001600160a01b03909216916370a0823191602480820192602092909190829003018186803b158015612cc457600080fd5b505afa158015612cd8573d6000803e3d6000fd5b505050506040513d6020811015612cee57600080fd5b50519050612cfb82613319565b601354604080516370a0823160e01b81523060048201529051600092612d819285926001600160a01b03909216916370a0823191602480820192602092909190829003018186803b158015612d4f57600080fd5b505afa158015612d63573d6000803e3d6000fd5b505050506040513d6020811015612d7957600080fd5b505190612be1565b9050612dc1612db8612daa612da26002600a54612aff90919063ffffffff16565b612633611891565b600b54611aeb908590612aa6565b60165490612925565b601655600a54612df590612dec90612dde90612da2906002612aff565b600c54611aeb908590612aa6565b60225490612925565b602255601354600e54600a546001600160a01b039283169263a9059cbb921690612e3690612e2890612da2906002612aff565b600d54611aeb908790612aa6565b6040518363ffffffff1660e01b815260040180836001600160a01b0316815260200182815260200192505050602060405180830381600087803b158015612e7c57600080fd5b505af1158015612e90573d6000803e3d6000fd5b505050506040513d6020811015612ea657600080fd5b5050602254601654601354604080516370a0823160e01b81523060048201529051600094612f079490936126339391926001600160a01b03909116916370a08231916024808301926020929190829003018186803b158015612d4f57600080fd5b9050612f1385826134d3565b50506014805460ff60a01b1916905550505050565b6000601854600a0a620186a0026022541015905090565b6014805460ff60a81b1916600160a81b179055612f5a612f28565b612f955760405162461bcd60e51b815260040180806020018281038252602281526020018061384a6022913960400191505060405180910390fd5b602254600090612fa6906002612aff565b604080516002808252606080830184529394509091602083019080368337505060135482519293506001600160a01b031691839150600090612fe457fe5b60200260200101906001600160a01b031690816001600160a01b031681525050308160018151811061301257fe5b6001600160a01b039283166020918202929092018101919091526013546011546040805163095ea7b360e01b815291851660048301526024820187905251919093169263095ea7b39260448083019391928290030181600087803b15801561307957600080fd5b505af115801561308d573d6000803e3d6000fd5b505050506040513d60208110156130a357600080fd5b50503060009081526003602090815260408083205460115460145492516338ed173960e01b815260048101888152602482018790526001600160a01b0394851660648301819052426084840181905260a0604485019081528a5160a48601528a51969995909716976338ed1739978c978c9694959394919260c49092019187810191028083838b5b8381101561314357818101518382015260200161312b565b505050509050019650505050505050600060405180830381600087803b15801561316c57600080fd5b505af1158015613180573d6000803e3d6000fd5b505050506040513d6000823e601f3d908101601f1916820160405260208110156131a957600080fd5b81019080805160405193929190846401000000008211156131c957600080fd5b9083019060208201858111156131de57600080fd5b82518660208202830111640100000000821117156131fb57600080fd5b82525081516020918201928201910280838360005b83811015613228578181015183820152602001613210565b50505050919091016040908152601480546001600160a01b039081166000908152600360205283812054308083528583208054909201825593549092168152928320839055602280548c900390559082525490955061328d9450925085915050612be1565b602380548201905590506132a1308261364b565b50506014805460ff60a81b191690555050565b600081836133035760405162461bcd60e51b81526020600482018181528351602484015283519092839260449091019190850190808383600083156128e25781810151838201526020016128ca565b50600083858161330f57fe5b0495945050505050565b6040805160028082526060808301845292602083019080368337019050509050308160008151811061334757fe5b6001600160a01b03928316602091820292909201015260135482519116908290600190811061337257fe5b6001600160a01b0392831660209182029290920101526011546133989130911684612481565b601154601454604051635c11d79560e01b8152600481018581526000602483018190526001600160a01b0393841660648401819052426084850181905260a060448601908152885160a487015288519690971696635c11d795968a9694958a9590929160c490910190602080880191028083838b5b8381101561342557818101518382015260200161340d565b505050509050019650505050505050600060405180830381600087803b15801561344e57600080fd5b505af1158015613462573d6000803e3d6000fd5b505060145460135460408051630a67d2c760e01b81526001600160a01b0392831660048201529051919092169350630a67d2c79250602480830192600092919082900301818387803b1580156134b757600080fd5b505af11580156134cb573d6000803e3d6000fd5b505050505050565b6011546134eb9030906001600160a01b031684612481565b6013546011546040805163095ea7b360e01b81526001600160a01b039283166004820152602481018590529051919092169163095ea7b39160448083019260209291908290030181600087803b15801561354457600080fd5b505af1158015613558573d6000803e3d6000fd5b505050506040513d602081101561356e57600080fd5b50506011546013546001600160a01b039182169163e8e33700913091168585600080613598611cac565b426040518963ffffffff1660e01b815260040180896001600160a01b03168152602001886001600160a01b03168152602001878152602001868152602001858152602001848152602001836001600160a01b0316815260200182815260200198505050505050505050606060405180830381600087803b15801561361b57600080fd5b505af115801561362f573d6000803e3d6000fd5b505050506040513d606081101561364557600080fd5b50505050565b6001600160a01b0382166136905760405162461bcd60e51b815260040180806020018281038252602181526020018061398a6021913960400191505060405180910390fd5b6136cd816040518060600160405280602281526020016139db602291396001600160a01b038516600090815260036020526040902054919061288e565b60036000846001600160a01b03166001600160a01b031681526020019081526020016000208190555061371d816040518060600160405280602281526020016139db60229139600954919061288e565b6009556040805182815290516000916001600160a01b038516916000805160206139008339815191529181900360200190a35050565b604051806101e00160405280600f906020820280368337509192915050565b604051806104800160405280602490602082028036833750919291505056fe42455032303a207472616e736665722066726f6d20746865207a65726f206164647265737342455032303a20617070726f76652066726f6d20746865207a65726f20616464726573734f776e61626c653a206e6577206f776e657220697320746865207a65726f206164647265737342455032303a207472616e7366657220616d6f756e74206578636565647320616c6c6f77616e6365436c61696d203a205468657265206973206e6f2072657761726420616d6f756e746e6f7420656e6f7567687420696e737572616e636520706f6f6c2062616c616e6365536166654d6174683a206d756c7469706c69636174696f6e206f766572666c6f774f776e61626c653a2063616c6c6572206973206e6f7420746865206f776e657242455032303a207472616e7366657220616d6f756e7420657863656564732062616c616e63655f73656e646572206d7573742062652067726561746572206f7220657175616c73207468616e206c696d697431ddf252ad1be2c89b69c2b068fc378daa952ba7f163c4a11628f55a4df523b3ef42455032303a207472616e7366657220746f20746865207a65726f20616464726573734d696e7461626c653a2063616c6c6572206973206e6f7420746865206d696e74657242455032303a2064656372656173656420616c6c6f77616e63652062656c6f77207a65726f42455032303a206275726e2066726f6d20746865207a65726f206164647265737370726573616c6520746f74616c206d757374206265206c657373206f7220657175616c73207468616e206c696d69743242455032303a206275726e20616d6f756e7420657863656564732062616c616e636542455032303a20617070726f766520746f20746865207a65726f2061646472657373a2646970667358221220753e4b169568ac6cfb8a0579ce50ca61a19892b8208dbd27cdda21bcc750291864736f6c634300060c0033",
  "linkReferences": {},
  "deployedLinkReferences": {}
}