{
  "_format": "hh-sol-artifact-1",
  "contractName": "Mintable",
  "sourceName": "contracts/DMToken.sol",
  "abi": [
    {
      "anonymous": false,
      "inputs": [
        {
          "indexed": true,
          "internalType": "address",
          "name": "previousOwner",
          "type": "address"
        },
        {
          "indexed": true,
          "internalType": "address",
          "name": "newOwner",
          "type": "address"
        }
      ],
      "name": "OwnershipTransferred",
      "type": "event"
    },
    {
      "anonymous": false,
      "inputs": [
        {
          "indexed": true,
          "internalType": "address",
          "name": "newMinter",
          "type": "address"
        },
        {
          "indexed": false,
          "internalType": "bool",
          "name": "isMinter",
          "type": "bool"
        }
      ],
      "name": "SetMinters",
      "type": "event"
    },
    {
      "inputs": [
        {
          "internalType": "address",
          "name": "_minter",
          "type": "address"
        }
      ],
      "name": "disableMinter",
      "outputs": [],
      "stateMutability": "nonpayable",
      "type": "function"
    },
    {
      "inputs": [
        {
          "internalType": "address",
          "name": "",
          "type": "address"
        }
      ],
      "name": "isMinters",
      "outputs": [
        {
          "internalType": "bool",
          "name": "",
          "type": "bool"
        }
      ],
      "stateMutability": "view",
      "type": "function"
    },
    {
      "inputs": [
        {
          "internalType": "uint256",
          "name": "",
          "type": "uint256"
        }
      ],
      "name": "minters",
      "outputs": [
        {
          "internalType": "address",
          "name": "",
          "type": "address"
        }
      ],
      "stateMutability": "view",
      "type": "function"
    },
    {
      "inputs": [],
      "name": "owner",
      "outputs": [
        {
          "internalType": "address",
          "name": "",
          "type": "address"
        }
      ],
      "stateMutability": "view",
      "type": "function"
    },
    {
      "inputs": [],
      "name": "renounceOwnership",
      "outputs": [],
      "stateMutability": "nonpayable",
      "type": "function"
    },
    {
      "inputs": [
        {
          "internalType": "address",
          "name": "_newMinter",
          "type": "address"
        }
      ],
      "name": "setMinter",
      "outputs": [],
      "stateMutability": "nonpayable",
      "type": "function"
    },
    {
      "inputs": [
        {
          "internalType": "address[]",
          "name": "_minters",
          "type": "address[]"
        }
      ],
      "name": "setMinters",
      "outputs": [],
      "stateMutability": "nonpayable",
      "type": "function"
    },
    {
      "inputs": [
        {
          "internalType": "address",
          "name": "newOwner",
          "type": "address"
        }
      ],
      "name": "transferOwnership",
      "outputs": [],
      "stateMutability": "nonpayable",
      "type": "function"
    }
  ],
  "bytecode": "0x608060405234801561001057600080fd5b50600061001b61006a565b600080546001600160a01b0319166001600160a01b0383169081178255604051929350917f8be0079c531659141344cd1fd0a4f28419497f9722a3daafe3b4186f6b6457e0908290a35061006e565b3390565b6106c38061007d6000396000f3fe608060405234801561001057600080fd5b50600436106100885760003560e01c80638da5cb5b1161005b5780638da5cb5b14610199578063ada3da15146101a1578063f2fde38b146101db578063fca3b5aa1461020157610088565b806321a5ceee1461008d578063547d0096146100b5578063715018a6146101585780638623ec7b14610160575b600080fd5b6100b3600480360360208110156100a357600080fd5b50356001600160a01b0316610227565b005b6100b3600480360360208110156100cb57600080fd5b8101906020810181356401000000008111156100e657600080fd5b8201836020820111156100f857600080fd5b8035906020019184602083028401116401000000008311171561011a57600080fd5b9190808060200260200160405190810160405280939291908181526020018383602002808284376000920191909152509295506102d5945050505050565b6100b3610361565b61017d6004803603602081101561017657600080fd5b5035610403565b604080516001600160a01b039092168252519081900360200190f35b61017d61042a565b6101c7600480360360208110156101b757600080fd5b50356001600160a01b0316610439565b604080519115158252519081900360200190f35b6100b3600480360360208110156101f157600080fd5b50356001600160a01b031661044e565b6100b36004803603602081101561021757600080fd5b50356001600160a01b03166104b2565b61022f6105a3565b6000546001600160a01b0390811691161461027f576040805162461bcd60e51b8152602060048201819052602482015260008051602061066e833981519152604482015290519081900360640190fd5b6001600160a01b0381166000818152600160209081526040808320805460ff191690558051928352517f4579ec50a131ee14d9ab0dfeddceba4be2fb6907f7326c52237be3fab060ba7f9281900390910190a250565b6102dd6105a3565b6000546001600160a01b0390811691161461032d576040805162461bcd60e51b8152602060048201819052602482015260008051602061066e833981519152604482015290519081900360640190fd5b60005b815181101561035d5761035582828151811061034857fe5b60200260200101516104b2565b600101610330565b5050565b6103696105a3565b6000546001600160a01b039081169116146103b9576040805162461bcd60e51b8152602060048201819052602482015260008051602061066e833981519152604482015290519081900360640190fd5b600080546040516001600160a01b03909116907f8be0079c531659141344cd1fd0a4f28419497f9722a3daafe3b4186f6b6457e0908390a3600080546001600160a01b0319169055565b6002818154811061041057fe5b6000918252602090912001546001600160a01b0316905081565b6000546001600160a01b031690565b60016020526000908152604090205460ff1681565b6104566105a3565b6000546001600160a01b039081169116146104a6576040805162461bcd60e51b8152602060048201819052602482015260008051602061066e833981519152604482015290519081900360640190fd5b6104af816105a7565b50565b6104ba6105a3565b6000546001600160a01b0390811691161461050a576040805162461bcd60e51b8152602060048201819052602482015260008051602061066e833981519152604482015290519081900360640190fd5b6001600160a01b0381166000818152600160208181526040808420805460ff19168417905560028054808501825594527f405787fa12a823e0f2b7631cc41b3ba8828b3321ca811111fa75cd3aa3bb5ace90930180546001600160a01b03191685179055825191825291517f4579ec50a131ee14d9ab0dfeddceba4be2fb6907f7326c52237be3fab060ba7f929181900390910190a250565b3390565b6001600160a01b0381166105ec5760405162461bcd60e51b81526004018080602001828103825260268152602001806106486026913960400191505060405180910390fd5b600080546040516001600160a01b03808516939216917f8be0079c531659141344cd1fd0a4f28419497f9722a3daafe3b4186f6b6457e091a3600080546001600160a01b0319166001600160a01b039290921691909117905556fe4f776e61626c653a206e6577206f776e657220697320746865207a65726f20616464726573734f776e61626c653a2063616c6c6572206973206e6f7420746865206f776e6572a2646970667358221220e6d31cae0e0c1b3f7bf941e91e15400fed501d0254dda8253296ade91cb1a24864736f6c634300060c0033",
  "linkReferences": {},
  "deployedLinkReferences": {}
}