{
  "_format": "hh-sol-artifact-1",
  "contractName": "TranshumanCoinStaking",
  "sourceName": "contracts/staking.sol",
  "abi": [
    {
      "inputs": [
        {
          "internalType": "address",
          "name": "_stakeTokenAddress",
          "type": "address"
        },
        {
          "internalType": "address",
          "name": "_marketingWalletAddress",
          "type": "address"
        }
      ],
      "stateMutability": "nonpayable",
      "type": "constructor"
    },
    {
      "anonymous": false,
      "inputs": [
        {
          "indexed": true,
          "internalType": "address",
          "name": "previousOwner",
          "type": "address"
        },
        {
          "indexed": true,
          "internalType": "address",
          "name": "newOwner",
          "type": "address"
        }
      ],
      "name": "OwnershipTransferred",
      "type": "event"
    },
    {
      "inputs": [],
      "name": "marketingWalletAddress",
      "outputs": [
        {
          "internalType": "address",
          "name": "",
          "type": "address"
        }
      ],
      "stateMutability": "view",
      "type": "function"
    },
    {
      "inputs": [],
      "name": "nowUnixTime",
      "outputs": [
        {
          "internalType": "uint256",
          "name": "",
          "type": "uint256"
        }
      ],
      "stateMutability": "view",
      "type": "function"
    },
    {
      "inputs": [],
      "name": "owner",
      "outputs": [
        {
          "internalType": "address",
          "name": "",
          "type": "address"
        }
      ],
      "stateMutability": "view",
      "type": "function"
    },
    {
      "inputs": [
        {
          "internalType": "address",
          "name": "_sender",
          "type": "address"
        }
      ],
      "name": "periodOf",
      "outputs": [
        {
          "internalType": "uint256",
          "name": "",
          "type": "uint256"
        }
      ],
      "stateMutability": "view",
      "type": "function"
    },
    {
      "inputs": [],
      "name": "renounceOwnership",
      "outputs": [],
      "stateMutability": "nonpayable",
      "type": "function"
    },
    {
      "inputs": [
        {
          "internalType": "address",
          "name": "_sender",
          "type": "address"
        }
      ],
      "name": "rewardOf",
      "outputs": [
        {
          "internalType": "uint256",
          "name": "",
          "type": "uint256"
        }
      ],
      "stateMutability": "view",
      "type": "function"
    },
    {
      "inputs": [
        {
          "internalType": "uint256",
          "name": "_period",
          "type": "uint256"
        },
        {
          "internalType": "uint256",
          "name": "_stakes",
          "type": "uint256"
        }
      ],
      "name": "stake",
      "outputs": [],
      "stateMutability": "nonpayable",
      "type": "function"
    },
    {
      "inputs": [
        {
          "internalType": "address",
          "name": "_sender",
          "type": "address"
        }
      ],
      "name": "stakeOf",
      "outputs": [
        {
          "internalType": "uint256",
          "name": "",
          "type": "uint256"
        }
      ],
      "stateMutability": "view",
      "type": "function"
    },
    {
      "inputs": [],
      "name": "stakeTokenAddress",
      "outputs": [
        {
          "internalType": "address",
          "name": "",
          "type": "address"
        }
      ],
      "stateMutability": "view",
      "type": "function"
    },
    {
      "inputs": [
        {
          "internalType": "address",
          "name": "",
          "type": "address"
        }
      ],
      "name": "stakers",
      "outputs": [
        {
          "internalType": "address",
          "name": "stakeAddress",
          "type": "address"
        },
        {
          "internalType": "uint256",
          "name": "stakingDate",
          "type": "uint256"
        },
        {
          "internalType": "uint256",
          "name": "period",
          "type": "uint256"
        },
        {
          "internalType": "uint256",
          "name": "stakes",
          "type": "uint256"
        },
        {
          "internalType": "uint256",
          "name": "rewards",
          "type": "uint256"
        }
      ],
      "stateMutability": "view",
      "type": "function"
    },
    {
      "inputs": [
        {
          "internalType": "address",
          "name": "_sender",
          "type": "address"
        }
      ],
      "name": "stakingDateOf",
      "outputs": [
        {
          "internalType": "uint256",
          "name": "",
          "type": "uint256"
        }
      ],
      "stateMutability": "view",
      "type": "function"
    },
    {
      "inputs": [
        {
          "internalType": "address",
          "name": "newOwner",
          "type": "address"
        }
      ],
      "name": "transferOwnership",
      "outputs": [],
      "stateMutability": "nonpayable",
      "type": "function"
    },
    {
      "inputs": [],
      "name": "unstake",
      "outputs": [],
      "stateMutability": "nonpayable",
      "type": "function"
    }
  ],
  "bytecode": "0x608060405234801561001057600080fd5b50604051610fbf380380610fbf83398101604081905261002f916100cc565b600280546001600160a01b038085166001600160a01b031992831617909255600180549284169290911691909117905561006761006e565b50506100fe565b600380546001600160a01b031916339081179091556040516000907f8be0079c531659141344cd1fd0a4f28419497f9722a3daafe3b4186f6b6457e0908290a3565b80516001600160a01b03811681146100c757600080fd5b919050565b600080604083850312156100de578182fd5b6100e7836100b0565b91506100f5602084016100b0565b90509250929050565b610eb28061010d6000396000f3fe608060405234801561001057600080fd5b50600436106100cf5760003560e01c8063715018a61161008c5780639168ae72116100665780639168ae7214610194578063c25eede51461020d578063d158272d14610213578063f2fde38b1461022657600080fd5b8063715018a6146101685780637b0472f0146101705780638da5cb5b1461018357600080fd5b80630106395f146100d4578063109496ff146101045780631d62ebd9146101255780632def6620146101385780632fc83b2e146101425780634262336014610155575b600080fd5b6002546100e7906001600160a01b031681565b6040516001600160a01b0390911681526020015b60405180910390f35b610117610112366004610d0d565b610239565b6040519081526020016100fb565b610117610133366004610d0d565b610290565b6101406102de565b005b610117610150366004610d0d565b61069b565b610117610163366004610d0d565b6106e9565b610140610737565b61014061017e366004610d54565b6107db565b6003546001600160a01b03166100e7565b6101db6101a2366004610d0d565b600060208190529081526040902080546001820154600283015460038401546004909401546001600160a01b0390931693919290919085565b604080516001600160a01b0390961686526020860194909452928401919091526060830152608082015260a0016100fb565b42610117565b6001546100e7906001600160a01b031681565b610140610234366004610d0d565b6108a5565b336000908152602081905260408120600101546102715760405162461bcd60e51b815260040161026890610dc1565b60405180910390fd5b506001600160a01b031660009081526020819052604090206001015490565b336000908152602081905260408120600101546102bf5760405162461bcd60e51b815260040161026890610dc1565b506001600160a01b031660009081526020819052604090206004015490565b3360009081526020819052604090206001015461034d5760405162461bcd60e51b815260206004820152602760248201527f54686973207374616b696e6720666f7220746869732061646472657373206e6f6044820152661d08195e1a5cdd60ca1b6064820152608401610268565b60006103583361069b565b905042600061036633610239565b90506000610373336106e9565b9050600061038033610290565b9050610399601861039387610e1061090b565b9061090b565b6103a38486610e4f565b10156105ef576203f4806103b78486610e4f565b1061051e576002546001600160a01b031663a9059cbb336103e66127106103e0876124b861090b565b90610978565b6040516001600160e01b031960e085901b1681526001600160a01b0390921660048301526024820152604401602060405180830381600087803b15801561042c57600080fd5b505af1158015610440573d6000803e3d6000fd5b505050506040513d601f19601f820116820180604052508101906104649190610d34565b506002546001546001600160a01b039182169163a9059cbb911661049a6104936127106103e0886124b861090b565b86906109d1565b6040516001600160e01b031960e085901b1681526001600160a01b0390921660048301526024820152604401602060405180830381600087803b1580156104e057600080fd5b505af11580156104f4573d6000803e3d6000fd5b505050506040513d601f19601f820116820180604052508101906105189190610d34565b5061068b565b6002546001600160a01b031663a9059cbb336105426127106103e08761190061090b565b6040516001600160e01b031960e085901b1681526001600160a01b0390921660048301526024820152604401602060405180830381600087803b15801561058857600080fd5b505af115801561059c573d6000803e3d6000fd5b505050506040513d601f19601f820116820180604052508101906105c09190610d34565b506002546001546001600160a01b039182169163a9059cbb911661049a6104936127106103e08861190061090b565b6002546001600160a01b031663a9059cbb3361060b8585610a27565b6040516001600160e01b031960e085901b1681526001600160a01b0390921660048301526024820152604401602060405180830381600087803b15801561065157600080fd5b505af1158015610665573d6000803e3d6000fd5b505050506040513d601f19601f820116820180604052508101906106899190610d34565b505b61069433610a7c565b5050505050565b336000908152602081905260408120600101546106ca5760405162461bcd60e51b815260040161026890610dc1565b506001600160a01b031660009081526020819052604090206002015490565b336000908152602081905260408120600101546107185760405162461bcd60e51b815260040161026890610dc1565b506001600160a01b031660009081526020819052604090206003015490565b6003546001600160a01b031633146107915760405162461bcd60e51b815260206004820181905260248201527f4f776e61626c653a2063616c6c6572206973206e6f7420746865206f776e65726044820152606401610268565b6003546040516000916001600160a01b0316907f8be0079c531659141344cd1fd0a4f28419497f9722a3daafe3b4186f6b6457e0908390a3600380546001600160a01b0319169055565b336000908152602081905260409020600101541561080b5760405162461bcd60e51b815260040161026890610d75565b6002546040516323b872dd60e01b8152336004820152306024820152604481018390526001600160a01b03909116906323b872dd90606401602060405180830381600087803b15801561085d57600080fd5b505af1158015610871573d6000803e3d6000fd5b505050506040513d601f19601f820116820180604052508101906108959190610d34565b506108a1338383610b1b565b5050565b6003546001600160a01b031633146108ff5760405162461bcd60e51b815260206004820181905260248201527f4f776e61626c653a2063616c6c6572206973206e6f7420746865206f776e65726044820152606401610268565b61090881610bca565b50565b600081158061092f575082826109218183610e30565b925061092d9083610e10565b145b6109725760405162461bcd60e51b815260206004820152601460248201527364732d6d6174682d6d756c2d6f766572666c6f7760601b6044820152606401610268565b92915050565b60008082116109c05760405162461bcd60e51b815260206004820152601460248201527364732d6d6174682d6d756c2d6f766572666c6f7760601b6044820152606401610268565b6109ca8284610e10565b9392505050565b6000826109de8382610e4f565b91508111156109725760405162461bcd60e51b815260206004820152601560248201527464732d6d6174682d7375622d756e646572666c6f7760581b6044820152606401610268565b600082610a348382610df8565b91508110156109725760405162461bcd60e51b815260206004820152601460248201527364732d6d6174682d6164642d6f766572666c6f7760601b6044820152606401610268565b33600090815260208190526040902060010154610adb5760405162461bcd60e51b815260206004820152601c60248201527f54686973206164647265737320646f6573206e6f742065786973742e000000006044820152606401610268565b6001600160a01b0316600090815260208190526040812080546001600160a01b031916815560018101829055600281018290556003810182905560040155565b3360009081526020819052604090206001015415610b4b5760405162461bcd60e51b815260040161026890610d75565b6000610b578383610c8b565b6040805160a0810182526001600160a01b0396871680825242602080840191825283850198895260608401978852608084019586526000928352829052929020905181546001600160a01b0319169716969096178655516001860155925160028501555051600383015551600490910155565b6001600160a01b038116610c2f5760405162461bcd60e51b815260206004820152602660248201527f4f776e61626c653a206e6577206f776e657220697320746865207a65726f206160448201526564647265737360d01b6064820152608401610268565b6003546040516001600160a01b038084169216907f8be0079c531659141344cd1fd0a4f28419497f9722a3daafe3b4186f6b6457e090600090a3600380546001600160a01b0319166001600160a01b0392909216919091179055565b6000610c9e6127106103e084607861090b565b90508260071415610cae57610972565b82601e1415610ce457610cdd610ccc6127106103e0856101f461090b565b610cd783600461090b565b90610a27565b9050610972565b82605a1415610972576109ca610d026127106103e0856107d061090b565b610cd783600d61090b565b600060208284031215610d1e578081fd5b81356001600160a01b03811681146109ca578182fd5b600060208284031215610d45578081fd5b815180151581146109ca578182fd5b60008060408385031215610d66578081fd5b50508035926020909101359150565b6020808252602c908201527f54686973207374616b696e6720666f722074686973206164647265737320616c60408201526b3932b0b23c9032bc34b9ba1760a11b606082015260800190565b6020808252601a908201527f54686973207374616b657220646f6573206e6f74206578697374000000000000604082015260600190565b60008219821115610e0b57610e0b610e66565b500190565b600082610e2b57634e487b7160e01b81526012600452602481fd5b500490565b6000816000190483118215151615610e4a57610e4a610e66565b500290565b600082821015610e6157610e61610e66565b500390565b634e487b7160e01b600052601160045260246000fdfea2646970667358221220ad6fe3643fc465f8a396ba4f00be9654c473999968fe228222ce43b198789b3364736f6c63430008040033",
  "linkReferences": {},
  "deployedLinkReferences": {}
}